{"abi":[{"inputs":[{"internalType":"contract IVotes","name":"_token","type":"address"},{"internalType":"contract TimelockController","name":"_timelock","type":"address"},{"internalType":"uint256","name":"_votingDelay","type":"uint256"},{"internalType":"uint256","name":"_votingPeriod","type":"uint256"},{"internalType":"uint256","name":"_quorumPercentage","type":"uint256"}],"stateMutability":"nonpayable","type":"constructor","name":"constructor"},{"inputs":[],"name":"Empty","type":"error"},{"anonymous":false,"inputs":[{"indexed":false,"internalType":"uint256","name":"proposalId","type":"uint256"}],"name":"ProposalCanceled","type":"event"},{"anonymous":false,"inputs":[{"indexed":false,"internalType":"address[]","name":"targets","type":"address[]"},{"indexed":false,"internalType":"uint256[]","name":"values","type":"uint256[]"},{"indexed":false,"internalType":"bytes32","name":"descriptionHash","type":"bytes32"}],"name":"ProposalCancelled","type":"event"},{"anonymous":false,"inputs":[{"indexed":false,"internalType":"uint256","name":"proposalId","type":"uint256"},{"indexed":false,"internalType":"address","name":"proposer","type":"address"},{"indexed":false,"internalType":"address[]","name":"targets","type":"address[]"},{"indexed":false,"internalType":"uint256[]","name":"values","type":"uint256[]"},{"indexed":false,"internalType":"string[]","name":"signatures","type":"string[]"},{"indexed":false,"internalType":"bytes[]","name":"calldatas","type":"bytes[]"},{"indexed":false,"internalType":"uint256","name":"startBlock","type":"uint256"},{"indexed":false,"internalType":"uint256","name":"endBlock","type":"uint256"},{"indexed":false,"internalType":"string","name":"description","type":"string"}],"name":"ProposalCreated","type":"event"},{"anonymous":false,"inputs":[{"indexed":false,"internalType":"uint256","name":"proposalId","type":"uint256"},{"indexed":false,"internalType":"address[]","name":"targets","type":"address[]"},{"indexed":false,"internalType":"uint256[]","name":"values","type":"uint256[]"},{"indexed":false,"internalType":"bytes[]","name":"calldatas","type":"bytes[]"},{"indexed":false,"internalType":"bytes32","name":"descriptionHash","type":"bytes32"}],"name":"ProposalExecuted","type":"event"},{"anonymous":false,"inputs":[{"indexed":false,"internalType":"uint256","name":"proposalId","type":"uint256"}],"name":"ProposalExecuted","type":"event"},{"anonymous":false,"inputs":[{"indexed":false,"internalType":"uint256","name":"proposalId","type":"uint256"},{"indexed":false,"internalType":"uint256","name":"eta","type":"uint256"}],"name":"ProposalQueued","type":"event"},{"anonymous":false,"inputs":[{"indexed":false,"internalType":"uint256","name":"oldProposalThreshold","type":"uint256"},{"indexed":false,"internalType":"uint256","name":"newProposalThreshold","type":"uint256"}],"name":"ProposalThresholdSet","type":"event"},{"anonymous":false,"inputs":[{"indexed":false,"internalType":"uint256","name":"oldQuorumNumerator","type":"uint256"},{"indexed":false,"internalType":"uint256","name":"newQuorumNumerator","type":"uint256"}],"name":"QuorumNumeratorUpdated","type":"event"},{"anonymous":false,"inputs":[{"indexed":false,"internalType":"address","name":"oldTimelock","type":"address"},{"indexed":false,"internalType":"address","name":"newTimelock","type":"address"}],"name":"TimelockChange","type":"event"},{"anonymous":false,"inputs":[{"indexed":true,"internalType":"address","name":"voter","type":"address"},{"indexed":false,"internalType":"uint256","name":"proposalId","type":"uint256"},{"indexed":false,"internalType":"uint8","name":"support","type":"uint8"},{"indexed":false,"internalType":"uint256","name":"weight","type":"uint256"},{"indexed":false,"internalType":"string","name":"reason","type":"string"}],"name":"VoteCast","type":"event"},{"anonymous":false,"inputs":[{"indexed":true,"internalType":"address","name":"voter","type":"address"},{"indexed":false,"internalType":"uint256","name":"proposalId","type":"uint256"},{"indexed":false,"internalType":"uint8","name":"support","type":"uint8"},{"indexed":false,"internalType":"uint256","name":"weight","type":"uint256"},{"indexed":false,"internalType":"string","name":"reason","type":"string"},{"indexed":false,"internalType":"bytes","name":"params","type":"bytes"}],"name":"VoteCastWithParams","type":"event"},{"anonymous":false,"inputs":[{"indexed":false,"internalType":"uint256","name":"oldVotingDelay","type":"uint256"},{"indexed":false,"internalType":"uint256","name":"newVotingDelay","type":"uint256"}],"name":"VotingDelaySet","type":"event"},{"anonymous":false,"inputs":[{"indexed":false,"internalType":"uint256","name":"oldVotingPeriod","type":"uint256"},{"indexed":false,"internalType":"uint256","name":"newVotingPeriod","type":"uint256"}],"name":"VotingPeriodSet","type":"event"},{"inputs":[],"name":"BALLOT_TYPEHASH","outputs":[{"internalType":"bytes32","name":"","type":"bytes32"}],"stateMutability":"view","type":"function"},{"inputs":[],"name":"COUNTING_MODE","outputs":[{"internalType":"string","name":"","type":"string"}],"stateMutability":"pure","type":"function"},{"inputs":[],"name":"EXTENDED_BALLOT_TYPEHASH","outputs":[{"internalType":"bytes32","name":"","type":"bytes32"}],"stateMutability":"view","type":"function"},{"inputs":[{"internalType":"uint256","name":"proposalId","type":"uint256"},{"internalType":"uint8","name":"support","type":"uint8"}],"name":"castVote","outputs":[{"internalType":"uint256","name":"","type":"uint256"}],"stateMutability":"nonpayable","type":"function"},{"inputs":[{"internalType":"uint256","name":"proposalId","type":"uint256"},{"internalType":"uint8","name":"support","type":"uint8"},{"internalType":"uint8","name":"v","type":"uint8"},{"internalType":"bytes32","name":"r","type":"bytes32"},{"internalType":"bytes32","name":"s","type":"bytes32"}],"name":"castVoteBySig","outputs":[{"internalType":"uint256","name":"","type":"uint256"}],"stateMutability":"nonpayable","type":"function"},{"inputs":[{"internalType":"uint256","name":"proposalId","type":"uint256"},{"internalType":"uint8","name":"support","type":"uint8"},{"internalType":"string","name":"reason","type":"string"}],"name":"castVoteWithReason","outputs":[{"internalType":"uint256","name":"","type":"uint256"}],"stateMutability":"nonpayable","type":"function"},{"inputs":[{"internalType":"uint256","name":"proposalId","type":"uint256"},{"internalType":"uint8","name":"support","type":"uint8"},{"internalType":"string","name":"reason","type":"string"},{"internalType":"bytes","name":"params","type":"bytes"}],"name":"castVoteWithReasonAndParams","outputs":[{"internalType":"uint256","name":"","type":"uint256"}],"stateMutability":"nonpayable","type":"function"},{"inputs":[{"internalType":"uint256","name":"proposalId","type":"uint256"},{"internalType":"uint8","name":"support","type":"uint8"},{"internalType":"string","name":"reason","type":"string"},{"internalType":"bytes","name":"params","type":"bytes"},{"internalType":"uint8","name":"v","type":"uint8"},{"internalType":"bytes32","name":"r","type":"bytes32"},{"internalType":"bytes32","name":"s","type":"bytes32"}],"name":"castVoteWithReasonAndParamsBySig","outputs":[{"internalType":"uint256","name":"","type":"uint256"}],"stateMutability":"nonpayable","type":"function"},{"inputs":[{"internalType":"address[]","name":"targets","type":"address[]"},{"internalType":"uint256[]","name":"values","type":"uint256[]"},{"internalType":"bytes[]","name":"calldatas","type":"bytes[]"},{"internalType":"bytes32","name":"descriptionHash","type":"bytes32"}],"name":"execute","outputs":[{"internalType":"uint256","name":"","type":"uint256"}],"stateMutability":"payable","type":"function"},{"inputs":[{"internalType":"address","name":"account","type":"address"},{"internalType":"uint256","name":"blockNumber","type":"uint256"}],"name":"getVotes","outputs":[{"internalType":"uint256","name":"","type":"uint256"}],"stateMutability":"view","type":"function"},{"inputs":[{"internalType":"address","name":"account","type":"address"},{"internalType":"uint256","name":"blockNumber","type":"uint256"},{"internalType":"bytes","name":"params","type":"bytes"}],"name":"getVotesWithParams","outputs":[{"internalType":"uint256","name":"","type":"uint256"}],"stateMutability":"view","type":"function"},{"inputs":[{"internalType":"uint256","name":"proposalId","type":"uint256"},{"internalType":"address","name":"account","type":"address"}],"name":"hasVoted","outputs":[{"internalType":"bool","name":"","type":"bool"}],"stateMutability":"view","type":"function"},{"inputs":[{"internalType":"address[]","name":"targets","type":"address[]"},{"internalType":"uint256[]","name":"values","type":"uint256[]"},{"internalType":"bytes[]","name":"calldatas","type":"bytes[]"},{"internalType":"bytes32","name":"descriptionHash","type":"bytes32"}],"name":"hashProposal","outputs":[{"internalType":"uint256","name":"","type":"uint256"}],"stateMutability":"pure","type":"function"},{"inputs":[],"name":"name","outputs":[{"internalType":"string","name":"","type":"string"}],"stateMutability":"view","type":"function"},{"inputs":[{"internalType":"address","name":"","type":"address"},{"internalType":"address","name":"","type":"address"},{"internalType":"uint256[]","name":"","type":"uint256[]"},{"internalType":"uint256[]","name":"","type":"uint256[]"},{"internalType":"bytes","name":"","type":"bytes"}],"name":"onERC1155BatchReceived","outputs":[{"internalType":"bytes4","name":"","type":"bytes4"}],"stateMutability":"nonpayable","type":"function"},{"inputs":[{"internalType":"address","name":"","type":"address"},{"internalType":"address","name":"","type":"address"},{"internalType":"uint256","name":"","type":"uint256"},{"internalType":"uint256","name":"","type":"uint256"},{"internalType":"bytes","name":"","type":"bytes"}],"name":"onERC1155Received","outputs":[{"internalType":"bytes4","name":"","type":"bytes4"}],"stateMutability":"nonpayable","type":"function"},{"inputs":[{"internalType":"address","name":"","type":"address"},{"internalType":"address","name":"","type":"address"},{"internalType":"uint256","name":"","type":"uint256"},{"internalType":"bytes","name":"","type":"bytes"}],"name":"onERC721Received","outputs":[{"internalType":"bytes4","name":"","type":"bytes4"}],"stateMutability":"nonpayable","type":"function"},{"inputs":[{"internalType":"uint256","name":"proposalId","type":"uint256"}],"name":"proposalDeadline","outputs":[{"internalType":"uint256","name":"","type":"uint256"}],"stateMutability":"view","type":"function"},{"inputs":[{"internalType":"uint256","name":"proposalId","type":"uint256"}],"name":"proposalEta","outputs":[{"internalType":"uint256","name":"","type":"uint256"}],"stateMutability":"view","type":"function"},{"inputs":[{"internalType":"uint256","name":"proposalId","type":"uint256"}],"name":"proposalSnapshot","outputs":[{"internalType":"uint256","name":"","type":"uint256"}],"stateMutability":"view","type":"function"},{"inputs":[],"name":"proposalThreshold","outputs":[{"internalType":"uint256","name":"","type":"uint256"}],"stateMutability":"view","type":"function"},{"inputs":[{"internalType":"uint256","name":"proposalId","type":"uint256"}],"name":"proposalVotes","outputs":[{"internalType":"uint256","name":"againstVotes","type":"uint256"},{"internalType":"uint256","name":"forVotes","type":"uint256"},{"internalType":"uint256","name":"abstainVotes","type":"uint256"}],"stateMutability":"view","type":"function"},{"inputs":[{"internalType":"address[]","name":"targets","type":"address[]"},{"internalType":"uint256[]","name":"values","type":"uint256[]"},{"internalType":"bytes[]","name":"calldatas","type":"bytes[]"},{"internalType":"string","name":"description","type":"string"}],"name":"propose","outputs":[{"internalType":"uint256","name":"","type":"uint256"}],"stateMutability":"nonpayable","type":"function"},{"inputs":[{"internalType":"address[]","name":"targets","type":"address[]"},{"internalType":"uint256[]","name":"values","type":"uint256[]"},{"internalType":"bytes[]","name":"calldatas","type":"bytes[]"},{"internalType":"bytes32","name":"descriptionHash","type":"bytes32"}],"name":"queue","outputs":[{"internalType":"uint256","name":"","type":"uint256"}],"stateMutability":"nonpayable","type":"function"},{"inputs":[{"internalType":"uint256","name":"blockNumber","type":"uint256"}],"name":"quorum","outputs":[{"internalType":"uint256","name":"","type":"uint256"}],"stateMutability":"view","type":"function"},{"inputs":[],"name":"quorumDenominator","outputs":[{"internalType":"uint256","name":"","type":"uint256"}],"stateMutability":"view","type":"function"},{"inputs":[{"internalType":"uint256","name":"blockNumber","type":"uint256"}],"name":"quorumNumerator","outputs":[{"internalType":"uint256","name":"","type":"uint256"}],"stateMutability":"view","type":"function"},{"inputs":[],"name":"quorumNumerator","outputs":[{"internalType":"uint256","name":"","type":"uint256"}],"stateMutability":"view","type":"function"},{"inputs":[{"internalType":"address","name":"target","type":"address"},{"internalType":"uint256","name":"value","type":"uint256"},{"internalType":"bytes","name":"data","type":"bytes"}],"name":"relay","outputs":[],"stateMutability":"payable","type":"function"},{"inputs":[{"internalType":"uint256","name":"newProposalThreshold","type":"uint256"}],"name":"setProposalThreshold","outputs":[],"stateMutability":"nonpayable","type":"function"},{"inputs":[{"internalType":"uint256","name":"newVotingDelay","type":"uint256"}],"name":"setVotingDelay","outputs":[],"stateMutability":"nonpayable","type":"function"},{"inputs":[{"internalType":"uint256","name":"newVotingPeriod","type":"uint256"}],"name":"setVotingPeriod","outputs":[],"stateMutability":"nonpayable","type":"function"},{"inputs":[{"internalType":"uint256","name":"proposalId","type":"uint256"}],"name":"state","outputs":[{"internalType":"enum IGovernor.ProposalState","name":"","type":"uint8"}],"stateMutability":"view","type":"function"},{"inputs":[{"internalType":"bytes4","name":"interfaceId","type":"bytes4"}],"name":"supportsInterface","outputs":[{"internalType":"bool","name":"","type":"bool"}],"stateMutability":"view","type":"function"},{"inputs":[],"name":"timelock","outputs":[{"internalType":"address","name":"","type":"address"}],"stateMutability":"view","type":"function"},{"inputs":[],"name":"token","outputs":[{"internalType":"contract IVotes","name":"","type":"address"}],"stateMutability":"view","type":"function"},{"inputs":[{"internalType":"uint256","name":"newQuorumNumerator","type":"uint256"}],"name":"updateQuorumNumerator","outputs":[],"stateMutability":"nonpayable","type":"function"},{"inputs":[{"internalType":"contract TimelockController","name":"newTimelock","type":"address"}],"name":"updateTimelock","outputs":[],"stateMutability":"nonpayable","type":"function"},{"inputs":[],"name":"version","outputs":[{"internalType":"string","name":"","type":"string"}],"stateMutability":"view","type":"function"},{"inputs":[],"name":"votingDelay","outputs":[{"internalType":"uint256","name":"","type":"uint256"}],"stateMutability":"view","type":"function"},{"inputs":[],"name":"votingPeriod","outputs":[{"internalType":"uint256","name":"","type":"uint256"}],"stateMutability":"view","type":"function"},{"stateMutability":"payable","type":"receive"}],"bytecode":"6101606040523480156200001257600080fd5b50604051620045b5380380620045b5833981016040819052620000359162000802565b838186858560006040518060400160405280600881526020016723b7bb32b93737b960c11b815250806200006e6200016260201b60201c565b815160209283012081519183019190912060e08290526101008190524660a0818152604080517f8b73c3c69bb8fe3d512ecc4cf759cc79239f7b179b0ffacaa9a75d522b39400f818801819052818301969096526060810194909452608080850193909352308483018190528151808603909301835260c0948501909152815191909501209052919091526101205260006200010b8282620008ff565b50620001199050836200017d565b6200012482620001be565b6200012f8162000265565b5050506001600160a01b0316610140526200014a81620002a6565b5062000156816200041e565b505050505050620009f3565b6040805180820190915260018152603160f81b602082015290565b60045460408051918252602082018390527fc565b045403dc03c2eea82b81a0465edad9e2e7fc4d97e11421c209da93d7a93910160405180910390a1600455565b60008111620002245760405162461bcd60e51b815260206004820152602760248201527f476f7665726e6f7253657474696e67733a20766f74696e6720706572696f6420604482015266746f6f206c6f7760c81b60648201526084015b60405180910390fd5b60055460408051918252602082018390527f7e3f7f0708a84de9203036abaa450dccc85ad5ff52f78c170f3edb55cf5e8828910160405180910390a1600555565b60065460408051918252602082018390527fccb45da8d5717e6c4544694297c4ba5cf151d455c9bb0ed4fc7a38411bc05461910160405180910390a1600655565b60648111156200032b5760405162461bcd60e51b815260206004820152604360248201527f476f7665726e6f72566f74657351756f72756d4672616374696f6e3a2071756f60448201527f72756d4e756d657261746f72206f7665722071756f72756d44656e6f6d696e616064820152623a37b960e91b608482015260a4016200021b565b60006200033762000487565b90508015801590620003495750600954155b15620003c45760096000016040518060400160405280600063ffffffff1681526020016200038284620004bf60201b620014a61760201c565b6001600160e01b0390811690915282546001810184556000938452602093849020835194909301519091166401000000000263ffffffff909316929092179101555b620003df8260096200052e60201b620015131790919060201c565b505060408051828152602081018490527f0553476bf02ef2726e8ce5ced78d63e26e602e4a2257b1f559418e24b4633997910160405180910390a15050565b600a54604080516001600160a01b03928316815291831660208301527f08f74ea46ef7894f65eabfb5e6e695de773a000b47c529ab559178069b226401910160405180910390a1600a80546001600160a01b0319166001600160a01b0392909216919091179055565b60095460009015620004b857620004aa60096200058160201b620015491760201c565b6001600160e01b0316905090565b5060085490565b60006001600160e01b038211156200052a5760405162461bcd60e51b815260206004820152602760248201527f53616665436173743a2076616c756520646f65736e27742066697420696e20326044820152663234206269747360c81b60648201526084016200021b565b5090565b6000806200056b846000016200054f43620005cf60201b620015871760201c565b6200056586620004bf60201b620014a61760201c565b62000636565b6001600160e01b03918216969116945092505050565b80546000908015620005c557620005ad836200059f600184620009cb565b600091825260209091200190565b5464010000000090046001600160e01b0316620005c8565b60005b9392505050565b600063ffffffff8211156200052a5760405162461bcd60e51b815260206004820152602660248201527f53616665436173743a2076616c756520646f65736e27742066697420696e203360448201526532206269747360d01b60648201526084016200021b565b8254600090819080156200078b57600062000658876200059f600185620009cb565b60408051808201909152905463ffffffff8082168084526401000000009092046001600160e01b031660208401529192509087161015620006dc5760405162461bcd60e51b815260206004820152601760248201527f436865636b706f696e743a20696e76616c6964206b657900000000000000000060448201526064016200021b565b805163ffffffff8088169116036200072a578462000701886200059f600186620009cb565b80546001600160e01b03929092166401000000000263ffffffff9092169190911790556200077a565b6040805180820190915263ffffffff80881682526001600160e01b0380881660208085019182528b54600181018d5560008d81529190912094519151909216640100000000029216919091179101555b602001519250839150620007e19050565b50506040805180820190915263ffffffff80851682526001600160e01b0380851660208085019182528854600181018a5560008a8152918220955192519093166401000000000291909316179201919091559050815b935093915050565b6001600160a01b0381168114620007ff57600080fd5b50565b600080600080600060a086880312156200081b57600080fd5b85516200082881620007e9565b60208701519095506200083b81620007e9565b6040870151606088015160809098015196999198509695945092505050565b634e487b7160e01b600052604160045260246000fd5b600181811c908216806200088557607f821691505b602082108103620008a657634e487b7160e01b600052602260045260246000fd5b50919050565b601f821115620008fa57600081815260208120601f850160051c81016020861015620008d55750805b601f850160051c820191505b81811015620008f657828155600101620008e1565b5050505b505050565b81516001600160401b038111156200091b576200091b6200085a565b62000933816200092c845462000870565b84620008ac565b602080601f8311600181146200096b5760008415620009525750858301515b600019600386901b1c1916600185901b178555620008f6565b600085815260208120601f198616915b828110156200099c578886015182559484019460019091019084016200097b565b5085821015620009bb5787850151600019600388901b60f8161c191681555b5050505050600190811b01905550565b81810381811115620009ed57634e487b7160e01b600052601160045260246000fd5b92915050565b60805160a05160c05160e051610100516101205161014051613b5962000a5c6000396000818161086901528181612020015261221401526000612533015260006125820152600061255d015260006124b6015260006124e00152600061250a0152613b596000f3fe60806040526004361061024a5760003560e01c80637b3c71d311610139578063c28bc2fa116100b6578063ea0217cf1161007a578063ea0217cf146107ab578063eb9019d4146107cb578063ece40cc1146107eb578063f23a6e611461080b578063f8ce560a14610837578063fc0c546a1461085757600080fd5b8063c28bc2fa146106cc578063c59057e4146106df578063d33219b4146106ff578063dd4e2ba514610731578063deaaa7cc1461077757600080fd5b8063a890c910116100fd578063a890c9101461062b578063ab58fb8e1461064b578063b58131b01461066b578063bc197c8114610680578063c01f9e37146106ac57600080fd5b80637b3c71d3146105a25780637d5e81e2146105c257806397c3d334146105e25780639a802a6d146105f6578063a7713a701461061657600080fd5b80633932abb1116101c757806354fd4d501161018b57806354fd4d50146104f857806356781388146105225780635f398a141461054257806360c4247f1461056257806370b0f6601461058257600080fd5b80633932abb1146103f75780633bccf4fd1461040c5780633e4f49e61461042c5780634385963214610459578063544ffc9c146104a357600080fd5b8063150b7a021161020e578063150b7a021461032c578063160cbed7146103705780632656227d146103905780632d63f693146103a35780632fe3e261146103c357600080fd5b806301ffc9a71461027257806302a251a3146102a757806303420181146102ca57806306f3f9e6146102ea57806306fdde031461030a57600080fd5b3661026d573061025861088b565b6001600160a01b03161461026b57600080fd5b005b600080fd5b34801561027e57600080fd5b5061029261028d366004612c59565b6108a4565b60405190151581526020015b60405180910390f35b3480156102b357600080fd5b506102bc6108b5565b60405190815260200161029e565b3480156102d657600080fd5b506102bc6102e5366004612d97565b6108c0565b3480156102f657600080fd5b5061026b610305366004612e3d565b6109b8565b34801561031657600080fd5b5061031f610a4b565b60405161029e9190612e9c565b34801561033857600080fd5b50610357610347366004612ec4565b630a85bd0160e11b949350505050565b6040516001600160e01b0319909116815260200161029e565b34801561037c57600080fd5b506102bc61038b3660046130a0565b610add565b6102bc61039e3660046130a0565b610cdd565b3480156103af57600080fd5b506102bc6103be366004612e3d565b610dca565b3480156103cf57600080fd5b506102bc7fb3b3f3b703cd84ce352197dcff232b1b5d3cfb2025ce47cf04742d0651f1af8881565b34801561040357600080fd5b506102bc610e01565b34801561041857600080fd5b506102bc61042736600461312f565b610e0c565b34801561043857600080fd5b5061044c610447366004612e3d565b610e82565b60405161029e9190613193565b34801561046557600080fd5b506102926104743660046131bb565b60008281526007602090815260408083206001600160a01b038516845260030190915290205460ff1692915050565b3480156104af57600080fd5b506104dd6104be366004612e3d565b6000908152600760205260409020805460018201546002909201549092565b6040805193845260208401929092529082015260600161029e565b34801561050457600080fd5b506040805180820190915260018152603160f81b602082015261031f565b34801561052e57600080fd5b506102bc61053d3660046131eb565b610e8d565b34801561054e57600080fd5b506102bc61055d366004613217565b610eb6565b34801561056e57600080fd5b506102bc61057d366004612e3d565b610f00565b34801561058e57600080fd5b5061026b61059d366004612e3d565b610f97565b3480156105ae57600080fd5b506102bc6105bd36600461329a565b61101e565b3480156105ce57600080fd5b506102bc6105dd3660046132f3565b611070565b3480156105ee57600080fd5b5060646102bc565b34801561060257600080fd5b506102bc6106113660046133a7565b611087565b34801561062257600080fd5b506102bc61109e565b34801561063757600080fd5b5061026b6106463660046133ff565b6110c8565b34801561065757600080fd5b506102bc610666366004612e3d565b61114f565b34801561067757600080fd5b506102bc6111e9565b34801561068c57600080fd5b5061035761069b36600461341c565b63bc197c8160e01b95945050505050565b3480156106b857600080fd5b506102bc6106c7366004612e3d565b6111f4565b61026b6106da3660046134af565b611223565b3480156106eb57600080fd5b506102bc6106fa3660046130a0565b611332565b34801561070b57600080fd5b50600a546001600160a01b03165b6040516001600160a01b03909116815260200161029e565b34801561073d57600080fd5b506040805180820190915260208082527f737570706f72743d627261766f2671756f72756d3d666f722c6162737461696e9082015261031f565b34801561078357600080fd5b506102bc7f150214d74d59b7d1e90c73fc22ef3d991dd0a76b046543d4d80ab92d2a50328f81565b3480156107b757600080fd5b5061026b6107c6366004612e3d565b61136c565b3480156107d757600080fd5b506102bc6107e63660046134f2565b6113f3565b3480156107f757600080fd5b5061026b610806366004612e3d565b611414565b34801561081757600080fd5b5061035761082636600461351e565b63f23a6e6160e01b95945050505050565b34801561084357600080fd5b506102bc610852366004612e3d565b61149b565b34801561086357600080fd5b506107197f000000000000000000000000000000000000000000000000000000000000000081565b600061089f600a546001600160a01b031690565b905090565b60006108af826115ec565b92915050565b600061089f60055490565b60008061096461095c7fb3b3f3b703cd84ce352197dcff232b1b5d3cfb2025ce47cf04742d0651f1af888c8c8c8c6040516108fc929190613586565b60405180910390208b80519060200120604051602001610941959493929190948552602085019390935260ff9190911660408401526060830152608082015260a00190565b60405160208183030381529060405280519060200120611611565b86868661165f565b90506109aa8a828b8b8b8080601f0160208091040260200160405190810160405280939291908181526020018383808284376000920191909152508d925061167d915050565b9a9950505050505050505050565b6109c061088b565b6001600160a01b0316336001600160a01b0316146109f95760405162461bcd60e51b81526004016109f090613596565b60405180910390fd5b30610a0261088b565b6001600160a01b031614610a3f5760008036604051610a22929190613586565b604051809103902090505b80610a3860026117e2565b03610a2d57505b610a4881611861565b50565b606060008054610a5a906135cd565b80601f0160208091040260200160405190810160405280929190818152602001828054610a86906135cd565b8015610ad35780601f10610aa857610100808354040283529160200191610ad3565b820191906000526020600020905b815481529060010190602001808311610ab657829003601f168201915b5050505050905090565b600080610aec86868686611332565b90506004610af982610e82565b6007811115610b0a57610b0a61317d565b14610b275760405162461bcd60e51b81526004016109f090613607565b600a546040805163793d064960e11b815290516000926001600160a01b03169163f27a0c929160048083019260209291908290030181865afa158015610b71573d6000803e3d6000fd5b505050506040513d601f19601f82011682018060405250810190610b959190613648565b600a5460405163b1c5f42760e01b81529192506001600160a01b03169063b1c5f42790610bcf908a908a908a906000908b9060040161372d565b602060405180830381865afa158015610bec573d6000803e3d6000fd5b505050506040513d601f19601f82011682018060405250810190610c109190613648565b6000838152600b602052604080822092909255600a5491516308f2a0bb60e41b81526001600160a01b0390921691638f2a0bb091610c5b918b918b918b91908b90899060040161377b565b600060405180830381600087803b158015610c7557600080fd5b505af1158015610c89573d6000803e3d6000fd5b505050507f9a2e42fd6722813d69113e7d0079d3d940171428df7373df9c7f7617cfda2892828242610cbb91906137e9565b6040805192835260208301919091520160405180910390a15095945050505050565b600080610cec86868686611332565b90506000610cf982610e82565b90506004816007811115610d0f57610d0f61317d565b1480610d2c57506005816007811115610d2a57610d2a61317d565b145b610d485760405162461bcd60e51b81526004016109f090613607565b600082815260016020818152604092839020600201805460ff191690921790915590518381527f712ae1383f79ac853f8d882153778e0260ef8f03b504e2866e0593e04d2b291f910160405180910390a1610da682888888886119ad565b610db38288888888611a4f565b610dc08288888888611a9b565b5095945050505050565b60008181526001602090815260408083208151928301909152546001600160401b0316908190525b6001600160401b031692915050565b600061089f60045490565b604080517f150214d74d59b7d1e90c73fc22ef3d991dd0a76b046543d4d80ab92d2a50328f602082015290810186905260ff851660608201526000908190610e5a9061095c90608001610941565b9050610e7787828860405180602001604052806000815250611ad4565b979650505050505050565b60006108af82611af7565b600080339050610eae84828560405180602001604052806000815250611ad4565b949350505050565b600080339050610e7787828888888080601f0160208091040260200160405190810160405280939291908181526020018383808284376000920191909152508a925061167d915050565b600954600090808203610f17575050600854919050565b60006009610f266001846137fc565b81548110610f3657610f3661380f565b60009182526020918290206040805180820190915291015463ffffffff8116808352600160201b9091046001600160e01b03169282019290925291508410610f8c57602001516001600160e01b03169392505050565b610eae600985611c41565b610f9f61088b565b6001600160a01b0316336001600160a01b031614610fcf5760405162461bcd60e51b81526004016109f090613596565b30610fd861088b565b6001600160a01b0316146110155760008036604051610ff8929190613586565b604051809103902090505b8061100e60026117e2565b0361100357505b610a4881611cf3565b60008033905061106686828787878080601f016020809104026020016040519081016040528093929190818152602001838380828437600092019190915250611ad492505050565b9695505050505050565b600061107e85858585611d34565b95945050505050565b6000611094848484611ff7565b90505b9392505050565b600954600090156110c1576110b36009611549565b6001600160e01b0316905090565b5060085490565b6110d061088b565b6001600160a01b0316336001600160a01b0316146111005760405162461bcd60e51b81526004016109f090613596565b3061110961088b565b6001600160a01b0316146111465760008036604051611129929190613586565b604051809103902090505b8061113f60026117e2565b0361113457505b610a488161208d565b600a546000828152600b602052604080822054905163d45c443560e01b81526004810191909152909182916001600160a01b039091169063d45c443590602401602060405180830381865afa1580156111ac573d6000803e3d6000fd5b505050506040513d601f19601f820116820180604052508101906111d09190613648565b9050806001146111e05780611097565b60009392505050565b600061089f60065490565b60008181526001602081815260408084208151928301909152909101546001600160401b031690819052610df2565b61122b61088b565b6001600160a01b0316336001600160a01b03161461125b5760405162461bcd60e51b81526004016109f090613596565b3061126461088b565b6001600160a01b0316146112a15760008036604051611284929190613586565b604051809103902090505b8061129a60026117e2565b0361128f57505b600080856001600160a01b03168585856040516112bf929190613586565b60006040518083038185875af1925050503d80600081146112fc576040519150601f19603f3d011682016040523d82523d6000602084013e611301565b606091505b50915091506113298282604051806060016040528060288152602001613afc602891396120f6565b50505050505050565b60008484848460405160200161134b9493929190613825565b60408051601f19818403018152919052805160209091012095945050505050565b61137461088b565b6001600160a01b0316336001600160a01b0316146113a45760405162461bcd60e51b81526004016109f090613596565b306113ad61088b565b6001600160a01b0316146113ea57600080366040516113cd929190613586565b604051809103902090505b806113e360026117e2565b036113d857505b610a488161210f565b6000611097838361140f60408051602081019091526000815290565b611ff7565b61141c61088b565b6001600160a01b0316336001600160a01b03161461144c5760405162461bcd60e51b81526004016109f090613596565b3061145561088b565b6001600160a01b0316146114925760008036604051611475929190613586565b604051809103902090505b8061148b60026117e2565b0361148057505b610a48816121b0565b60006108af826121f1565b60006001600160e01b0382111561150f5760405162461bcd60e51b815260206004820152602760248201527f53616665436173743a2076616c756520646f65736e27742066697420696e20326044820152663234206269747360c81b60648201526084016109f0565b5090565b6000806115318461152343611587565b61152c866114a6565b61229b565b6001600160e01b0391821693501690505b9250929050565b805460009080156111e057611571836115636001846137fc565b600091825260209091200190565b54600160201b90046001600160e01b0316611097565b600063ffffffff82111561150f5760405162461bcd60e51b815260206004820152602660248201527f53616665436173743a2076616c756520646f65736e27742066697420696e203360448201526532206269747360d01b60648201526084016109f0565b60006001600160e01b03198216636e665ced60e01b14806108af57506108af8261243e565b60006108af61161e6124a9565b8360405161190160f01b6020820152602281018390526042810182905260009060620160405160208183030381529060405280519060200120905092915050565b6000806000611670878787876125d0565b91509150610dc081612694565b600085815260016020819052604082209061169788610e82565b60078111156116a8576116a861317d565b146117015760405162461bcd60e51b815260206004820152602360248201527f476f7665726e6f723a20766f7465206e6f742063757272656e746c792061637460448201526269766560e81b60648201526084016109f0565b604080516020810190915281546001600160401b03169081905260009061172a90889086611ff7565b905061173988888884886127de565b835160000361178e57866001600160a01b03167fb8e138887d0aa13bab447e82de9d5c1777041ecd21ca36ba824ff1e6c07ddda4898884896040516117819493929190613870565b60405180910390a2610e77565b866001600160a01b03167fe2babfbac5889a709b63bb7f598b324e08bc5a4fb9ec647fb3cbc9ec07eb871289888489896040516117cf959493929190613898565b60405180910390a2979650505050505050565b60006117fd8254600f81810b600160801b909204900b131590565b1561181b57604051631ed9509560e11b815260040160405180910390fd5b508054600f0b6000818152600180840160205260408220805492905583546fffffffffffffffffffffffffffffffff191692016001600160801b03169190911790915590565b60648111156118e45760405162461bcd60e51b815260206004820152604360248201527f476f7665726e6f72566f74657351756f72756d4672616374696f6e3a2071756f60448201527f72756d4e756d657261746f72206f7665722071756f72756d44656e6f6d696e616064820152623a37b960e91b608482015260a4016109f0565b60006118ee61109e565b905080158015906118ff5750600954155b1561196357604080518082019091526000815260099060208101611922846114a6565b6001600160e01b039081169091528254600181018455600093845260209384902083519490930151909116600160201b0263ffffffff909316929092179101555b61196e600983611513565b505060408051828152602081018490527f0553476bf02ef2726e8ce5ced78d63e26e602e4a2257b1f559418e24b4633997910160405180910390a15050565b306119b661088b565b6001600160a01b031614611a485760005b8451811015611a4657306001600160a01b03168582815181106119ec576119ec61380f565b60200260200101516001600160a01b031603611a3657611a36838281518110611a1757611a1761380f565b602002602001015180519060200120600261295890919063ffffffff16565b611a3f816138de565b90506119c7565b505b5050505050565b7ff3171e02b08ba323d9d497bd927df52fe517c6af1986c5f6cc7b4cbf8f63aeaa8585858585604051611a869594939291906138f7565b60405180910390a1611a488585858585612994565b30611aa461088b565b6001600160a01b031614611a4857600254600f81810b600160801b909204900b1315611a48576000600255611a48565b600061107e85858585611af260408051602081019091526000815290565b61167d565b600080611b0383612a08565b90506004816007811115611b1957611b1961317d565b14611b245792915050565b6000838152600b602052604090205480611b3f575092915050565b600a54604051632ab0f52960e01b8152600481018390526001600160a01b0390911690632ab0f52990602401602060405180830381865afa158015611b88573d6000803e3d6000fd5b505050506040513d601f19601f82011682018060405250810190611bac9190613949565b15611bbb575060079392505050565b600a54604051632c258a9f60e11b8152600481018390526001600160a01b039091169063584b153e90602401602060405180830381865afa158015611c04573d6000803e3d6000fd5b505050506040513d601f19601f82011682018060405250810190611c289190613949565b15611c37575060059392505050565b5060029392505050565b6000438210611c925760405162461bcd60e51b815260206004820181905260248201527f436865636b706f696e74733a20626c6f636b206e6f7420796574206d696e656460448201526064016109f0565b6000611c9d83611587565b84549091506000611cb086848385612b17565b90508015611cdd57611cc7866115636001846137fc565b54600160201b90046001600160e01b0316611ce0565b60005b6001600160e01b03169695505050505050565b60045460408051918252602082018390527fc565b045403dc03c2eea82b81a0465edad9e2e7fc4d97e11421c209da93d7a93910160405180910390a1600455565b6000611d3e6111e9565b611d4d336107e66001436137fc565b1015611db55760405162461bcd60e51b815260206004820152603160248201527f476f7665726e6f723a2070726f706f73657220766f7465732062656c6f7720706044820152701c9bdc1bdcd85b081d1a1c995cda1bdb19607a1b60648201526084016109f0565b6000611dca8686868680519060200120611332565b90508451865114611ded5760405162461bcd60e51b81526004016109f09061396b565b8351865114611e0e5760405162461bcd60e51b81526004016109f09061396b565b6000865111611e5f5760405162461bcd60e51b815260206004820152601860248201527f476f7665726e6f723a20656d7074792070726f706f73616c000000000000000060448201526064016109f0565b600081815260016020908152604091829020825191820190925281546001600160401b03169081905215611edf5760405162461bcd60e51b815260206004820152602160248201527f476f7665726e6f723a2070726f706f73616c20616c72656164792065786973746044820152607360f81b60648201526084016109f0565b6000611ef1611eec610e01565b612b75565b611efa43612b75565b611f0491906139ac565b90506000611f13611eec6108b5565b611f1d90836139ac565b835467ffffffffffffffff19166001600160401b038416178455905060018301805467ffffffffffffffff19166001600160401b0383161790557f7d84a6263ae0d98d3329bd7b46bb4e8d6f98cd35a7adb45c274c8b7fd5ebd5e084338b8b8d516001600160401b03811115611f9557611f95612cda565b604051908082528060200260200182016040528015611fc857816020015b6060815260200190600190039081611fb35790505b508c88888e604051611fe2999897969594939291906139d3565b60405180910390a15091979650505050505050565b604051630748d63560e31b81526001600160a01b038481166004830152602482018490526000917f000000000000000000000000000000000000000000000000000000000000000090911690633a46b1a890604401602060405180830381865afa158015612069573d6000803e3d6000fd5b505050506040513d601f19601f820116820180604052508101906110949190613648565b600a54604080516001600160a01b03928316815291831660208301527f08f74ea46ef7894f65eabfb5e6e695de773a000b47c529ab559178069b226401910160405180910390a1600a80546001600160a01b0319166001600160a01b0392909216919091179055565b60608315612105575081611097565b6110978383612bdd565b6000811161216f5760405162461bcd60e51b815260206004820152602760248201527f476f7665726e6f7253657474696e67733a20766f74696e6720706572696f6420604482015266746f6f206c6f7760c81b60648201526084016109f0565b60055460408051918252602082018390527f7e3f7f0708a84de9203036abaa450dccc85ad5ff52f78c170f3edb55cf5e8828910160405180910390a1600555565b60065460408051918252602082018390527fccb45da8d5717e6c4544694297c4ba5cf151d455c9bb0ed4fc7a38411bc05461910160405180910390a1600655565b600060646121fe83610f00565b604051632394e7a360e21b8152600481018590527f00000000000000000000000000000000000000000000000000000000000000006001600160a01b031690638e539e8c90602401602060405180830381865afa158015612263573d6000803e3d6000fd5b505050506040513d601f19601f820116820180604052508101906122879190613648565b6122919190613ac2565b6108af9190613ad9565b8254600090819080156123e15760006122b9876115636001856137fc565b60408051808201909152905463ffffffff808216808452600160201b9092046001600160e01b03166020840152919250908716101561233a5760405162461bcd60e51b815260206004820152601760248201527f436865636b706f696e743a20696e76616c6964206b657900000000000000000060448201526064016109f0565b805163ffffffff808816911603612382578461235b886115636001866137fc565b80546001600160e01b0392909216600160201b0263ffffffff9092169190911790556123d1565b6040805180820190915263ffffffff80881682526001600160e01b0380881660208085019182528b54600181018d5560008d81529190912094519151909216600160201b029216919091179101555b6020015192508391506124369050565b50506040805180820190915263ffffffff80851682526001600160e01b0380851660208085019182528854600181018a5560008a815291822095519251909316600160201b0291909316179201919091559050815b935093915050565b60006001600160e01b0319821663bf26d89760e01b148061246f57506001600160e01b031982166379dd796f60e01b145b8061248a57506001600160e01b03198216630271189760e51b145b806108af57506301ffc9a760e01b6001600160e01b03198316146108af565b6000306001600160a01b037f00000000000000000000000000000000000000000000000000000000000000001614801561250257507f000000000000000000000000000000000000000000000000000000000000000046145b1561252c57507f000000000000000000000000000000000000000000000000000000000000000090565b50604080517f00000000000000000000000000000000000000000000000000000000000000006020808301919091527f0000000000000000000000000000000000000000000000000000000000000000828401527f000000000000000000000000000000000000000000000000000000000000000060608301524660808301523060a0808401919091528351808403909101815260c0909201909252805191012090565b6000807f7fffffffffffffffffffffffffffffff5d576e7357a4501ddfe92f46681b20a0831115612607575060009050600361268b565b6040805160008082526020820180845289905260ff881692820192909252606081018690526080810185905260019060a0016020604051602081039080840390855afa15801561265b573d6000803e3d6000fd5b5050604051601f1901519150506001600160a01b0381166126845760006001925092505061268b565b9150600090505b94509492505050565b60008160048111156126a8576126a861317d565b036126b05750565b60018160048111156126c4576126c461317d565b036127115760405162461bcd60e51b815260206004820152601860248201527f45434453413a20696e76616c6964207369676e6174757265000000000000000060448201526064016109f0565b60028160048111156127255761272561317d565b036127725760405162461bcd60e51b815260206004820152601f60248201527f45434453413a20696e76616c6964207369676e6174757265206c656e6774680060448201526064016109f0565b60038160048111156127865761278661317d565b03610a485760405162461bcd60e51b815260206004820152602260248201527f45434453413a20696e76616c6964207369676e6174757265202773272076616c604482015261756560f01b60648201526084016109f0565b60008581526007602090815260408083206001600160a01b0388168452600381019092529091205460ff16156128665760405162461bcd60e51b815260206004820152602760248201527f476f7665726e6f72566f74696e6753696d706c653a20766f746520616c726561604482015266191e4818d85cdd60ca1b60648201526084016109f0565b6001600160a01b03851660009081526003820160205260409020805460ff1916600117905560ff84166128b257828160000160008282546128a791906137e9565b90915550611a469050565b60001960ff8516016128d257828160010160008282546128a791906137e9565b60011960ff8516016128f257828160020160008282546128a791906137e9565b60405162461bcd60e51b815260206004820152603560248201527f476f7665726e6f72566f74696e6753696d706c653a20696e76616c69642076616044820152746c756520666f7220656e756d20566f74655479706560581b60648201526084016109f0565b8154600160801b90819004600f0b6000818152600180860160205260409091209390935583546001600160801b03908116939091011602179055565b600a5460405163e38335e560e01b81526001600160a01b039091169063e38335e59034906129cf90889088908890600090899060040161372d565b6000604051808303818588803b1580156129e857600080fd5b505af11580156129fc573d6000803e3d6000fd5b50505050505050505050565b6000818152600160205260408120600281015460ff1615612a2c5750600792915050565b6002810154610100900460ff1615612a475750600292915050565b6000612a5284610dca565b905080600003612aa45760405162461bcd60e51b815260206004820152601d60248201527f476f7665726e6f723a20756e6b6e6f776e2070726f706f73616c20696400000060448201526064016109f0565b438110612ab5575060009392505050565b6000612ac0856111f4565b9050438110612ad457506001949350505050565b612add85612c07565b8015612afc575060008581526007602052604090208054600190910154115b15612b0c57506004949350505050565b506003949350505050565b60005b81831015612b6d576000612b2e8484612c3e565b60008781526020902090915063ffffffff86169082015463ffffffff161115612b5957809250612b67565b612b648160016137e9565b93505b50612b1a565b509392505050565b60006001600160401b0382111561150f5760405162461bcd60e51b815260206004820152602660248201527f53616665436173743a2076616c756520646f65736e27742066697420696e203660448201526534206269747360d01b60648201526084016109f0565b815115612bed5781518083602001fd5b8060405162461bcd60e51b81526004016109f09190612e9c565b600081815260076020526040812060028101546001820154612c2991906137e9565b612c3561085285610dca565b11159392505050565b6000612c4d6002848418613ad9565b611097908484166137e9565b600060208284031215612c6b57600080fd5b81356001600160e01b03198116811461109757600080fd5b803560ff81168114612c9457600080fd5b919050565b60008083601f840112612cab57600080fd5b5081356001600160401b03811115612cc257600080fd5b60208301915083602082850101111561154257600080fd5b634e487b7160e01b600052604160045260246000fd5b604051601f8201601f191681016001600160401b0381118282101715612d1857612d18612cda565b604052919050565b60006001600160401b03831115612d3957612d39612cda565b612d4c601f8401601f1916602001612cf0565b9050828152838383011115612d6057600080fd5b828260208301376000602084830101529392505050565b600082601f830112612d8857600080fd5b61109783833560208501612d20565b60008060008060008060008060e0898b031215612db357600080fd5b88359750612dc360208a01612c83565b965060408901356001600160401b0380821115612ddf57600080fd5b612deb8c838d01612c99565b909850965060608b0135915080821115612e0457600080fd5b50612e118b828c01612d77565b945050612e2060808a01612c83565b925060a0890135915060c089013590509295985092959890939650565b600060208284031215612e4f57600080fd5b5035919050565b6000815180845260005b81811015612e7c57602081850181015186830182015201612e60565b506000602082860101526020601f19601f83011685010191505092915050565b6020815260006110976020830184612e56565b6001600160a01b0381168114610a4857600080fd5b60008060008060808587031215612eda57600080fd5b8435612ee581612eaf565b93506020850135612ef581612eaf565b92506040850135915060608501356001600160401b03811115612f1757600080fd5b612f2387828801612d77565b91505092959194509250565b60006001600160401b03821115612f4857612f48612cda565b5060051b60200190565b600082601f830112612f6357600080fd5b81356020612f78612f7383612f2f565b612cf0565b82815260059290921b84018101918181019086841115612f9757600080fd5b8286015b84811015612fbb578035612fae81612eaf565b8352918301918301612f9b565b509695505050505050565b600082601f830112612fd757600080fd5b81356020612fe7612f7383612f2f565b82815260059290921b8401810191818101908684111561300657600080fd5b8286015b84811015612fbb578035835291830191830161300a565b600082601f83011261303257600080fd5b81356020613042612f7383612f2f565b82815260059290921b8401810191818101908684111561306157600080fd5b8286015b84811015612fbb5780356001600160401b038111156130845760008081fd5b6130928986838b0101612d77565b845250918301918301613065565b600080600080608085870312156130b657600080fd5b84356001600160401b03808211156130cd57600080fd5b6130d988838901612f52565b955060208701359150808211156130ef57600080fd5b6130fb88838901612fc6565b9450604087013591508082111561311157600080fd5b5061311e87828801613021565b949793965093946060013593505050565b600080600080600060a0868803121561314757600080fd5b8535945061315760208701612c83565b935061316560408701612c83565b94979396509394606081013594506080013592915050565b634e487b7160e01b600052602160045260246000fd5b60208101600883106131b557634e487b7160e01b600052602160045260246000fd5b91905290565b600080604083850312156131ce57600080fd5b8235915060208301356131e081612eaf565b809150509250929050565b600080604083850312156131fe57600080fd5b8235915061320e60208401612c83565b90509250929050565b60008060008060006080868803121561322f57600080fd5b8535945061323f60208701612c83565b935060408601356001600160401b038082111561325b57600080fd5b61326789838a01612c99565b9095509350606088013591508082111561328057600080fd5b5061328d88828901612d77565b9150509295509295909350565b600080600080606085870312156132b057600080fd5b843593506132c060208601612c83565b925060408501356001600160401b038111156132db57600080fd5b6132e787828801612c99565b95989497509550505050565b6000806000806080858703121561330957600080fd5b84356001600160401b038082111561332057600080fd5b61332c88838901612f52565b9550602087013591508082111561334257600080fd5b61334e88838901612fc6565b9450604087013591508082111561336457600080fd5b61337088838901613021565b9350606087013591508082111561338657600080fd5b508501601f8101871361339857600080fd5b612f2387823560208401612d20565b6000806000606084860312156133bc57600080fd5b83356133c781612eaf565b92506020840135915060408401356001600160401b038111156133e957600080fd5b6133f586828701612d77565b9150509250925092565b60006020828403121561341157600080fd5b813561109781612eaf565b600080600080600060a0868803121561343457600080fd5b853561343f81612eaf565b9450602086013561344f81612eaf565b935060408601356001600160401b038082111561346b57600080fd5b61347789838a01612fc6565b9450606088013591508082111561348d57600080fd5b61349989838a01612fc6565b9350608088013591508082111561328057600080fd5b600080600080606085870312156134c557600080fd5b84356134d081612eaf565b93506020850135925060408501356001600160401b038111156132db57600080fd5b6000806040838503121561350557600080fd5b823561351081612eaf565b946020939093013593505050565b600080600080600060a0868803121561353657600080fd5b853561354181612eaf565b9450602086013561355181612eaf565b9350604086013592506060860135915060808601356001600160401b0381111561357a57600080fd5b61328d88828901612d77565b8183823760009101908152919050565b60208082526018908201527f476f7665726e6f723a206f6e6c79476f7665726e616e63650000000000000000604082015260600190565b600181811c908216806135e157607f821691505b60208210810361360157634e487b7160e01b600052602260045260246000fd5b50919050565b60208082526021908201527f476f7665726e6f723a2070726f706f73616c206e6f74207375636365737366756040820152601b60fa1b606082015260800190565b60006020828403121561365a57600080fd5b5051919050565b600081518084526020808501945080840160005b8381101561369a5781516001600160a01b031687529582019590820190600101613675565b509495945050505050565b600081518084526020808501945080840160005b8381101561369a578151875295820195908201906001016136b9565b600082825180855260208086019550808260051b84010181860160005b8481101561372057601f1986840301895261370e838351612e56565b988401989250908301906001016136f2565b5090979650505050505050565b60a08152600061374060a0830188613661565b828103602084015261375281886136a5565b9050828103604084015261376681876136d5565b60608401959095525050608001529392505050565b60c08152600061378e60c0830189613661565b82810360208401526137a081896136a5565b905082810360408401526137b481886136d5565b60608401969096525050608081019290925260a0909101529392505050565b634e487b7160e01b600052601160045260246000fd5b808201808211156108af576108af6137d3565b818103818111156108af576108af6137d3565b634e487b7160e01b600052603260045260246000fd5b6080815260006138386080830187613661565b828103602084015261384a81876136a5565b9050828103604084015261385e81866136d5565b91505082606083015295945050505050565b84815260ff841660208201528260408201526080606082015260006110666080830184612e56565b85815260ff8516602082015283604082015260a0606082015260006138c060a0830185612e56565b82810360808401526138d28185612e56565b98975050505050505050565b6000600182016138f0576138f06137d3565b5060010190565b85815260a06020820152600061391060a0830187613661565b828103604084015261392281876136a5565b9050828103606084015261393681866136d5565b9150508260808301529695505050505050565b60006020828403121561395b57600080fd5b8151801515811461109757600080fd5b60208082526021908201527f476f7665726e6f723a20696e76616c69642070726f706f73616c206c656e67746040820152600d60fb1b606082015260800190565b6001600160401b038181168382160190808211156139cc576139cc6137d3565b5092915050565b60006101208b8352602060018060a01b038c16818501528160408501526139fc8285018c613661565b91508382036060850152613a10828b6136a5565b915083820360808501528189518084528284019150828160051b850101838c0160005b83811015613a6157601f19878403018552613a4f838351612e56565b94860194925090850190600101613a33565b505086810360a0880152613a75818c6136d5565b945050505050613a9060c08401876001600160401b03169052565b6001600160401b03851660e0840152828103610100840152613ab28185612e56565b9c9b505050505050505050505050565b80820281158282048414176108af576108af6137d3565b600082613af657634e487b7160e01b600052601260045260246000fd5b50049056fe476f7665726e6f723a2072656c617920726576657274656420776974686f7574206d657373616765a2646970667358221220f6b10eafc54a6ec98e8488091d843d474bf7acb60b190257475140098aa3fc4a64736f6c63430008110033","bytecodeSha1":"d70e25071a5f0fa61419266e467eb569c34bd25f","compiler":{"evm_version":"istanbul","optimizer":{"enabled":true,"runs":200},"version":"0.8.17+commit.8df45f5f"},"contractName":"MoralisGovernor","language":"Solidity","natspec":{"errors":{"Empty()":[{"details":"An operation (e.g. {front}) couldn't be completed due to the queue being empty."}]},"kind":"dev","methods":{"COUNTING_MODE()":{"details":"See {IGovernor-COUNTING_MODE}."},"castVote(uint256,uint8)":{"details":"See {IGovernor-castVote}."},"castVoteBySig(uint256,uint8,uint8,bytes32,bytes32)":{"details":"See {IGovernor-castVoteBySig}."},"castVoteWithReason(uint256,uint8,string)":{"details":"See {IGovernor-castVoteWithReason}."},"castVoteWithReasonAndParams(uint256,uint8,string,bytes)":{"details":"See {IGovernor-castVoteWithReasonAndParams}."},"castVoteWithReasonAndParamsBySig(uint256,uint8,string,bytes,uint8,bytes32,bytes32)":{"details":"See {IGovernor-castVoteWithReasonAndParamsBySig}."},"execute(address[],uint256[],bytes[],bytes32)":{"details":"See {IGovernor-execute}."},"getVotes(address,uint256)":{"details":"See {IGovernor-getVotes}."},"getVotesWithParams(address,uint256,bytes)":{"details":"See {IGovernor-getVotesWithParams}."},"hasVoted(uint256,address)":{"details":"See {IGovernor-hasVoted}."},"hashProposal(address[],uint256[],bytes[],bytes32)":{"details":"See {IGovernor-hashProposal}. The proposal id is produced by hashing the ABI encoded `targets` array, the `values` array, the `calldatas` array and the descriptionHash (bytes32 which itself is the keccak256 hash of the description string). This proposal id can be produced from the proposal data which is part of the {ProposalCreated} event. It can even be computed in advance, before the proposal is submitted. Note that the chainId and the governor address are not part of the proposal id computation. Consequently, the same proposal (with same operation and same description) will have the same id if submitted on multiple governors across multiple networks. This also means that in order to execute the same operation twice (on the same governor) the proposer will have to change the description in order to avoid proposal id conflicts."},"name()":{"details":"See {IGovernor-name}."},"onERC1155BatchReceived(address,address,uint256[],uint256[],bytes)":{"details":"See {IERC1155Receiver-onERC1155BatchReceived}."},"onERC1155Received(address,address,uint256,uint256,bytes)":{"details":"See {IERC1155Receiver-onERC1155Received}."},"onERC721Received(address,address,uint256,bytes)":{"details":"See {IERC721Receiver-onERC721Received}."},"proposalDeadline(uint256)":{"details":"See {IGovernor-proposalDeadline}."},"proposalEta(uint256)":{"details":"Public accessor to check the eta of a queued proposal"},"proposalSnapshot(uint256)":{"details":"See {IGovernor-proposalSnapshot}."},"proposalVotes(uint256)":{"details":"Accessor to the internal vote counts."},"queue(address[],uint256[],bytes[],bytes32)":{"details":"Function to queue a proposal to the timelock."},"quorumDenominator()":{"details":"Returns the quorum denominator. Defaults to 100, but may be overridden."},"quorumNumerator()":{"details":"Returns the current quorum numerator. See {quorumDenominator}."},"quorumNumerator(uint256)":{"details":"Returns the quorum numerator at a specific block number. See {quorumDenominator}."},"relay(address,uint256,bytes)":{"details":"Relays a transaction or function call to an arbitrary target. In cases where the governance executor is some contract other than the governor itself, like when using a timelock, this function can be invoked in a governance proposal to recover tokens or Ether that was sent to the governor contract by mistake. Note that if the executor is simply the governor itself, use of `relay` is redundant."},"setProposalThreshold(uint256)":{"details":"Update the proposal threshold. This operation can only be performed through a governance proposal. Emits a {ProposalThresholdSet} event."},"setVotingDelay(uint256)":{"details":"Update the voting delay. This operation can only be performed through a governance proposal. Emits a {VotingDelaySet} event."},"setVotingPeriod(uint256)":{"details":"Update the voting period. This operation can only be performed through a governance proposal. Emits a {VotingPeriodSet} event."},"timelock()":{"details":"Public accessor to check the address of the timelock"},"updateQuorumNumerator(uint256)":{"details":"Changes the quorum numerator. Emits a {QuorumNumeratorUpdated} event. Requirements: - Must be called through a governance proposal. - New numerator must be smaller or equal to the denominator."},"updateTimelock(address)":{"details":"Public endpoint to update the underlying timelock instance. Restricted to the timelock itself, so updates must be proposed, scheduled, and executed through governance proposals. CAUTION: It is not recommended to change the timelock while there are other queued governance proposals."},"version()":{"details":"See {IGovernor-version}."}},"version":1},"opcodes":"PUSH1 0x80 PUSH1 0x40 MSTORE PUSH1 0x4 CALLDATASIZE LT PUSH2 0x24A JUMPI PUSH1 0x0 CALLDATALOAD PUSH1 0xE0 SHR DUP1 PUSH4 0x7B3C71D3 GT PUSH2 0x139 JUMPI DUP1 PUSH4 0xC28BC2FA GT PUSH2 0xB6 JUMPI DUP1 PUSH4 0xEA0217CF GT PUSH2 0x7A JUMPI DUP1 PUSH4 0xEA0217CF EQ PUSH2 0x7AB JUMPI DUP1 PUSH4 0xEB9019D4 EQ PUSH2 0x7CB JUMPI DUP1 PUSH4 0xECE40CC1 EQ PUSH2 0x7EB JUMPI DUP1 PUSH4 0xF23A6E61 EQ PUSH2 0x80B JUMPI DUP1 PUSH4 0xF8CE560A EQ PUSH2 0x837 JUMPI DUP1 PUSH4 0xFC0C546A EQ PUSH2 0x857 JUMPI PUSH1 0x0 DUP1 REVERT JUMPDEST DUP1 PUSH4 0xC28BC2FA EQ PUSH2 0x6CC JUMPI DUP1 PUSH4 0xC59057E4 EQ PUSH2 0x6DF JUMPI DUP1 PUSH4 0xD33219B4 EQ PUSH2 0x6FF JUMPI DUP1 PUSH4 0xDD4E2BA5 EQ PUSH2 0x731 JUMPI DUP1 PUSH4 0xDEAAA7CC EQ PUSH2 0x777 JUMPI PUSH1 0x0 DUP1 REVERT JUMPDEST DUP1 PUSH4 0xA890C910 GT PUSH2 0xFD JUMPI DUP1 PUSH4 0xA890C910 EQ PUSH2 0x62B JUMPI DUP1 PUSH4 0xAB58FB8E EQ PUSH2 0x64B JUMPI DUP1 PUSH4 0xB58131B0 EQ PUSH2 0x66B JUMPI DUP1 PUSH4 0xBC197C81 EQ PUSH2 0x680 JUMPI DUP1 PUSH4 0xC01F9E37 EQ PUSH2 0x6AC JUMPI PUSH1 0x0 DUP1 REVERT JUMPDEST DUP1 PUSH4 0x7B3C71D3 EQ PUSH2 0x5A2 JUMPI DUP1 PUSH4 0x7D5E81E2 EQ PUSH2 0x5C2 JUMPI DUP1 PUSH4 0x97C3D334 EQ PUSH2 0x5E2 JUMPI DUP1 PUSH4 0x9A802A6D EQ PUSH2 0x5F6 JUMPI DUP1 PUSH4 0xA7713A70 EQ PUSH2 0x616 JUMPI PUSH1 0x0 DUP1 REVERT JUMPDEST DUP1 PUSH4 0x3932ABB1 GT PUSH2 0x1C7 JUMPI DUP1 PUSH4 0x54FD4D50 GT PUSH2 0x18B JUMPI DUP1 PUSH4 0x54FD4D50 EQ PUSH2 0x4F8 JUMPI DUP1 PUSH4 0x56781388 EQ PUSH2 0x522 JUMPI DUP1 PUSH4 0x5F398A14 EQ PUSH2 0x542 JUMPI DUP1 PUSH4 0x60C4247F EQ PUSH2 0x562 JUMPI DUP1 PUSH4 0x70B0F660 EQ PUSH2 0x582 JUMPI PUSH1 0x0 DUP1 REVERT JUMPDEST DUP1 PUSH4 0x3932ABB1 EQ PUSH2 0x3F7 JUMPI DUP1 PUSH4 0x3BCCF4FD EQ PUSH2 0x40C JUMPI DUP1 PUSH4 0x3E4F49E6 EQ PUSH2 0x42C JUMPI DUP1 PUSH4 0x43859632 EQ PUSH2 0x459 JUMPI DUP1 PUSH4 0x544FFC9C EQ PUSH2 0x4A3 JUMPI PUSH1 0x0 DUP1 REVERT JUMPDEST DUP1 PUSH4 0x150B7A02 GT PUSH2 0x20E JUMPI DUP1 PUSH4 0x150B7A02 EQ PUSH2 0x32C JUMPI DUP1 PUSH4 0x160CBED7 EQ PUSH2 0x370 JUMPI DUP1 PUSH4 0x2656227D EQ PUSH2 0x390 JUMPI DUP1 PUSH4 0x2D63F693 EQ PUSH2 0x3A3 JUMPI DUP1 PUSH4 0x2FE3E261 EQ PUSH2 0x3C3 JUMPI PUSH1 0x0 DUP1 REVERT JUMPDEST DUP1 PUSH4 0x1FFC9A7 EQ PUSH2 0x272 JUMPI DUP1 PUSH4 0x2A251A3 EQ PUSH2 0x2A7 JUMPI DUP1 PUSH4 0x3420181 EQ PUSH2 0x2CA JUMPI DUP1 PUSH4 0x6F3F9E6 EQ PUSH2 0x2EA JUMPI DUP1 PUSH4 0x6FDDE03 EQ PUSH2 0x30A JUMPI PUSH1 0x0 DUP1 REVERT JUMPDEST CALLDATASIZE PUSH2 0x26D JUMPI ADDRESS PUSH2 0x258 PUSH2 0x88B JUMP JUMPDEST PUSH1 0x1 PUSH1 0x1 PUSH1 0xA0 SHL SUB AND EQ PUSH2 0x26B JUMPI PUSH1 0x0 DUP1 REVERT JUMPDEST STOP JUMPDEST PUSH1 0x0 DUP1 REVERT JUMPDEST CALLVALUE DUP1 ISZERO PUSH2 0x27E JUMPI PUSH1 0x0 DUP1 REVERT JUMPDEST POP PUSH2 0x292 PUSH2 0x28D CALLDATASIZE PUSH1 0x4 PUSH2 0x2C59 JUMP JUMPDEST PUSH2 0x8A4 JUMP JUMPDEST PUSH1 0x40 MLOAD SWAP1 ISZERO ISZERO DUP2 MSTORE PUSH1 0x20 ADD JUMPDEST PUSH1 0x40 MLOAD DUP1 SWAP2 SUB SWAP1 RETURN JUMPDEST CALLVALUE DUP1 ISZERO PUSH2 0x2B3 JUMPI PUSH1 0x0 DUP1 REVERT JUMPDEST POP PUSH2 0x2BC PUSH2 0x8B5 JUMP JUMPDEST PUSH1 0x40 MLOAD SWAP1 DUP2 MSTORE PUSH1 0x20 ADD PUSH2 0x29E JUMP JUMPDEST CALLVALUE DUP1 ISZERO PUSH2 0x2D6 JUMPI PUSH1 0x0 DUP1 REVERT JUMPDEST POP PUSH2 0x2BC PUSH2 0x2E5 CALLDATASIZE PUSH1 0x4 PUSH2 0x2D97 JUMP JUMPDEST PUSH2 0x8C0 JUMP JUMPDEST CALLVALUE DUP1 ISZERO PUSH2 0x2F6 JUMPI PUSH1 0x0 DUP1 REVERT JUMPDEST POP PUSH2 0x26B PUSH2 0x305 CALLDATASIZE PUSH1 0x4 PUSH2 0x2E3D JUMP JUMPDEST PUSH2 0x9B8 JUMP JUMPDEST CALLVALUE DUP1 ISZERO PUSH2 0x316 JUMPI PUSH1 0x0 DUP1 REVERT JUMPDEST POP PUSH2 0x31F PUSH2 0xA4B JUMP JUMPDEST PUSH1 0x40 MLOAD PUSH2 0x29E SWAP2 SWAP1 PUSH2 0x2E9C JUMP JUMPDEST CALLVALUE DUP1 ISZERO PUSH2 0x338 JUMPI PUSH1 0x0 DUP1 REVERT JUMPDEST POP PUSH2 0x357 PUSH2 0x347 CALLDATASIZE PUSH1 0x4 PUSH2 0x2EC4 JUMP JUMPDEST PUSH4 0xA85BD01 PUSH1 0xE1 SHL SWAP5 SWAP4 POP POP POP POP JUMP JUMPDEST PUSH1 0x40 MLOAD PUSH1 0x1 PUSH1 0x1 PUSH1 0xE0 SHL SUB NOT SWAP1 SWAP2 AND DUP2 MSTORE PUSH1 0x20 ADD PUSH2 0x29E JUMP JUMPDEST CALLVALUE DUP1 ISZERO PUSH2 0x37C JUMPI PUSH1 0x0 DUP1 REVERT JUMPDEST POP PUSH2 0x2BC PUSH2 0x38B CALLDATASIZE PUSH1 0x4 PUSH2 0x30A0 JUMP JUMPDEST PUSH2 0xADD JUMP JUMPDEST PUSH2 0x2BC PUSH2 0x39E CALLDATASIZE PUSH1 0x4 PUSH2 0x30A0 JUMP JUMPDEST PUSH2 0xCDD JUMP JUMPDEST CALLVALUE DUP1 ISZERO PUSH2 0x3AF JUMPI PUSH1 0x0 DUP1 REVERT JUMPDEST POP PUSH2 0x2BC PUSH2 0x3BE CALLDATASIZE PUSH1 0x4 PUSH2 0x2E3D JUMP JUMPDEST PUSH2 0xDCA JUMP JUMPDEST CALLVALUE DUP1 ISZERO PUSH2 0x3CF JUMPI PUSH1 0x0 DUP1 REVERT JUMPDEST POP PUSH2 0x2BC PUSH32 0xB3B3F3B703CD84CE352197DCFF232B1B5D3CFB2025CE47CF04742D0651F1AF88 DUP2 JUMP JUMPDEST CALLVALUE DUP1 ISZERO PUSH2 0x403 JUMPI PUSH1 0x0 DUP1 REVERT JUMPDEST POP PUSH2 0x2BC PUSH2 0xE01 JUMP JUMPDEST CALLVALUE DUP1 ISZERO PUSH2 0x418 JUMPI PUSH1 0x0 DUP1 REVERT JUMPDEST POP PUSH2 0x2BC PUSH2 0x427 CALLDATASIZE PUSH1 0x4 PUSH2 0x312F JUMP JUMPDEST PUSH2 0xE0C JUMP JUMPDEST CALLVALUE DUP1 ISZERO PUSH2 0x438 JUMPI PUSH1 0x0 DUP1 REVERT JUMPDEST POP PUSH2 0x44C PUSH2 0x447 CALLDATASIZE PUSH1 0x4 PUSH2 0x2E3D JUMP JUMPDEST PUSH2 0xE82 JUMP JUMPDEST PUSH1 0x40 MLOAD PUSH2 0x29E SWAP2 SWAP1 PUSH2 0x3193 JUMP JUMPDEST CALLVALUE DUP1 ISZERO PUSH2 0x465 JUMPI PUSH1 0x0 DUP1 REVERT JUMPDEST POP PUSH2 0x292 PUSH2 0x474 CALLDATASIZE PUSH1 0x4 PUSH2 0x31BB JUMP JUMPDEST PUSH1 0x0 DUP3 DUP2 MSTORE PUSH1 0x7 PUSH1 0x20 SWAP1 DUP2 MSTORE PUSH1 0x40 DUP1 DUP4 KECCAK256 PUSH1 0x1 PUSH1 0x1 PUSH1 0xA0 SHL SUB DUP6 AND DUP5 MSTORE PUSH1 0x3 ADD SWAP1 SWAP2 MSTORE SWAP1 KECCAK256 SLOAD PUSH1 0xFF AND SWAP3 SWAP2 POP POP JUMP JUMPDEST CALLVALUE DUP1 ISZERO PUSH2 0x4AF JUMPI PUSH1 0x0 DUP1 REVERT JUMPDEST POP PUSH2 0x4DD PUSH2 0x4BE CALLDATASIZE PUSH1 0x4 PUSH2 0x2E3D JUMP JUMPDEST PUSH1 0x0 SWAP1 DUP2 MSTORE PUSH1 0x7 PUSH1 0x20 MSTORE PUSH1 0x40 SWAP1 KECCAK256 DUP1 SLOAD PUSH1 0x1 DUP3 ADD SLOAD PUSH1 0x2 SWAP1 SWAP3 ADD SLOAD SWAP1 SWAP3 JUMP JUMPDEST PUSH1 0x40 DUP1 MLOAD SWAP4 DUP5 MSTORE PUSH1 0x20 DUP5 ADD SWAP3 SWAP1 SWAP3 MSTORE SWAP1 DUP3 ADD MSTORE PUSH1 0x60 ADD PUSH2 0x29E JUMP JUMPDEST CALLVALUE DUP1 ISZERO PUSH2 0x504 JUMPI PUSH1 0x0 DUP1 REVERT JUMPDEST POP PUSH1 0x40 DUP1 MLOAD DUP1 DUP3 ADD SWAP1 SWAP2 MSTORE PUSH1 0x1 DUP2 MSTORE PUSH1 0x31 PUSH1 0xF8 SHL PUSH1 0x20 DUP3 ADD MSTORE PUSH2 0x31F JUMP JUMPDEST CALLVALUE DUP1 ISZERO PUSH2 0x52E JUMPI PUSH1 0x0 DUP1 REVERT JUMPDEST POP PUSH2 0x2BC PUSH2 0x53D CALLDATASIZE PUSH1 0x4 PUSH2 0x31EB JUMP JUMPDEST PUSH2 0xE8D JUMP JUMPDEST CALLVALUE DUP1 ISZERO PUSH2 0x54E JUMPI PUSH1 0x0 DUP1 REVERT JUMPDEST POP PUSH2 0x2BC PUSH2 0x55D CALLDATASIZE PUSH1 0x4 PUSH2 0x3217 JUMP JUMPDEST PUSH2 0xEB6 JUMP JUMPDEST CALLVALUE DUP1 ISZERO PUSH2 0x56E JUMPI PUSH1 0x0 DUP1 REVERT JUMPDEST POP PUSH2 0x2BC PUSH2 0x57D CALLDATASIZE PUSH1 0x4 PUSH2 0x2E3D JUMP JUMPDEST PUSH2 0xF00 JUMP JUMPDEST CALLVALUE DUP1 ISZERO PUSH2 0x58E JUMPI PUSH1 0x0 DUP1 REVERT JUMPDEST POP PUSH2 0x26B PUSH2 0x59D CALLDATASIZE PUSH1 0x4 PUSH2 0x2E3D JUMP JUMPDEST PUSH2 0xF97 JUMP JUMPDEST CALLVALUE DUP1 ISZERO PUSH2 0x5AE JUMPI PUSH1 0x0 DUP1 REVERT JUMPDEST POP PUSH2 0x2BC PUSH2 0x5BD CALLDATASIZE PUSH1 0x4 PUSH2 0x329A JUMP JUMPDEST PUSH2 0x101E JUMP JUMPDEST CALLVALUE DUP1 ISZERO PUSH2 0x5CE JUMPI PUSH1 0x0 DUP1 REVERT JUMPDEST POP PUSH2 0x2BC PUSH2 0x5DD CALLDATASIZE PUSH1 0x4 PUSH2 0x32F3 JUMP JUMPDEST PUSH2 0x1070 JUMP JUMPDEST CALLVALUE DUP1 ISZERO PUSH2 0x5EE JUMPI PUSH1 0x0 DUP1 REVERT JUMPDEST POP PUSH1 0x64 PUSH2 0x2BC JUMP JUMPDEST CALLVALUE DUP1 ISZERO PUSH2 0x602 JUMPI PUSH1 0x0 DUP1 REVERT JUMPDEST POP PUSH2 0x2BC PUSH2 0x611 CALLDATASIZE PUSH1 0x4 PUSH2 0x33A7 JUMP JUMPDEST PUSH2 0x1087 JUMP JUMPDEST CALLVALUE DUP1 ISZERO PUSH2 0x622 JUMPI PUSH1 0x0 DUP1 REVERT JUMPDEST POP PUSH2 0x2BC PUSH2 0x109E JUMP JUMPDEST CALLVALUE DUP1 ISZERO PUSH2 0x637 JUMPI PUSH1 0x0 DUP1 REVERT JUMPDEST POP PUSH2 0x26B PUSH2 0x646 CALLDATASIZE PUSH1 0x4 PUSH2 0x33FF JUMP JUMPDEST PUSH2 0x10C8 JUMP JUMPDEST CALLVALUE DUP1 ISZERO PUSH2 0x657 JUMPI PUSH1 0x0 DUP1 REVERT JUMPDEST POP PUSH2 0x2BC PUSH2 0x666 CALLDATASIZE PUSH1 0x4 PUSH2 0x2E3D JUMP JUMPDEST PUSH2 0x114F JUMP JUMPDEST CALLVALUE DUP1 ISZERO PUSH2 0x677 JUMPI PUSH1 0x0 DUP1 REVERT JUMPDEST POP PUSH2 0x2BC PUSH2 0x11E9 JUMP JUMPDEST CALLVALUE DUP1 ISZERO PUSH2 0x68C JUMPI PUSH1 0x0 DUP1 REVERT JUMPDEST POP PUSH2 0x357 PUSH2 0x69B CALLDATASIZE PUSH1 0x4 PUSH2 0x341C JUMP JUMPDEST PUSH4 0xBC197C81 PUSH1 0xE0 SHL SWAP6 SWAP5 POP POP POP POP POP JUMP JUMPDEST CALLVALUE DUP1 ISZERO PUSH2 0x6B8 JUMPI PUSH1 0x0 DUP1 REVERT JUMPDEST POP PUSH2 0x2BC PUSH2 0x6C7 CALLDATASIZE PUSH1 0x4 PUSH2 0x2E3D JUMP JUMPDEST PUSH2 0x11F4 JUMP JUMPDEST PUSH2 0x26B PUSH2 0x6DA CALLDATASIZE PUSH1 0x4 PUSH2 0x34AF JUMP JUMPDEST PUSH2 0x1223 JUMP JUMPDEST CALLVALUE DUP1 ISZERO PUSH2 0x6EB JUMPI PUSH1 0x0 DUP1 REVERT JUMPDEST POP PUSH2 0x2BC PUSH2 0x6FA CALLDATASIZE PUSH1 0x4 PUSH2 0x30A0 JUMP JUMPDEST PUSH2 0x1332 JUMP JUMPDEST CALLVALUE DUP1 ISZERO PUSH2 0x70B JUMPI PUSH1 0x0 DUP1 REVERT JUMPDEST POP PUSH1 0xA SLOAD PUSH1 0x1 PUSH1 0x1 PUSH1 0xA0 SHL SUB AND JUMPDEST PUSH1 0x40 MLOAD PUSH1 0x1 PUSH1 0x1 PUSH1 0xA0 SHL SUB SWAP1 SWAP2 AND DUP2 MSTORE PUSH1 0x20 ADD PUSH2 0x29E JUMP JUMPDEST CALLVALUE DUP1 ISZERO PUSH2 0x73D JUMPI PUSH1 0x0 DUP1 REVERT JUMPDEST POP PUSH1 0x40 DUP1 MLOAD DUP1 DUP3 ADD SWAP1 SWAP2 MSTORE PUSH1 0x20 DUP1 DUP3 MSTORE PUSH32 0x737570706F72743D627261766F2671756F72756D3D666F722C6162737461696E SWAP1 DUP3 ADD MSTORE PUSH2 0x31F JUMP JUMPDEST CALLVALUE DUP1 ISZERO PUSH2 0x783 JUMPI PUSH1 0x0 DUP1 REVERT JUMPDEST POP PUSH2 0x2BC PUSH32 0x150214D74D59B7D1E90C73FC22EF3D991DD0A76B046543D4D80AB92D2A50328F DUP2 JUMP JUMPDEST CALLVALUE DUP1 ISZERO PUSH2 0x7B7 JUMPI PUSH1 0x0 DUP1 REVERT JUMPDEST POP PUSH2 0x26B PUSH2 0x7C6 CALLDATASIZE PUSH1 0x4 PUSH2 0x2E3D JUMP JUMPDEST PUSH2 0x136C JUMP JUMPDEST CALLVALUE DUP1 ISZERO PUSH2 0x7D7 JUMPI PUSH1 0x0 DUP1 REVERT JUMPDEST POP PUSH2 0x2BC PUSH2 0x7E6 CALLDATASIZE PUSH1 0x4 PUSH2 0x34F2 JUMP JUMPDEST PUSH2 0x13F3 JUMP JUMPDEST CALLVALUE DUP1 ISZERO PUSH2 0x7F7 JUMPI PUSH1 0x0 DUP1 REVERT JUMPDEST POP PUSH2 0x26B PUSH2 0x806 CALLDATASIZE PUSH1 0x4 PUSH2 0x2E3D JUMP JUMPDEST PUSH2 0x1414 JUMP JUMPDEST CALLVALUE DUP1 ISZERO PUSH2 0x817 JUMPI PUSH1 0x0 DUP1 REVERT JUMPDEST POP PUSH2 0x357 PUSH2 0x826 CALLDATASIZE PUSH1 0x4 PUSH2 0x351E JUMP JUMPDEST PUSH4 0xF23A6E61 PUSH1 0xE0 SHL SWAP6 SWAP5 POP POP POP POP POP JUMP JUMPDEST CALLVALUE DUP1 ISZERO PUSH2 0x843 JUMPI PUSH1 0x0 DUP1 REVERT JUMPDEST POP PUSH2 0x2BC PUSH2 0x852 CALLDATASIZE PUSH1 0x4 PUSH2 0x2E3D JUMP JUMPDEST PUSH2 0x149B JUMP JUMPDEST CALLVALUE DUP1 ISZERO PUSH2 0x863 JUMPI PUSH1 0x0 DUP1 REVERT JUMPDEST POP PUSH2 0x719 PUSH32 0x0 DUP2 JUMP JUMPDEST PUSH1 0x0 PUSH2 0x89F PUSH1 0xA SLOAD PUSH1 0x1 PUSH1 0x1 PUSH1 0xA0 SHL SUB AND SWAP1 JUMP JUMPDEST SWAP1 POP SWAP1 JUMP JUMPDEST PUSH1 0x0 PUSH2 0x8AF DUP3 PUSH2 0x15EC JUMP JUMPDEST SWAP3 SWAP2 POP POP JUMP JUMPDEST PUSH1 0x0 PUSH2 0x89F PUSH1 0x5 SLOAD SWAP1 JUMP JUMPDEST PUSH1 0x0 DUP1 PUSH2 0x964 PUSH2 0x95C PUSH32 0xB3B3F3B703CD84CE352197DCFF232B1B5D3CFB2025CE47CF04742D0651F1AF88 DUP13 DUP13 DUP13 DUP13 PUSH1 0x40 MLOAD PUSH2 0x8FC SWAP3 SWAP2 SWAP1 PUSH2 0x3586 JUMP JUMPDEST PUSH1 0x40 MLOAD DUP1 SWAP2 SUB SWAP1 KECCAK256 DUP12 DUP1 MLOAD SWAP1 PUSH1 0x20 ADD KECCAK256 PUSH1 0x40 MLOAD PUSH1 0x20 ADD PUSH2 0x941 SWAP6 SWAP5 SWAP4 SWAP3 SWAP2 SWAP1 SWAP5 DUP6 MSTORE PUSH1 0x20 DUP6 ADD SWAP4 SWAP1 SWAP4 MSTORE PUSH1 0xFF SWAP2 SWAP1 SWAP2 AND PUSH1 0x40 DUP5 ADD MSTORE PUSH1 0x60 DUP4 ADD MSTORE PUSH1 0x80 DUP3 ADD MSTORE PUSH1 0xA0 ADD SWAP1 JUMP JUMPDEST PUSH1 0x40 MLOAD PUSH1 0x20 DUP2 DUP4 SUB SUB DUP2 MSTORE SWAP1 PUSH1 0x40 MSTORE DUP1 MLOAD SWAP1 PUSH1 0x20 ADD KECCAK256 PUSH2 0x1611 JUMP JUMPDEST DUP7 DUP7 DUP7 PUSH2 0x165F JUMP JUMPDEST SWAP1 POP PUSH2 0x9AA DUP11 DUP3 DUP12 DUP12 DUP12 DUP1 DUP1 PUSH1 0x1F ADD PUSH1 0x20 DUP1 SWAP2 DIV MUL PUSH1 0x20 ADD PUSH1 0x40 MLOAD SWAP1 DUP2 ADD PUSH1 0x40 MSTORE DUP1 SWAP4 SWAP3 SWAP2 SWAP1 DUP2 DUP2 MSTORE PUSH1 0x20 ADD DUP4 DUP4 DUP1 DUP3 DUP5 CALLDATACOPY PUSH1 0x0 SWAP3 ADD SWAP2 SWAP1 SWAP2 MSTORE POP DUP14 SWAP3 POP PUSH2 0x167D SWAP2 POP POP JUMP JUMPDEST SWAP11 SWAP10 POP POP POP POP POP POP POP POP POP POP JUMP JUMPDEST PUSH2 0x9C0 PUSH2 0x88B JUMP JUMPDEST PUSH1 0x1 PUSH1 0x1 PUSH1 0xA0 SHL SUB AND CALLER PUSH1 0x1 PUSH1 0x1 PUSH1 0xA0 SHL SUB AND EQ PUSH2 0x9F9 JUMPI PUSH1 0x40 MLOAD PUSH3 0x461BCD PUSH1 0xE5 SHL DUP2 MSTORE PUSH1 0x4 ADD PUSH2 0x9F0 SWAP1 PUSH2 0x3596 JUMP JUMPDEST PUSH1 0x40 MLOAD DUP1 SWAP2 SUB SWAP1 REVERT JUMPDEST ADDRESS PUSH2 0xA02 PUSH2 0x88B JUMP JUMPDEST PUSH1 0x1 PUSH1 0x1 PUSH1 0xA0 SHL SUB AND EQ PUSH2 0xA3F JUMPI PUSH1 0x0 DUP1 CALLDATASIZE PUSH1 0x40 MLOAD PUSH2 0xA22 SWAP3 SWAP2 SWAP1 PUSH2 0x3586 JUMP JUMPDEST PUSH1 0x40 MLOAD DUP1 SWAP2 SUB SWAP1 KECCAK256 SWAP1 POP JUMPDEST DUP1 PUSH2 0xA38 PUSH1 0x2 PUSH2 0x17E2 JUMP JUMPDEST SUB PUSH2 0xA2D JUMPI POP JUMPDEST PUSH2 0xA48 DUP2 PUSH2 0x1861 JUMP JUMPDEST POP JUMP JUMPDEST PUSH1 0x60 PUSH1 0x0 DUP1 SLOAD PUSH2 0xA5A SWAP1 PUSH2 0x35CD JUMP JUMPDEST DUP1 PUSH1 0x1F ADD PUSH1 0x20 DUP1 SWAP2 DIV MUL PUSH1 0x20 ADD PUSH1 0x40 MLOAD SWAP1 DUP2 ADD PUSH1 0x40 MSTORE DUP1 SWAP3 SWAP2 SWAP1 DUP2 DUP2 MSTORE PUSH1 0x20 ADD DUP3 DUP1 SLOAD PUSH2 0xA86 SWAP1 PUSH2 0x35CD JUMP JUMPDEST DUP1 ISZERO PUSH2 0xAD3 JUMPI DUP1 PUSH1 0x1F LT PUSH2 0xAA8 JUMPI PUSH2 0x100 DUP1 DUP4 SLOAD DIV MUL DUP4 MSTORE SWAP2 PUSH1 0x20 ADD SWAP2 PUSH2 0xAD3 JUMP JUMPDEST DUP3 ADD SWAP2 SWAP1 PUSH1 0x0 MSTORE PUSH1 0x20 PUSH1 0x0 KECCAK256 SWAP1 JUMPDEST DUP2 SLOAD DUP2 MSTORE SWAP1 PUSH1 0x1 ADD SWAP1 PUSH1 0x20 ADD DUP1 DUP4 GT PUSH2 0xAB6 JUMPI DUP3 SWAP1 SUB PUSH1 0x1F AND DUP3 ADD SWAP2 JUMPDEST POP POP POP POP POP SWAP1 POP SWAP1 JUMP JUMPDEST PUSH1 0x0 DUP1 PUSH2 0xAEC DUP7 DUP7 DUP7 DUP7 PUSH2 0x1332 JUMP JUMPDEST SWAP1 POP PUSH1 0x4 PUSH2 0xAF9 DUP3 PUSH2 0xE82 JUMP JUMPDEST PUSH1 0x7 DUP2 GT ISZERO PUSH2 0xB0A JUMPI PUSH2 0xB0A PUSH2 0x317D JUMP JUMPDEST EQ PUSH2 0xB27 JUMPI PUSH1 0x40 MLOAD PUSH3 0x461BCD PUSH1 0xE5 SHL DUP2 MSTORE PUSH1 0x4 ADD PUSH2 0x9F0 SWAP1 PUSH2 0x3607 JUMP JUMPDEST PUSH1 0xA SLOAD PUSH1 0x40 DUP1 MLOAD PUSH4 0x793D0649 PUSH1 0xE1 SHL DUP2 MSTORE SWAP1 MLOAD PUSH1 0x0 SWAP3 PUSH1 0x1 PUSH1 0x1 PUSH1 0xA0 SHL SUB AND SWAP2 PUSH4 0xF27A0C92 SWAP2 PUSH1 0x4 DUP1 DUP4 ADD SWAP3 PUSH1 0x20 SWAP3 SWAP2 SWAP1 DUP3 SWAP1 SUB ADD DUP2 DUP7 GAS STATICCALL ISZERO DUP1 ISZERO PUSH2 0xB71 JUMPI RETURNDATASIZE PUSH1 0x0 DUP1 RETURNDATACOPY RETURNDATASIZE PUSH1 0x0 REVERT JUMPDEST POP POP POP POP PUSH1 0x40 MLOAD RETURNDATASIZE PUSH1 0x1F NOT PUSH1 0x1F DUP3 ADD AND DUP3 ADD DUP1 PUSH1 0x40 MSTORE POP DUP2 ADD SWAP1 PUSH2 0xB95 SWAP2 SWAP1 PUSH2 0x3648 JUMP JUMPDEST PUSH1 0xA SLOAD PUSH1 0x40 MLOAD PUSH4 0xB1C5F427 PUSH1 0xE0 SHL DUP2 MSTORE SWAP2 SWAP3 POP PUSH1 0x1 PUSH1 0x1 PUSH1 0xA0 SHL SUB AND SWAP1 PUSH4 0xB1C5F427 SWAP1 PUSH2 0xBCF SWAP1 DUP11 SWAP1 DUP11 SWAP1 DUP11 SWAP1 PUSH1 0x0 SWAP1 DUP12 SWAP1 PUSH1 0x4 ADD PUSH2 0x372D JUMP JUMPDEST PUSH1 0x20 PUSH1 0x40 MLOAD DUP1 DUP4 SUB DUP2 DUP7 GAS STATICCALL ISZERO DUP1 ISZERO PUSH2 0xBEC JUMPI RETURNDATASIZE PUSH1 0x0 DUP1 RETURNDATACOPY RETURNDATASIZE PUSH1 0x0 REVERT JUMPDEST POP POP POP POP PUSH1 0x40 MLOAD RETURNDATASIZE PUSH1 0x1F NOT PUSH1 0x1F DUP3 ADD AND DUP3 ADD DUP1 PUSH1 0x40 MSTORE POP DUP2 ADD SWAP1 PUSH2 0xC10 SWAP2 SWAP1 PUSH2 0x3648 JUMP JUMPDEST PUSH1 0x0 DUP4 DUP2 MSTORE PUSH1 0xB PUSH1 0x20 MSTORE PUSH1 0x40 DUP1 DUP3 KECCAK256 SWAP3 SWAP1 SWAP3 SSTORE PUSH1 0xA SLOAD SWAP2 MLOAD PUSH4 0x8F2A0BB PUSH1 0xE4 SHL DUP2 MSTORE PUSH1 0x1 PUSH1 0x1 PUSH1 0xA0 SHL SUB SWAP1 SWAP3 AND SWAP2 PUSH4 0x8F2A0BB0 SWAP2 PUSH2 0xC5B SWAP2 DUP12 SWAP2 DUP12 SWAP2 DUP12 SWAP2 SWAP1 DUP12 SWAP1 DUP10 SWAP1 PUSH1 0x4 ADD PUSH2 0x377B JUMP JUMPDEST PUSH1 0x0 PUSH1 0x40 MLOAD DUP1 DUP4 SUB DUP2 PUSH1 0x0 DUP8 DUP1 EXTCODESIZE ISZERO DUP1 ISZERO PUSH2 0xC75 JUMPI PUSH1 0x0 DUP1 REVERT JUMPDEST POP GAS CALL ISZERO DUP1 ISZERO PUSH2 0xC89 JUMPI RETURNDATASIZE PUSH1 0x0 DUP1 RETURNDATACOPY RETURNDATASIZE PUSH1 0x0 REVERT JUMPDEST POP POP POP POP PUSH32 0x9A2E42FD6722813D69113E7D0079D3D940171428DF7373DF9C7F7617CFDA2892 DUP3 DUP3 TIMESTAMP PUSH2 0xCBB SWAP2 SWAP1 PUSH2 0x37E9 JUMP JUMPDEST PUSH1 0x40 DUP1 MLOAD SWAP3 DUP4 MSTORE PUSH1 0x20 DUP4 ADD SWAP2 SWAP1 SWAP2 MSTORE ADD PUSH1 0x40 MLOAD DUP1 SWAP2 SUB SWAP1 LOG1 POP SWAP6 SWAP5 POP POP POP POP POP JUMP JUMPDEST PUSH1 0x0 DUP1 PUSH2 0xCEC DUP7 DUP7 DUP7 DUP7 PUSH2 0x1332 JUMP JUMPDEST SWAP1 POP PUSH1 0x0 PUSH2 0xCF9 DUP3 PUSH2 0xE82 JUMP JUMPDEST SWAP1 POP PUSH1 0x4 DUP2 PUSH1 0x7 DUP2 GT ISZERO PUSH2 0xD0F JUMPI PUSH2 0xD0F PUSH2 0x317D JUMP JUMPDEST EQ DUP1 PUSH2 0xD2C JUMPI POP PUSH1 0x5 DUP2 PUSH1 0x7 DUP2 GT ISZERO PUSH2 0xD2A JUMPI PUSH2 0xD2A PUSH2 0x317D JUMP JUMPDEST EQ JUMPDEST PUSH2 0xD48 JUMPI PUSH1 0x40 MLOAD PUSH3 0x461BCD PUSH1 0xE5 SHL DUP2 MSTORE PUSH1 0x4 ADD PUSH2 0x9F0 SWAP1 PUSH2 0x3607 JUMP JUMPDEST PUSH1 0x0 DUP3 DUP2 MSTORE PUSH1 0x1 PUSH1 0x20 DUP2 DUP2 MSTORE PUSH1 0x40 SWAP3 DUP4 SWAP1 KECCAK256 PUSH1 0x2 ADD DUP1 SLOAD PUSH1 0xFF NOT AND SWAP1 SWAP3 OR SWAP1 SWAP2 SSTORE SWAP1 MLOAD DUP4 DUP2 MSTORE PUSH32 0x712AE1383F79AC853F8D882153778E0260EF8F03B504E2866E0593E04D2B291F SWAP2 ADD PUSH1 0x40 MLOAD DUP1 SWAP2 SUB SWAP1 LOG1 PUSH2 0xDA6 DUP3 DUP9 DUP9 DUP9 DUP9 PUSH2 0x19AD JUMP JUMPDEST PUSH2 0xDB3 DUP3 DUP9 DUP9 DUP9 DUP9 PUSH2 0x1A4F JUMP JUMPDEST PUSH2 0xDC0 DUP3 DUP9 DUP9 DUP9 DUP9 PUSH2 0x1A9B JUMP JUMPDEST POP SWAP6 SWAP5 POP POP POP POP POP JUMP JUMPDEST PUSH1 0x0 DUP2 DUP2 MSTORE PUSH1 0x1 PUSH1 0x20 SWAP1 DUP2 MSTORE PUSH1 0x40 DUP1 DUP4 KECCAK256 DUP2 MLOAD SWAP3 DUP4 ADD SWAP1 SWAP2 MSTORE SLOAD PUSH1 0x1 PUSH1 0x1 PUSH1 0x40 SHL SUB AND SWAP1 DUP2 SWAP1 MSTORE JUMPDEST PUSH1 0x1 PUSH1 0x1 PUSH1 0x40 SHL SUB AND SWAP3 SWAP2 POP POP JUMP JUMPDEST PUSH1 0x0 PUSH2 0x89F PUSH1 0x4 SLOAD SWAP1 JUMP JUMPDEST PUSH1 0x40 DUP1 MLOAD PUSH32 0x150214D74D59B7D1E90C73FC22EF3D991DD0A76B046543D4D80AB92D2A50328F PUSH1 0x20 DUP3 ADD MSTORE SWAP1 DUP2 ADD DUP7 SWAP1 MSTORE PUSH1 0xFF DUP6 AND PUSH1 0x60 DUP3 ADD MSTORE PUSH1 0x0 SWAP1 DUP2 SWAP1 PUSH2 0xE5A SWAP1 PUSH2 0x95C SWAP1 PUSH1 0x80 ADD PUSH2 0x941 JUMP JUMPDEST SWAP1 POP PUSH2 0xE77 DUP8 DUP3 DUP9 PUSH1 0x40 MLOAD DUP1 PUSH1 0x20 ADD PUSH1 0x40 MSTORE DUP1 PUSH1 0x0 DUP2 MSTORE POP PUSH2 0x1AD4 JUMP JUMPDEST SWAP8 SWAP7 POP POP POP POP POP POP POP JUMP JUMPDEST PUSH1 0x0 PUSH2 0x8AF DUP3 PUSH2 0x1AF7 JUMP JUMPDEST PUSH1 0x0 DUP1 CALLER SWAP1 POP PUSH2 0xEAE DUP5 DUP3 DUP6 PUSH1 0x40 MLOAD DUP1 PUSH1 0x20 ADD PUSH1 0x40 MSTORE DUP1 PUSH1 0x0 DUP2 MSTORE POP PUSH2 0x1AD4 JUMP JUMPDEST SWAP5 SWAP4 POP POP POP POP JUMP JUMPDEST PUSH1 0x0 DUP1 CALLER SWAP1 POP PUSH2 0xE77 DUP8 DUP3 DUP9 DUP9 DUP9 DUP1 DUP1 PUSH1 0x1F ADD PUSH1 0x20 DUP1 SWAP2 DIV MUL PUSH1 0x20 ADD PUSH1 0x40 MLOAD SWAP1 DUP2 ADD PUSH1 0x40 MSTORE DUP1 SWAP4 SWAP3 SWAP2 SWAP1 DUP2 DUP2 MSTORE PUSH1 0x20 ADD DUP4 DUP4 DUP1 DUP3 DUP5 CALLDATACOPY PUSH1 0x0 SWAP3 ADD SWAP2 SWAP1 SWAP2 MSTORE POP DUP11 SWAP3 POP PUSH2 0x167D SWAP2 POP POP JUMP JUMPDEST PUSH1 0x9 SLOAD PUSH1 0x0 SWAP1 DUP1 DUP3 SUB PUSH2 0xF17 JUMPI POP POP PUSH1 0x8 SLOAD SWAP2 SWAP1 POP JUMP JUMPDEST PUSH1 0x0 PUSH1 0x9 PUSH2 0xF26 PUSH1 0x1 DUP5 PUSH2 0x37FC JUMP JUMPDEST DUP2 SLOAD DUP2 LT PUSH2 0xF36 JUMPI PUSH2 0xF36 PUSH2 0x380F JUMP JUMPDEST PUSH1 0x0 SWAP2 DUP3 MSTORE PUSH1 0x20 SWAP2 DUP3 SWAP1 KECCAK256 PUSH1 0x40 DUP1 MLOAD DUP1 DUP3 ADD SWAP1 SWAP2 MSTORE SWAP2 ADD SLOAD PUSH4 0xFFFFFFFF DUP2 AND DUP1 DUP4 MSTORE PUSH1 0x1 PUSH1 0x20 SHL SWAP1 SWAP2 DIV PUSH1 0x1 PUSH1 0x1 PUSH1 0xE0 SHL SUB AND SWAP3 DUP3 ADD SWAP3 SWAP1 SWAP3 MSTORE SWAP2 POP DUP5 LT PUSH2 0xF8C JUMPI PUSH1 0x20 ADD MLOAD PUSH1 0x1 PUSH1 0x1 PUSH1 0xE0 SHL SUB AND SWAP4 SWAP3 POP POP POP JUMP JUMPDEST PUSH2 0xEAE PUSH1 0x9 DUP6 PUSH2 0x1C41 JUMP JUMPDEST PUSH2 0xF9F PUSH2 0x88B JUMP JUMPDEST PUSH1 0x1 PUSH1 0x1 PUSH1 0xA0 SHL SUB AND CALLER PUSH1 0x1 PUSH1 0x1 PUSH1 0xA0 SHL SUB AND EQ PUSH2 0xFCF JUMPI PUSH1 0x40 MLOAD PUSH3 0x461BCD PUSH1 0xE5 SHL DUP2 MSTORE PUSH1 0x4 ADD PUSH2 0x9F0 SWAP1 PUSH2 0x3596 JUMP JUMPDEST ADDRESS PUSH2 0xFD8 PUSH2 0x88B JUMP JUMPDEST PUSH1 0x1 PUSH1 0x1 PUSH1 0xA0 SHL SUB AND EQ PUSH2 0x1015 JUMPI PUSH1 0x0 DUP1 CALLDATASIZE PUSH1 0x40 MLOAD PUSH2 0xFF8 SWAP3 SWAP2 SWAP1 PUSH2 0x3586 JUMP JUMPDEST PUSH1 0x40 MLOAD DUP1 SWAP2 SUB SWAP1 KECCAK256 SWAP1 POP JUMPDEST DUP1 PUSH2 0x100E PUSH1 0x2 PUSH2 0x17E2 JUMP JUMPDEST SUB PUSH2 0x1003 JUMPI POP JUMPDEST PUSH2 0xA48 DUP2 PUSH2 0x1CF3 JUMP JUMPDEST PUSH1 0x0 DUP1 CALLER SWAP1 POP PUSH2 0x1066 DUP7 DUP3 DUP8 DUP8 DUP8 DUP1 DUP1 PUSH1 0x1F ADD PUSH1 0x20 DUP1 SWAP2 DIV MUL PUSH1 0x20 ADD PUSH1 0x40 MLOAD SWAP1 DUP2 ADD PUSH1 0x40 MSTORE DUP1 SWAP4 SWAP3 SWAP2 SWAP1 DUP2 DUP2 MSTORE PUSH1 0x20 ADD DUP4 DUP4 DUP1 DUP3 DUP5 CALLDATACOPY PUSH1 0x0 SWAP3 ADD SWAP2 SWAP1 SWAP2 MSTORE POP PUSH2 0x1AD4 SWAP3 POP POP POP JUMP JUMPDEST SWAP7 SWAP6 POP POP POP POP POP POP JUMP JUMPDEST PUSH1 0x0 PUSH2 0x107E DUP6 DUP6 DUP6 DUP6 PUSH2 0x1D34 JUMP JUMPDEST SWAP6 SWAP5 POP POP POP POP POP JUMP JUMPDEST PUSH1 0x0 PUSH2 0x1094 DUP5 DUP5 DUP5 PUSH2 0x1FF7 JUMP JUMPDEST SWAP1 POP JUMPDEST SWAP4 SWAP3 POP POP POP JUMP JUMPDEST PUSH1 0x9 SLOAD PUSH1 0x0 SWAP1 ISZERO PUSH2 0x10C1 JUMPI PUSH2 0x10B3 PUSH1 0x9 PUSH2 0x1549 JUMP JUMPDEST PUSH1 0x1 PUSH1 0x1 PUSH1 0xE0 SHL SUB AND SWAP1 POP SWAP1 JUMP JUMPDEST POP PUSH1 0x8 SLOAD SWAP1 JUMP JUMPDEST PUSH2 0x10D0 PUSH2 0x88B JUMP JUMPDEST PUSH1 0x1 PUSH1 0x1 PUSH1 0xA0 SHL SUB AND CALLER PUSH1 0x1 PUSH1 0x1 PUSH1 0xA0 SHL SUB AND EQ PUSH2 0x1100 JUMPI PUSH1 0x40 MLOAD PUSH3 0x461BCD PUSH1 0xE5 SHL DUP2 MSTORE PUSH1 0x4 ADD PUSH2 0x9F0 SWAP1 PUSH2 0x3596 JUMP JUMPDEST ADDRESS PUSH2 0x1109 PUSH2 0x88B JUMP JUMPDEST PUSH1 0x1 PUSH1 0x1 PUSH1 0xA0 SHL SUB AND EQ PUSH2 0x1146 JUMPI PUSH1 0x0 DUP1 CALLDATASIZE PUSH1 0x40 MLOAD PUSH2 0x1129 SWAP3 SWAP2 SWAP1 PUSH2 0x3586 JUMP JUMPDEST PUSH1 0x40 MLOAD DUP1 SWAP2 SUB SWAP1 KECCAK256 SWAP1 POP JUMPDEST DUP1 PUSH2 0x113F PUSH1 0x2 PUSH2 0x17E2 JUMP JUMPDEST SUB PUSH2 0x1134 JUMPI POP JUMPDEST PUSH2 0xA48 DUP2 PUSH2 0x208D JUMP JUMPDEST PUSH1 0xA SLOAD PUSH1 0x0 DUP3 DUP2 MSTORE PUSH1 0xB PUSH1 0x20 MSTORE PUSH1 0x40 DUP1 DUP3 KECCAK256 SLOAD SWAP1 MLOAD PUSH4 0xD45C4435 PUSH1 0xE0 SHL DUP2 MSTORE PUSH1 0x4 DUP2 ADD SWAP2 SWAP1 SWAP2 MSTORE SWAP1 SWAP2 DUP3 SWAP2 PUSH1 0x1 PUSH1 0x1 PUSH1 0xA0 SHL SUB SWAP1 SWAP2 AND SWAP1 PUSH4 0xD45C4435 SWAP1 PUSH1 0x24 ADD PUSH1 0x20 PUSH1 0x40 MLOAD DUP1 DUP4 SUB DUP2 DUP7 GAS STATICCALL ISZERO DUP1 ISZERO PUSH2 0x11AC JUMPI RETURNDATASIZE PUSH1 0x0 DUP1 RETURNDATACOPY RETURNDATASIZE PUSH1 0x0 REVERT JUMPDEST POP POP POP POP PUSH1 0x40 MLOAD RETURNDATASIZE PUSH1 0x1F NOT PUSH1 0x1F DUP3 ADD AND DUP3 ADD DUP1 PUSH1 0x40 MSTORE POP DUP2 ADD SWAP1 PUSH2 0x11D0 SWAP2 SWAP1 PUSH2 0x3648 JUMP JUMPDEST SWAP1 POP DUP1 PUSH1 0x1 EQ PUSH2 0x11E0 JUMPI DUP1 PUSH2 0x1097 JUMP JUMPDEST PUSH1 0x0 SWAP4 SWAP3 POP POP POP JUMP JUMPDEST PUSH1 0x0 PUSH2 0x89F PUSH1 0x6 SLOAD SWAP1 JUMP JUMPDEST PUSH1 0x0 DUP2 DUP2 MSTORE PUSH1 0x1 PUSH1 0x20 DUP2 DUP2 MSTORE PUSH1 0x40 DUP1 DUP5 KECCAK256 DUP2 MLOAD SWAP3 DUP4 ADD SWAP1 SWAP2 MSTORE SWAP1 SWAP2 ADD SLOAD PUSH1 0x1 PUSH1 0x1 PUSH1 0x40 SHL SUB AND SWAP1 DUP2 SWAP1 MSTORE PUSH2 0xDF2 JUMP JUMPDEST PUSH2 0x122B PUSH2 0x88B JUMP JUMPDEST PUSH1 0x1 PUSH1 0x1 PUSH1 0xA0 SHL SUB AND CALLER PUSH1 0x1 PUSH1 0x1 PUSH1 0xA0 SHL SUB AND EQ PUSH2 0x125B JUMPI PUSH1 0x40 MLOAD PUSH3 0x461BCD PUSH1 0xE5 SHL DUP2 MSTORE PUSH1 0x4 ADD PUSH2 0x9F0 SWAP1 PUSH2 0x3596 JUMP JUMPDEST ADDRESS PUSH2 0x1264 PUSH2 0x88B JUMP JUMPDEST PUSH1 0x1 PUSH1 0x1 PUSH1 0xA0 SHL SUB AND EQ PUSH2 0x12A1 JUMPI PUSH1 0x0 DUP1 CALLDATASIZE PUSH1 0x40 MLOAD PUSH2 0x1284 SWAP3 SWAP2 SWAP1 PUSH2 0x3586 JUMP JUMPDEST PUSH1 0x40 MLOAD DUP1 SWAP2 SUB SWAP1 KECCAK256 SWAP1 POP JUMPDEST DUP1 PUSH2 0x129A PUSH1 0x2 PUSH2 0x17E2 JUMP JUMPDEST SUB PUSH2 0x128F JUMPI POP JUMPDEST PUSH1 0x0 DUP1 DUP6 PUSH1 0x1 PUSH1 0x1 PUSH1 0xA0 SHL SUB AND DUP6 DUP6 DUP6 PUSH1 0x40 MLOAD PUSH2 0x12BF SWAP3 SWAP2 SWAP1 PUSH2 0x3586 JUMP JUMPDEST PUSH1 0x0 PUSH1 0x40 MLOAD DUP1 DUP4 SUB DUP2 DUP6 DUP8 GAS CALL SWAP3 POP POP POP RETURNDATASIZE DUP1 PUSH1 0x0 DUP2 EQ PUSH2 0x12FC JUMPI PUSH1 0x40 MLOAD SWAP2 POP PUSH1 0x1F NOT PUSH1 0x3F RETURNDATASIZE ADD AND DUP3 ADD PUSH1 0x40 MSTORE RETURNDATASIZE DUP3 MSTORE RETURNDATASIZE PUSH1 0x0 PUSH1 0x20 DUP5 ADD RETURNDATACOPY PUSH2 0x1301 JUMP JUMPDEST PUSH1 0x60 SWAP2 POP JUMPDEST POP SWAP2 POP SWAP2 POP PUSH2 0x1329 DUP3 DUP3 PUSH1 0x40 MLOAD DUP1 PUSH1 0x60 ADD PUSH1 0x40 MSTORE DUP1 PUSH1 0x28 DUP2 MSTORE PUSH1 0x20 ADD PUSH2 0x3AFC PUSH1 0x28 SWAP2 CODECOPY PUSH2 0x20F6 JUMP JUMPDEST POP POP POP POP POP POP POP JUMP JUMPDEST PUSH1 0x0 DUP5 DUP5 DUP5 DUP5 PUSH1 0x40 MLOAD PUSH1 0x20 ADD PUSH2 0x134B SWAP5 SWAP4 SWAP3 SWAP2 SWAP1 PUSH2 0x3825 JUMP JUMPDEST PUSH1 0x40 DUP1 MLOAD PUSH1 0x1F NOT DUP2 DUP5 SUB ADD DUP2 MSTORE SWAP2 SWAP1 MSTORE DUP1 MLOAD PUSH1 0x20 SWAP1 SWAP2 ADD KECCAK256 SWAP6 SWAP5 POP POP POP POP POP JUMP JUMPDEST PUSH2 0x1374 PUSH2 0x88B JUMP JUMPDEST PUSH1 0x1 PUSH1 0x1 PUSH1 0xA0 SHL SUB AND CALLER PUSH1 0x1 PUSH1 0x1 PUSH1 0xA0 SHL SUB AND EQ PUSH2 0x13A4 JUMPI PUSH1 0x40 MLOAD PUSH3 0x461BCD PUSH1 0xE5 SHL DUP2 MSTORE PUSH1 0x4 ADD PUSH2 0x9F0 SWAP1 PUSH2 0x3596 JUMP JUMPDEST ADDRESS PUSH2 0x13AD PUSH2 0x88B JUMP JUMPDEST PUSH1 0x1 PUSH1 0x1 PUSH1 0xA0 SHL SUB AND EQ PUSH2 0x13EA JUMPI PUSH1 0x0 DUP1 CALLDATASIZE PUSH1 0x40 MLOAD PUSH2 0x13CD SWAP3 SWAP2 SWAP1 PUSH2 0x3586 JUMP JUMPDEST PUSH1 0x40 MLOAD DUP1 SWAP2 SUB SWAP1 KECCAK256 SWAP1 POP JUMPDEST DUP1 PUSH2 0x13E3 PUSH1 0x2 PUSH2 0x17E2 JUMP JUMPDEST SUB PUSH2 0x13D8 JUMPI POP JUMPDEST PUSH2 0xA48 DUP2 PUSH2 0x210F JUMP JUMPDEST PUSH1 0x0 PUSH2 0x1097 DUP4 DUP4 PUSH2 0x140F PUSH1 0x40 DUP1 MLOAD PUSH1 0x20 DUP2 ADD SWAP1 SWAP2 MSTORE PUSH1 0x0 DUP2 MSTORE SWAP1 JUMP JUMPDEST PUSH2 0x1FF7 JUMP JUMPDEST PUSH2 0x141C PUSH2 0x88B JUMP JUMPDEST PUSH1 0x1 PUSH1 0x1 PUSH1 0xA0 SHL SUB AND CALLER PUSH1 0x1 PUSH1 0x1 PUSH1 0xA0 SHL SUB AND EQ PUSH2 0x144C JUMPI PUSH1 0x40 MLOAD PUSH3 0x461BCD PUSH1 0xE5 SHL DUP2 MSTORE PUSH1 0x4 ADD PUSH2 0x9F0 SWAP1 PUSH2 0x3596 JUMP JUMPDEST ADDRESS PUSH2 0x1455 PUSH2 0x88B JUMP JUMPDEST PUSH1 0x1 PUSH1 0x1 PUSH1 0xA0 SHL SUB AND EQ PUSH2 0x1492 JUMPI PUSH1 0x0 DUP1 CALLDATASIZE PUSH1 0x40 MLOAD PUSH2 0x1475 SWAP3 SWAP2 SWAP1 PUSH2 0x3586 JUMP JUMPDEST PUSH1 0x40 MLOAD DUP1 SWAP2 SUB SWAP1 KECCAK256 SWAP1 POP JUMPDEST DUP1 PUSH2 0x148B PUSH1 0x2 PUSH2 0x17E2 JUMP JUMPDEST SUB PUSH2 0x1480 JUMPI POP JUMPDEST PUSH2 0xA48 DUP2 PUSH2 0x21B0 JUMP JUMPDEST PUSH1 0x0 PUSH2 0x8AF DUP3 PUSH2 0x21F1 JUMP JUMPDEST PUSH1 0x0 PUSH1 0x1 PUSH1 0x1 PUSH1 0xE0 SHL SUB DUP3 GT ISZERO PUSH2 0x150F JUMPI PUSH1 0x40 MLOAD PUSH3 0x461BCD PUSH1 0xE5 SHL DUP2 MSTORE PUSH1 0x20 PUSH1 0x4 DUP3 ADD MSTORE PUSH1 0x27 PUSH1 0x24 DUP3 ADD MSTORE PUSH32 0x53616665436173743A2076616C756520646F65736E27742066697420696E2032 PUSH1 0x44 DUP3 ADD MSTORE PUSH7 0x32342062697473 PUSH1 0xC8 SHL PUSH1 0x64 DUP3 ADD MSTORE PUSH1 0x84 ADD PUSH2 0x9F0 JUMP JUMPDEST POP SWAP1 JUMP JUMPDEST PUSH1 0x0 DUP1 PUSH2 0x1531 DUP5 PUSH2 0x1523 NUMBER PUSH2 0x1587 JUMP JUMPDEST PUSH2 0x152C DUP7 PUSH2 0x14A6 JUMP JUMPDEST PUSH2 0x229B JUMP JUMPDEST PUSH1 0x1 PUSH1 0x1 PUSH1 0xE0 SHL SUB SWAP2 DUP3 AND SWAP4 POP AND SWAP1 POP JUMPDEST SWAP3 POP SWAP3 SWAP1 POP JUMP JUMPDEST DUP1 SLOAD PUSH1 0x0 SWAP1 DUP1 ISZERO PUSH2 0x11E0 JUMPI PUSH2 0x1571 DUP4 PUSH2 0x1563 PUSH1 0x1 DUP5 PUSH2 0x37FC JUMP JUMPDEST PUSH1 0x0 SWAP2 DUP3 MSTORE PUSH1 0x20 SWAP1 SWAP2 KECCAK256 ADD SWAP1 JUMP JUMPDEST SLOAD PUSH1 0x1 PUSH1 0x20 SHL SWAP1 DIV PUSH1 0x1 PUSH1 0x1 PUSH1 0xE0 SHL SUB AND PUSH2 0x1097 JUMP JUMPDEST PUSH1 0x0 PUSH4 0xFFFFFFFF DUP3 GT ISZERO PUSH2 0x150F JUMPI PUSH1 0x40 MLOAD PUSH3 0x461BCD PUSH1 0xE5 SHL DUP2 MSTORE PUSH1 0x20 PUSH1 0x4 DUP3 ADD MSTORE PUSH1 0x26 PUSH1 0x24 DUP3 ADD MSTORE PUSH32 0x53616665436173743A2076616C756520646F65736E27742066697420696E2033 PUSH1 0x44 DUP3 ADD MSTORE PUSH6 0x322062697473 PUSH1 0xD0 SHL PUSH1 0x64 DUP3 ADD MSTORE PUSH1 0x84 ADD PUSH2 0x9F0 JUMP JUMPDEST PUSH1 0x0 PUSH1 0x1 PUSH1 0x1 PUSH1 0xE0 SHL SUB NOT DUP3 AND PUSH4 0x6E665CED PUSH1 0xE0 SHL EQ DUP1 PUSH2 0x8AF JUMPI POP PUSH2 0x8AF DUP3 PUSH2 0x243E JUMP JUMPDEST PUSH1 0x0 PUSH2 0x8AF PUSH2 0x161E PUSH2 0x24A9 JUMP JUMPDEST DUP4 PUSH1 0x40 MLOAD PUSH2 0x1901 PUSH1 0xF0 SHL PUSH1 0x20 DUP3 ADD MSTORE PUSH1 0x22 DUP2 ADD DUP4 SWAP1 MSTORE PUSH1 0x42 DUP2 ADD DUP3 SWAP1 MSTORE PUSH1 0x0 SWAP1 PUSH1 0x62 ADD PUSH1 0x40 MLOAD PUSH1 0x20 DUP2 DUP4 SUB SUB DUP2 MSTORE SWAP1 PUSH1 0x40 MSTORE DUP1 MLOAD SWAP1 PUSH1 0x20 ADD KECCAK256 SWAP1 POP SWAP3 SWAP2 POP POP JUMP JUMPDEST PUSH1 0x0 DUP1 PUSH1 0x0 PUSH2 0x1670 DUP8 DUP8 DUP8 DUP8 PUSH2 0x25D0 JUMP JUMPDEST SWAP2 POP SWAP2 POP PUSH2 0xDC0 DUP2 PUSH2 0x2694 JUMP JUMPDEST PUSH1 0x0 DUP6 DUP2 MSTORE PUSH1 0x1 PUSH1 0x20 DUP2 SWAP1 MSTORE PUSH1 0x40 DUP3 KECCAK256 SWAP1 PUSH2 0x1697 DUP9 PUSH2 0xE82 JUMP JUMPDEST PUSH1 0x7 DUP2 GT ISZERO PUSH2 0x16A8 JUMPI PUSH2 0x16A8 PUSH2 0x317D JUMP JUMPDEST EQ PUSH2 0x1701 JUMPI PUSH1 0x40 MLOAD PUSH3 0x461BCD PUSH1 0xE5 SHL DUP2 MSTORE PUSH1 0x20 PUSH1 0x4 DUP3 ADD MSTORE PUSH1 0x23 PUSH1 0x24 DUP3 ADD MSTORE PUSH32 0x476F7665726E6F723A20766F7465206E6F742063757272656E746C7920616374 PUSH1 0x44 DUP3 ADD MSTORE PUSH3 0x697665 PUSH1 0xE8 SHL PUSH1 0x64 DUP3 ADD MSTORE PUSH1 0x84 ADD PUSH2 0x9F0 JUMP JUMPDEST PUSH1 0x40 DUP1 MLOAD PUSH1 0x20 DUP2 ADD SWAP1 SWAP2 MSTORE DUP2 SLOAD PUSH1 0x1 PUSH1 0x1 PUSH1 0x40 SHL SUB AND SWAP1 DUP2 SWAP1 MSTORE PUSH1 0x0 SWAP1 PUSH2 0x172A SWAP1 DUP9 SWAP1 DUP7 PUSH2 0x1FF7 JUMP JUMPDEST SWAP1 POP PUSH2 0x1739 DUP9 DUP9 DUP9 DUP5 DUP9 PUSH2 0x27DE JUMP JUMPDEST DUP4 MLOAD PUSH1 0x0 SUB PUSH2 0x178E JUMPI DUP7 PUSH1 0x1 PUSH1 0x1 PUSH1 0xA0 SHL SUB AND PUSH32 0xB8E138887D0AA13BAB447E82DE9D5C1777041ECD21CA36BA824FF1E6C07DDDA4 DUP10 DUP9 DUP5 DUP10 PUSH1 0x40 MLOAD PUSH2 0x1781 SWAP5 SWAP4 SWAP3 SWAP2 SWAP1 PUSH2 0x3870 JUMP JUMPDEST PUSH1 0x40 MLOAD DUP1 SWAP2 SUB SWAP1 LOG2 PUSH2 0xE77 JUMP JUMPDEST DUP7 PUSH1 0x1 PUSH1 0x1 PUSH1 0xA0 SHL SUB AND PUSH32 0xE2BABFBAC5889A709B63BB7F598B324E08BC5A4FB9EC647FB3CBC9EC07EB8712 DUP10 DUP9 DUP5 DUP10 DUP10 PUSH1 0x40 MLOAD PUSH2 0x17CF SWAP6 SWAP5 SWAP4 SWAP3 SWAP2 SWAP1 PUSH2 0x3898 JUMP JUMPDEST PUSH1 0x40 MLOAD DUP1 SWAP2 SUB SWAP1 LOG2 SWAP8 SWAP7 POP POP POP POP POP POP POP JUMP JUMPDEST PUSH1 0x0 PUSH2 0x17FD DUP3 SLOAD PUSH1 0xF DUP2 DUP2 SIGNEXTEND PUSH1 0x1 PUSH1 0x80 SHL SWAP1 SWAP3 DIV SWAP1 SIGNEXTEND SGT ISZERO SWAP1 JUMP JUMPDEST ISZERO PUSH2 0x181B JUMPI PUSH1 0x40 MLOAD PUSH4 0x1ED95095 PUSH1 0xE1 SHL DUP2 MSTORE PUSH1 0x4 ADD PUSH1 0x40 MLOAD DUP1 SWAP2 SUB SWAP1 REVERT JUMPDEST POP DUP1 SLOAD PUSH1 0xF SIGNEXTEND PUSH1 0x0 DUP2 DUP2 MSTORE PUSH1 0x1 DUP1 DUP5 ADD PUSH1 0x20 MSTORE PUSH1 0x40 DUP3 KECCAK256 DUP1 SLOAD SWAP3 SWAP1 SSTORE DUP4 SLOAD PUSH16 0xFFFFFFFFFFFFFFFFFFFFFFFFFFFFFFFF NOT AND SWAP3 ADD PUSH1 0x1 PUSH1 0x1 PUSH1 0x80 SHL SUB AND SWAP2 SWAP1 SWAP2 OR SWAP1 SWAP2 SSTORE SWAP1 JUMP JUMPDEST PUSH1 0x64 DUP2 GT ISZERO PUSH2 0x18E4 JUMPI PUSH1 0x40 MLOAD PUSH3 0x461BCD PUSH1 0xE5 SHL DUP2 MSTORE PUSH1 0x20 PUSH1 0x4 DUP3 ADD MSTORE PUSH1 0x43 PUSH1 0x24 DUP3 ADD MSTORE PUSH32 0x476F7665726E6F72566F74657351756F72756D4672616374696F6E3A2071756F PUSH1 0x44 DUP3 ADD MSTORE PUSH32 0x72756D4E756D657261746F72206F7665722071756F72756D44656E6F6D696E61 PUSH1 0x64 DUP3 ADD MSTORE PUSH3 0x3A37B9 PUSH1 0xE9 SHL PUSH1 0x84 DUP3 ADD MSTORE PUSH1 0xA4 ADD PUSH2 0x9F0 JUMP JUMPDEST PUSH1 0x0 PUSH2 0x18EE PUSH2 0x109E JUMP JUMPDEST SWAP1 POP DUP1 ISZERO DUP1 ISZERO SWAP1 PUSH2 0x18FF JUMPI POP PUSH1 0x9 SLOAD ISZERO JUMPDEST ISZERO PUSH2 0x1963 JUMPI PUSH1 0x40 DUP1 MLOAD DUP1 DUP3 ADD SWAP1 SWAP2 MSTORE PUSH1 0x0 DUP2 MSTORE PUSH1 0x9 SWAP1 PUSH1 0x20 DUP2 ADD PUSH2 0x1922 DUP5 PUSH2 0x14A6 JUMP JUMPDEST PUSH1 0x1 PUSH1 0x1 PUSH1 0xE0 SHL SUB SWAP1 DUP2 AND SWAP1 SWAP2 MSTORE DUP3 SLOAD PUSH1 0x1 DUP2 ADD DUP5 SSTORE PUSH1 0x0 SWAP4 DUP5 MSTORE PUSH1 0x20 SWAP4 DUP5 SWAP1 KECCAK256 DUP4 MLOAD SWAP5 SWAP1 SWAP4 ADD MLOAD SWAP1 SWAP2 AND PUSH1 0x1 PUSH1 0x20 SHL MUL PUSH4 0xFFFFFFFF SWAP1 SWAP4 AND SWAP3 SWAP1 SWAP3 OR SWAP2 ADD SSTORE JUMPDEST PUSH2 0x196E PUSH1 0x9 DUP4 PUSH2 0x1513 JUMP JUMPDEST POP POP PUSH1 0x40 DUP1 MLOAD DUP3 DUP2 MSTORE PUSH1 0x20 DUP2 ADD DUP5 SWAP1 MSTORE PUSH32 0x553476BF02EF2726E8CE5CED78D63E26E602E4A2257B1F559418E24B4633997 SWAP2 ADD PUSH1 0x40 MLOAD DUP1 SWAP2 SUB SWAP1 LOG1 POP POP JUMP JUMPDEST ADDRESS PUSH2 0x19B6 PUSH2 0x88B JUMP JUMPDEST PUSH1 0x1 PUSH1 0x1 PUSH1 0xA0 SHL SUB AND EQ PUSH2 0x1A48 JUMPI PUSH1 0x0 JUMPDEST DUP5 MLOAD DUP2 LT ISZERO PUSH2 0x1A46 JUMPI ADDRESS PUSH1 0x1 PUSH1 0x1 PUSH1 0xA0 SHL SUB AND DUP6 DUP3 DUP2 MLOAD DUP2 LT PUSH2 0x19EC JUMPI PUSH2 0x19EC PUSH2 0x380F JUMP JUMPDEST PUSH1 0x20 MUL PUSH1 0x20 ADD ADD MLOAD PUSH1 0x1 PUSH1 0x1 PUSH1 0xA0 SHL SUB AND SUB PUSH2 0x1A36 JUMPI PUSH2 0x1A36 DUP4 DUP3 DUP2 MLOAD DUP2 LT PUSH2 0x1A17 JUMPI PUSH2 0x1A17 PUSH2 0x380F JUMP JUMPDEST PUSH1 0x20 MUL PUSH1 0x20 ADD ADD MLOAD DUP1 MLOAD SWAP1 PUSH1 0x20 ADD KECCAK256 PUSH1 0x2 PUSH2 0x2958 SWAP1 SWAP2 SWAP1 PUSH4 0xFFFFFFFF AND JUMP JUMPDEST PUSH2 0x1A3F DUP2 PUSH2 0x38DE JUMP JUMPDEST SWAP1 POP PUSH2 0x19C7 JUMP JUMPDEST POP JUMPDEST POP POP POP POP POP JUMP JUMPDEST PUSH32 0xF3171E02B08BA323D9D497BD927DF52FE517C6AF1986C5F6CC7B4CBF8F63AEAA DUP6 DUP6 DUP6 DUP6 DUP6 PUSH1 0x40 MLOAD PUSH2 0x1A86 SWAP6 SWAP5 SWAP4 SWAP3 SWAP2 SWAP1 PUSH2 0x38F7 JUMP JUMPDEST PUSH1 0x40 MLOAD DUP1 SWAP2 SUB SWAP1 LOG1 PUSH2 0x1A48 DUP6 DUP6 DUP6 DUP6 DUP6 PUSH2 0x2994 JUMP JUMPDEST ADDRESS PUSH2 0x1AA4 PUSH2 0x88B JUMP JUMPDEST PUSH1 0x1 PUSH1 0x1 PUSH1 0xA0 SHL SUB AND EQ PUSH2 0x1A48 JUMPI PUSH1 0x2 SLOAD PUSH1 0xF DUP2 DUP2 SIGNEXTEND PUSH1 0x1 PUSH1 0x80 SHL SWAP1 SWAP3 DIV SWAP1 SIGNEXTEND SGT ISZERO PUSH2 0x1A48 JUMPI PUSH1 0x0 PUSH1 0x2 SSTORE PUSH2 0x1A48 JUMP JUMPDEST PUSH1 0x0 PUSH2 0x107E DUP6 DUP6 DUP6 DUP6 PUSH2 0x1AF2 PUSH1 0x40 DUP1 MLOAD PUSH1 0x20 DUP2 ADD SWAP1 SWAP2 MSTORE PUSH1 0x0 DUP2 MSTORE SWAP1 JUMP JUMPDEST PUSH2 0x167D JUMP JUMPDEST PUSH1 0x0 DUP1 PUSH2 0x1B03 DUP4 PUSH2 0x2A08 JUMP JUMPDEST SWAP1 POP PUSH1 0x4 DUP2 PUSH1 0x7 DUP2 GT ISZERO PUSH2 0x1B19 JUMPI PUSH2 0x1B19 PUSH2 0x317D JUMP JUMPDEST EQ PUSH2 0x1B24 JUMPI SWAP3 SWAP2 POP POP JUMP JUMPDEST PUSH1 0x0 DUP4 DUP2 MSTORE PUSH1 0xB PUSH1 0x20 MSTORE PUSH1 0x40 SWAP1 KECCAK256 SLOAD DUP1 PUSH2 0x1B3F JUMPI POP SWAP3 SWAP2 POP POP JUMP JUMPDEST PUSH1 0xA SLOAD PUSH1 0x40 MLOAD PUSH4 0x2AB0F529 PUSH1 0xE0 SHL DUP2 MSTORE PUSH1 0x4 DUP2 ADD DUP4 SWAP1 MSTORE PUSH1 0x1 PUSH1 0x1 PUSH1 0xA0 SHL SUB SWAP1 SWAP2 AND SWAP1 PUSH4 0x2AB0F529 SWAP1 PUSH1 0x24 ADD PUSH1 0x20 PUSH1 0x40 MLOAD DUP1 DUP4 SUB DUP2 DUP7 GAS STATICCALL ISZERO DUP1 ISZERO PUSH2 0x1B88 JUMPI RETURNDATASIZE PUSH1 0x0 DUP1 RETURNDATACOPY RETURNDATASIZE PUSH1 0x0 REVERT JUMPDEST POP POP POP POP PUSH1 0x40 MLOAD RETURNDATASIZE PUSH1 0x1F NOT PUSH1 0x1F DUP3 ADD AND DUP3 ADD DUP1 PUSH1 0x40 MSTORE POP DUP2 ADD SWAP1 PUSH2 0x1BAC SWAP2 SWAP1 PUSH2 0x3949 JUMP JUMPDEST ISZERO PUSH2 0x1BBB JUMPI POP PUSH1 0x7 SWAP4 SWAP3 POP POP POP JUMP JUMPDEST PUSH1 0xA SLOAD PUSH1 0x40 MLOAD PUSH4 0x2C258A9F PUSH1 0xE1 SHL DUP2 MSTORE PUSH1 0x4 DUP2 ADD DUP4 SWAP1 MSTORE PUSH1 0x1 PUSH1 0x1 PUSH1 0xA0 SHL SUB SWAP1 SWAP2 AND SWAP1 PUSH4 0x584B153E SWAP1 PUSH1 0x24 ADD PUSH1 0x20 PUSH1 0x40 MLOAD DUP1 DUP4 SUB DUP2 DUP7 GAS STATICCALL ISZERO DUP1 ISZERO PUSH2 0x1C04 JUMPI RETURNDATASIZE PUSH1 0x0 DUP1 RETURNDATACOPY RETURNDATASIZE PUSH1 0x0 REVERT JUMPDEST POP POP POP POP PUSH1 0x40 MLOAD RETURNDATASIZE PUSH1 0x1F NOT PUSH1 0x1F DUP3 ADD AND DUP3 ADD DUP1 PUSH1 0x40 MSTORE POP DUP2 ADD SWAP1 PUSH2 0x1C28 SWAP2 SWAP1 PUSH2 0x3949 JUMP JUMPDEST ISZERO PUSH2 0x1C37 JUMPI POP PUSH1 0x5 SWAP4 SWAP3 POP POP POP JUMP JUMPDEST POP PUSH1 0x2 SWAP4 SWAP3 POP POP POP JUMP JUMPDEST PUSH1 0x0 NUMBER DUP3 LT PUSH2 0x1C92 JUMPI PUSH1 0x40 MLOAD PUSH3 0x461BCD PUSH1 0xE5 SHL DUP2 MSTORE PUSH1 0x20 PUSH1 0x4 DUP3 ADD DUP2 SWAP1 MSTORE PUSH1 0x24 DUP3 ADD MSTORE PUSH32 0x436865636B706F696E74733A20626C6F636B206E6F7420796574206D696E6564 PUSH1 0x44 DUP3 ADD MSTORE PUSH1 0x64 ADD PUSH2 0x9F0 JUMP JUMPDEST PUSH1 0x0 PUSH2 0x1C9D DUP4 PUSH2 0x1587 JUMP JUMPDEST DUP5 SLOAD SWAP1 SWAP2 POP PUSH1 0x0 PUSH2 0x1CB0 DUP7 DUP5 DUP4 DUP6 PUSH2 0x2B17 JUMP JUMPDEST SWAP1 POP DUP1 ISZERO PUSH2 0x1CDD JUMPI PUSH2 0x1CC7 DUP7 PUSH2 0x1563 PUSH1 0x1 DUP5 PUSH2 0x37FC JUMP JUMPDEST SLOAD PUSH1 0x1 PUSH1 0x20 SHL SWAP1 DIV PUSH1 0x1 PUSH1 0x1 PUSH1 0xE0 SHL SUB AND PUSH2 0x1CE0 JUMP JUMPDEST PUSH1 0x0 JUMPDEST PUSH1 0x1 PUSH1 0x1 PUSH1 0xE0 SHL SUB AND SWAP7 SWAP6 POP POP POP POP POP POP JUMP JUMPDEST PUSH1 0x4 SLOAD PUSH1 0x40 DUP1 MLOAD SWAP2 DUP3 MSTORE PUSH1 0x20 DUP3 ADD DUP4 SWAP1 MSTORE PUSH32 0xC565B045403DC03C2EEA82B81A0465EDAD9E2E7FC4D97E11421C209DA93D7A93 SWAP2 ADD PUSH1 0x40 MLOAD DUP1 SWAP2 SUB SWAP1 LOG1 PUSH1 0x4 SSTORE JUMP JUMPDEST PUSH1 0x0 PUSH2 0x1D3E PUSH2 0x11E9 JUMP JUMPDEST PUSH2 0x1D4D CALLER PUSH2 0x7E6 PUSH1 0x1 NUMBER PUSH2 0x37FC JUMP JUMPDEST LT ISZERO PUSH2 0x1DB5 JUMPI PUSH1 0x40 MLOAD PUSH3 0x461BCD PUSH1 0xE5 SHL DUP2 MSTORE PUSH1 0x20 PUSH1 0x4 DUP3 ADD MSTORE PUSH1 0x31 PUSH1 0x24 DUP3 ADD MSTORE PUSH32 0x476F7665726E6F723A2070726F706F73657220766F7465732062656C6F772070 PUSH1 0x44 DUP3 ADD MSTORE PUSH17 0x1C9BDC1BDCD85B081D1A1C995CDA1BDB19 PUSH1 0x7A SHL PUSH1 0x64 DUP3 ADD MSTORE PUSH1 0x84 ADD PUSH2 0x9F0 JUMP JUMPDEST PUSH1 0x0 PUSH2 0x1DCA DUP7 DUP7 DUP7 DUP7 DUP1 MLOAD SWAP1 PUSH1 0x20 ADD KECCAK256 PUSH2 0x1332 JUMP JUMPDEST SWAP1 POP DUP5 MLOAD DUP7 MLOAD EQ PUSH2 0x1DED JUMPI PUSH1 0x40 MLOAD PUSH3 0x461BCD PUSH1 0xE5 SHL DUP2 MSTORE PUSH1 0x4 ADD PUSH2 0x9F0 SWAP1 PUSH2 0x396B JUMP JUMPDEST DUP4 MLOAD DUP7 MLOAD EQ PUSH2 0x1E0E JUMPI PUSH1 0x40 MLOAD PUSH3 0x461BCD PUSH1 0xE5 SHL DUP2 MSTORE PUSH1 0x4 ADD PUSH2 0x9F0 SWAP1 PUSH2 0x396B JUMP JUMPDEST PUSH1 0x0 DUP7 MLOAD GT PUSH2 0x1E5F JUMPI PUSH1 0x40 MLOAD PUSH3 0x461BCD PUSH1 0xE5 SHL DUP2 MSTORE PUSH1 0x20 PUSH1 0x4 DUP3 ADD MSTORE PUSH1 0x18 PUSH1 0x24 DUP3 ADD MSTORE PUSH32 0x476F7665726E6F723A20656D7074792070726F706F73616C0000000000000000 PUSH1 0x44 DUP3 ADD MSTORE PUSH1 0x64 ADD PUSH2 0x9F0 JUMP JUMPDEST PUSH1 0x0 DUP2 DUP2 MSTORE PUSH1 0x1 PUSH1 0x20 SWAP1 DUP2 MSTORE PUSH1 0x40 SWAP2 DUP3 SWAP1 KECCAK256 DUP3 MLOAD SWAP2 DUP3 ADD SWAP1 SWAP3 MSTORE DUP2 SLOAD PUSH1 0x1 PUSH1 0x1 PUSH1 0x40 SHL SUB AND SWAP1 DUP2 SWAP1 MSTORE ISZERO PUSH2 0x1EDF JUMPI PUSH1 0x40 MLOAD PUSH3 0x461BCD PUSH1 0xE5 SHL DUP2 MSTORE PUSH1 0x20 PUSH1 0x4 DUP3 ADD MSTORE PUSH1 0x21 PUSH1 0x24 DUP3 ADD MSTORE PUSH32 0x476F7665726E6F723A2070726F706F73616C20616C7265616479206578697374 PUSH1 0x44 DUP3 ADD MSTORE PUSH1 0x73 PUSH1 0xF8 SHL PUSH1 0x64 DUP3 ADD MSTORE PUSH1 0x84 ADD PUSH2 0x9F0 JUMP JUMPDEST PUSH1 0x0 PUSH2 0x1EF1 PUSH2 0x1EEC PUSH2 0xE01 JUMP JUMPDEST PUSH2 0x2B75 JUMP JUMPDEST PUSH2 0x1EFA NUMBER PUSH2 0x2B75 JUMP JUMPDEST PUSH2 0x1F04 SWAP2 SWAP1 PUSH2 0x39AC JUMP JUMPDEST SWAP1 POP PUSH1 0x0 PUSH2 0x1F13 PUSH2 0x1EEC PUSH2 0x8B5 JUMP JUMPDEST PUSH2 0x1F1D SWAP1 DUP4 PUSH2 0x39AC JUMP JUMPDEST DUP4 SLOAD PUSH8 0xFFFFFFFFFFFFFFFF NOT AND PUSH1 0x1 PUSH1 0x1 PUSH1 0x40 SHL SUB DUP5 AND OR DUP5 SSTORE SWAP1 POP PUSH1 0x1 DUP4 ADD DUP1 SLOAD PUSH8 0xFFFFFFFFFFFFFFFF NOT AND PUSH1 0x1 PUSH1 0x1 PUSH1 0x40 SHL SUB DUP4 AND OR SWAP1 SSTORE PUSH32 0x7D84A6263AE0D98D3329BD7B46BB4E8D6F98CD35A7ADB45C274C8B7FD5EBD5E0 DUP5 CALLER DUP12 DUP12 DUP14 MLOAD PUSH1 0x1 PUSH1 0x1 PUSH1 0x40 SHL SUB DUP2 GT ISZERO PUSH2 0x1F95 JUMPI PUSH2 0x1F95 PUSH2 0x2CDA JUMP JUMPDEST PUSH1 0x40 MLOAD SWAP1 DUP1 DUP3 MSTORE DUP1 PUSH1 0x20 MUL PUSH1 0x20 ADD DUP3 ADD PUSH1 0x40 MSTORE DUP1 ISZERO PUSH2 0x1FC8 JUMPI DUP2 PUSH1 0x20 ADD JUMPDEST PUSH1 0x60 DUP2 MSTORE PUSH1 0x20 ADD SWAP1 PUSH1 0x1 SWAP1 SUB SWAP1 DUP2 PUSH2 0x1FB3 JUMPI SWAP1 POP JUMPDEST POP DUP13 DUP9 DUP9 DUP15 PUSH1 0x40 MLOAD PUSH2 0x1FE2 SWAP10 SWAP9 SWAP8 SWAP7 SWAP6 SWAP5 SWAP4 SWAP3 SWAP2 SWAP1 PUSH2 0x39D3 JUMP JUMPDEST PUSH1 0x40 MLOAD DUP1 SWAP2 SUB SWAP1 LOG1 POP SWAP2 SWAP8 SWAP7 POP POP POP POP POP POP POP JUMP JUMPDEST PUSH1 0x40 MLOAD PUSH4 0x748D635 PUSH1 0xE3 SHL DUP2 MSTORE PUSH1 0x1 PUSH1 0x1 PUSH1 0xA0 SHL SUB DUP5 DUP2 AND PUSH1 0x4 DUP4 ADD MSTORE PUSH1 0x24 DUP3 ADD DUP5 SWAP1 MSTORE PUSH1 0x0 SWAP2 PUSH32 0x0 SWAP1 SWAP2 AND SWAP1 PUSH4 0x3A46B1A8 SWAP1 PUSH1 0x44 ADD PUSH1 0x20 PUSH1 0x40 MLOAD DUP1 DUP4 SUB DUP2 DUP7 GAS STATICCALL ISZERO DUP1 ISZERO PUSH2 0x2069 JUMPI RETURNDATASIZE PUSH1 0x0 DUP1 RETURNDATACOPY RETURNDATASIZE PUSH1 0x0 REVERT JUMPDEST POP POP POP POP PUSH1 0x40 MLOAD RETURNDATASIZE PUSH1 0x1F NOT PUSH1 0x1F DUP3 ADD AND DUP3 ADD DUP1 PUSH1 0x40 MSTORE POP DUP2 ADD SWAP1 PUSH2 0x1094 SWAP2 SWAP1 PUSH2 0x3648 JUMP JUMPDEST PUSH1 0xA SLOAD PUSH1 0x40 DUP1 MLOAD PUSH1 0x1 PUSH1 0x1 PUSH1 0xA0 SHL SUB SWAP3 DUP4 AND DUP2 MSTORE SWAP2 DUP4 AND PUSH1 0x20 DUP4 ADD MSTORE PUSH32 0x8F74EA46EF7894F65EABFB5E6E695DE773A000B47C529AB559178069B226401 SWAP2 ADD PUSH1 0x40 MLOAD DUP1 SWAP2 SUB SWAP1 LOG1 PUSH1 0xA DUP1 SLOAD PUSH1 0x1 PUSH1 0x1 PUSH1 0xA0 SHL SUB NOT AND PUSH1 0x1 PUSH1 0x1 PUSH1 0xA0 SHL SUB SWAP3 SWAP1 SWAP3 AND SWAP2 SWAP1 SWAP2 OR SWAP1 SSTORE JUMP JUMPDEST PUSH1 0x60 DUP4 ISZERO PUSH2 0x2105 JUMPI POP DUP2 PUSH2 0x1097 JUMP JUMPDEST PUSH2 0x1097 DUP4 DUP4 PUSH2 0x2BDD JUMP JUMPDEST PUSH1 0x0 DUP2 GT PUSH2 0x216F JUMPI PUSH1 0x40 MLOAD PUSH3 0x461BCD PUSH1 0xE5 SHL DUP2 MSTORE PUSH1 0x20 PUSH1 0x4 DUP3 ADD MSTORE PUSH1 0x27 PUSH1 0x24 DUP3 ADD MSTORE PUSH32 0x476F7665726E6F7253657474696E67733A20766F74696E6720706572696F6420 PUSH1 0x44 DUP3 ADD MSTORE PUSH7 0x746F6F206C6F77 PUSH1 0xC8 SHL PUSH1 0x64 DUP3 ADD MSTORE PUSH1 0x84 ADD PUSH2 0x9F0 JUMP JUMPDEST PUSH1 0x5 SLOAD PUSH1 0x40 DUP1 MLOAD SWAP2 DUP3 MSTORE PUSH1 0x20 DUP3 ADD DUP4 SWAP1 MSTORE PUSH32 0x7E3F7F0708A84DE9203036ABAA450DCCC85AD5FF52F78C170F3EDB55CF5E8828 SWAP2 ADD PUSH1 0x40 MLOAD DUP1 SWAP2 SUB SWAP1 LOG1 PUSH1 0x5 SSTORE JUMP JUMPDEST PUSH1 0x6 SLOAD PUSH1 0x40 DUP1 MLOAD SWAP2 DUP3 MSTORE PUSH1 0x20 DUP3 ADD DUP4 SWAP1 MSTORE PUSH32 0xCCB45DA8D5717E6C4544694297C4BA5CF151D455C9BB0ED4FC7A38411BC05461 SWAP2 ADD PUSH1 0x40 MLOAD DUP1 SWAP2 SUB SWAP1 LOG1 PUSH1 0x6 SSTORE JUMP JUMPDEST PUSH1 0x0 PUSH1 0x64 PUSH2 0x21FE DUP4 PUSH2 0xF00 JUMP JUMPDEST PUSH1 0x40 MLOAD PUSH4 0x2394E7A3 PUSH1 0xE2 SHL DUP2 MSTORE PUSH1 0x4 DUP2 ADD DUP6 SWAP1 MSTORE PUSH32 0x0 PUSH1 0x1 PUSH1 0x1 PUSH1 0xA0 SHL SUB AND SWAP1 PUSH4 0x8E539E8C SWAP1 PUSH1 0x24 ADD PUSH1 0x20 PUSH1 0x40 MLOAD DUP1 DUP4 SUB DUP2 DUP7 GAS STATICCALL ISZERO DUP1 ISZERO PUSH2 0x2263 JUMPI RETURNDATASIZE PUSH1 0x0 DUP1 RETURNDATACOPY RETURNDATASIZE PUSH1 0x0 REVERT JUMPDEST POP POP POP POP PUSH1 0x40 MLOAD RETURNDATASIZE PUSH1 0x1F NOT PUSH1 0x1F DUP3 ADD AND DUP3 ADD DUP1 PUSH1 0x40 MSTORE POP DUP2 ADD SWAP1 PUSH2 0x2287 SWAP2 SWAP1 PUSH2 0x3648 JUMP JUMPDEST PUSH2 0x2291 SWAP2 SWAP1 PUSH2 0x3AC2 JUMP JUMPDEST PUSH2 0x8AF SWAP2 SWAP1 PUSH2 0x3AD9 JUMP JUMPDEST DUP3 SLOAD PUSH1 0x0 SWAP1 DUP2 SWAP1 DUP1 ISZERO PUSH2 0x23E1 JUMPI PUSH1 0x0 PUSH2 0x22B9 DUP8 PUSH2 0x1563 PUSH1 0x1 DUP6 PUSH2 0x37FC JUMP JUMPDEST PUSH1 0x40 DUP1 MLOAD DUP1 DUP3 ADD SWAP1 SWAP2 MSTORE SWAP1 SLOAD PUSH4 0xFFFFFFFF DUP1 DUP3 AND DUP1 DUP5 MSTORE PUSH1 0x1 PUSH1 0x20 SHL SWAP1 SWAP3 DIV PUSH1 0x1 PUSH1 0x1 PUSH1 0xE0 SHL SUB AND PUSH1 0x20 DUP5 ADD MSTORE SWAP2 SWAP3 POP SWAP1 DUP8 AND LT ISZERO PUSH2 0x233A JUMPI PUSH1 0x40 MLOAD PUSH3 0x461BCD PUSH1 0xE5 SHL DUP2 MSTORE PUSH1 0x20 PUSH1 0x4 DUP3 ADD MSTORE PUSH1 0x17 PUSH1 0x24 DUP3 ADD MSTORE PUSH32 0x436865636B706F696E743A20696E76616C6964206B6579000000000000000000 PUSH1 0x44 DUP3 ADD MSTORE PUSH1 0x64 ADD PUSH2 0x9F0 JUMP JUMPDEST DUP1 MLOAD PUSH4 0xFFFFFFFF DUP1 DUP9 AND SWAP2 AND SUB PUSH2 0x2382 JUMPI DUP5 PUSH2 0x235B DUP9 PUSH2 0x1563 PUSH1 0x1 DUP7 PUSH2 0x37FC JUMP JUMPDEST DUP1 SLOAD PUSH1 0x1 PUSH1 0x1 PUSH1 0xE0 SHL SUB SWAP3 SWAP1 SWAP3 AND PUSH1 0x1 PUSH1 0x20 SHL MUL PUSH4 0xFFFFFFFF SWAP1 SWAP3 AND SWAP2 SWAP1 SWAP2 OR SWAP1 SSTORE PUSH2 0x23D1 JUMP JUMPDEST PUSH1 0x40 DUP1 MLOAD DUP1 DUP3 ADD SWAP1 SWAP2 MSTORE PUSH4 0xFFFFFFFF DUP1 DUP9 AND DUP3 MSTORE PUSH1 0x1 PUSH1 0x1 PUSH1 0xE0 SHL SUB DUP1 DUP9 AND PUSH1 0x20 DUP1 DUP6 ADD SWAP2 DUP3 MSTORE DUP12 SLOAD PUSH1 0x1 DUP2 ADD DUP14 SSTORE PUSH1 0x0 DUP14 DUP2 MSTORE SWAP2 SWAP1 SWAP2 KECCAK256 SWAP5 MLOAD SWAP2 MLOAD SWAP1 SWAP3 AND PUSH1 0x1 PUSH1 0x20 SHL MUL SWAP3 AND SWAP2 SWAP1 SWAP2 OR SWAP2 ADD SSTORE JUMPDEST PUSH1 0x20 ADD MLOAD SWAP3 POP DUP4 SWAP2 POP PUSH2 0x2436 SWAP1 POP JUMP JUMPDEST POP POP PUSH1 0x40 DUP1 MLOAD DUP1 DUP3 ADD SWAP1 SWAP2 MSTORE PUSH4 0xFFFFFFFF DUP1 DUP6 AND DUP3 MSTORE PUSH1 0x1 PUSH1 0x1 PUSH1 0xE0 SHL SUB DUP1 DUP6 AND PUSH1 0x20 DUP1 DUP6 ADD SWAP2 DUP3 MSTORE DUP9 SLOAD PUSH1 0x1 DUP2 ADD DUP11 SSTORE PUSH1 0x0 DUP11 DUP2 MSTORE SWAP2 DUP3 KECCAK256 SWAP6 MLOAD SWAP3 MLOAD SWAP1 SWAP4 AND PUSH1 0x1 PUSH1 0x20 SHL MUL SWAP2 SWAP1 SWAP4 AND OR SWAP3 ADD SWAP2 SWAP1 SWAP2 SSTORE SWAP1 POP DUP2 JUMPDEST SWAP4 POP SWAP4 SWAP2 POP POP JUMP JUMPDEST PUSH1 0x0 PUSH1 0x1 PUSH1 0x1 PUSH1 0xE0 SHL SUB NOT DUP3 AND PUSH4 0xBF26D897 PUSH1 0xE0 SHL EQ DUP1 PUSH2 0x246F JUMPI POP PUSH1 0x1 PUSH1 0x1 PUSH1 0xE0 SHL SUB NOT DUP3 AND PUSH4 0x79DD796F PUSH1 0xE0 SHL EQ JUMPDEST DUP1 PUSH2 0x248A JUMPI POP PUSH1 0x1 PUSH1 0x1 PUSH1 0xE0 SHL SUB NOT DUP3 AND PUSH4 0x2711897 PUSH1 0xE5 SHL EQ JUMPDEST DUP1 PUSH2 0x8AF JUMPI POP PUSH4 0x1FFC9A7 PUSH1 0xE0 SHL PUSH1 0x1 PUSH1 0x1 PUSH1 0xE0 SHL SUB NOT DUP4 AND EQ PUSH2 0x8AF JUMP JUMPDEST PUSH1 0x0 ADDRESS PUSH1 0x1 PUSH1 0x1 PUSH1 0xA0 SHL SUB PUSH32 0x0 AND EQ DUP1 ISZERO PUSH2 0x2502 JUMPI POP PUSH32 0x0 CHAINID EQ JUMPDEST ISZERO PUSH2 0x252C JUMPI POP PUSH32 0x0 SWAP1 JUMP JUMPDEST POP PUSH1 0x40 DUP1 MLOAD PUSH32 0x0 PUSH1 0x20 DUP1 DUP4 ADD SWAP2 SWAP1 SWAP2 MSTORE PUSH32 0x0 DUP3 DUP5 ADD MSTORE PUSH32 0x0 PUSH1 0x60 DUP4 ADD MSTORE CHAINID PUSH1 0x80 DUP4 ADD MSTORE ADDRESS PUSH1 0xA0 DUP1 DUP5 ADD SWAP2 SWAP1 SWAP2 MSTORE DUP4 MLOAD DUP1 DUP5 SUB SWAP1 SWAP2 ADD DUP2 MSTORE PUSH1 0xC0 SWAP1 SWAP3 ADD SWAP1 SWAP3 MSTORE DUP1 MLOAD SWAP2 ADD KECCAK256 SWAP1 JUMP JUMPDEST PUSH1 0x0 DUP1 PUSH32 0x7FFFFFFFFFFFFFFFFFFFFFFFFFFFFFFF5D576E7357A4501DDFE92F46681B20A0 DUP4 GT ISZERO PUSH2 0x2607 JUMPI POP PUSH1 0x0 SWAP1 POP PUSH1 0x3 PUSH2 0x268B JUMP JUMPDEST PUSH1 0x40 DUP1 MLOAD PUSH1 0x0 DUP1 DUP3 MSTORE PUSH1 0x20 DUP3 ADD DUP1 DUP5 MSTORE DUP10 SWAP1 MSTORE PUSH1 0xFF DUP9 AND SWAP3 DUP3 ADD SWAP3 SWAP1 SWAP3 MSTORE PUSH1 0x60 DUP2 ADD DUP7 SWAP1 MSTORE PUSH1 0x80 DUP2 ADD DUP6 SWAP1 MSTORE PUSH1 0x1 SWAP1 PUSH1 0xA0 ADD PUSH1 0x20 PUSH1 0x40 MLOAD PUSH1 0x20 DUP2 SUB SWAP1 DUP1 DUP5 SUB SWAP1 DUP6 GAS STATICCALL ISZERO DUP1 ISZERO PUSH2 0x265B JUMPI RETURNDATASIZE PUSH1 0x0 DUP1 RETURNDATACOPY RETURNDATASIZE PUSH1 0x0 REVERT JUMPDEST POP POP PUSH1 0x40 MLOAD PUSH1 0x1F NOT ADD MLOAD SWAP2 POP POP PUSH1 0x1 PUSH1 0x1 PUSH1 0xA0 SHL SUB DUP2 AND PUSH2 0x2684 JUMPI PUSH1 0x0 PUSH1 0x1 SWAP3 POP SWAP3 POP POP PUSH2 0x268B JUMP JUMPDEST SWAP2 POP PUSH1 0x0 SWAP1 POP JUMPDEST SWAP5 POP SWAP5 SWAP3 POP POP POP JUMP JUMPDEST PUSH1 0x0 DUP2 PUSH1 0x4 DUP2 GT ISZERO PUSH2 0x26A8 JUMPI PUSH2 0x26A8 PUSH2 0x317D JUMP JUMPDEST SUB PUSH2 0x26B0 JUMPI POP JUMP JUMPDEST PUSH1 0x1 DUP2 PUSH1 0x4 DUP2 GT ISZERO PUSH2 0x26C4 JUMPI PUSH2 0x26C4 PUSH2 0x317D JUMP JUMPDEST SUB PUSH2 0x2711 JUMPI PUSH1 0x40 MLOAD PUSH3 0x461BCD PUSH1 0xE5 SHL DUP2 MSTORE PUSH1 0x20 PUSH1 0x4 DUP3 ADD MSTORE PUSH1 0x18 PUSH1 0x24 DUP3 ADD MSTORE PUSH32 0x45434453413A20696E76616C6964207369676E61747572650000000000000000 PUSH1 0x44 DUP3 ADD MSTORE PUSH1 0x64 ADD PUSH2 0x9F0 JUMP JUMPDEST PUSH1 0x2 DUP2 PUSH1 0x4 DUP2 GT ISZERO PUSH2 0x2725 JUMPI PUSH2 0x2725 PUSH2 0x317D JUMP JUMPDEST SUB PUSH2 0x2772 JUMPI PUSH1 0x40 MLOAD PUSH3 0x461BCD PUSH1 0xE5 SHL DUP2 MSTORE PUSH1 0x20 PUSH1 0x4 DUP3 ADD MSTORE PUSH1 0x1F PUSH1 0x24 DUP3 ADD MSTORE PUSH32 0x45434453413A20696E76616C6964207369676E6174757265206C656E67746800 PUSH1 0x44 DUP3 ADD MSTORE PUSH1 0x64 ADD PUSH2 0x9F0 JUMP JUMPDEST PUSH1 0x3 DUP2 PUSH1 0x4 DUP2 GT ISZERO PUSH2 0x2786 JUMPI PUSH2 0x2786 PUSH2 0x317D JUMP JUMPDEST SUB PUSH2 0xA48 JUMPI PUSH1 0x40 MLOAD PUSH3 0x461BCD PUSH1 0xE5 SHL DUP2 MSTORE PUSH1 0x20 PUSH1 0x4 DUP3 ADD MSTORE PUSH1 0x22 PUSH1 0x24 DUP3 ADD MSTORE PUSH32 0x45434453413A20696E76616C6964207369676E6174757265202773272076616C PUSH1 0x44 DUP3 ADD MSTORE PUSH2 0x7565 PUSH1 0xF0 SHL PUSH1 0x64 DUP3 ADD MSTORE PUSH1 0x84 ADD PUSH2 0x9F0 JUMP JUMPDEST PUSH1 0x0 DUP6 DUP2 MSTORE PUSH1 0x7 PUSH1 0x20 SWAP1 DUP2 MSTORE PUSH1 0x40 DUP1 DUP4 KECCAK256 PUSH1 0x1 PUSH1 0x1 PUSH1 0xA0 SHL SUB DUP9 AND DUP5 MSTORE PUSH1 0x3 DUP2 ADD SWAP1 SWAP3 MSTORE SWAP1 SWAP2 KECCAK256 SLOAD PUSH1 0xFF AND ISZERO PUSH2 0x2866 JUMPI PUSH1 0x40 MLOAD PUSH3 0x461BCD PUSH1 0xE5 SHL DUP2 MSTORE PUSH1 0x20 PUSH1 0x4 DUP3 ADD MSTORE PUSH1 0x27 PUSH1 0x24 DUP3 ADD MSTORE PUSH32 0x476F7665726E6F72566F74696E6753696D706C653A20766F746520616C726561 PUSH1 0x44 DUP3 ADD MSTORE PUSH7 0x191E4818D85CDD PUSH1 0xCA SHL PUSH1 0x64 DUP3 ADD MSTORE PUSH1 0x84 ADD PUSH2 0x9F0 JUMP JUMPDEST PUSH1 0x1 PUSH1 0x1 PUSH1 0xA0 SHL SUB DUP6 AND PUSH1 0x0 SWAP1 DUP2 MSTORE PUSH1 0x3 DUP3 ADD PUSH1 0x20 MSTORE PUSH1 0x40 SWAP1 KECCAK256 DUP1 SLOAD PUSH1 0xFF NOT AND PUSH1 0x1 OR SWAP1 SSTORE PUSH1 0xFF DUP5 AND PUSH2 0x28B2 JUMPI DUP3 DUP2 PUSH1 0x0 ADD PUSH1 0x0 DUP3 DUP3 SLOAD PUSH2 0x28A7 SWAP2 SWAP1 PUSH2 0x37E9 JUMP JUMPDEST SWAP1 SWAP2 SSTORE POP PUSH2 0x1A46 SWAP1 POP JUMP JUMPDEST PUSH1 0x0 NOT PUSH1 0xFF DUP6 AND ADD PUSH2 0x28D2 JUMPI DUP3 DUP2 PUSH1 0x1 ADD PUSH1 0x0 DUP3 DUP3 SLOAD PUSH2 0x28A7 SWAP2 SWAP1 PUSH2 0x37E9 JUMP JUMPDEST PUSH1 0x1 NOT PUSH1 0xFF DUP6 AND ADD PUSH2 0x28F2 JUMPI DUP3 DUP2 PUSH1 0x2 ADD PUSH1 0x0 DUP3 DUP3 SLOAD PUSH2 0x28A7 SWAP2 SWAP1 PUSH2 0x37E9 JUMP JUMPDEST PUSH1 0x40 MLOAD PUSH3 0x461BCD PUSH1 0xE5 SHL DUP2 MSTORE PUSH1 0x20 PUSH1 0x4 DUP3 ADD MSTORE PUSH1 0x35 PUSH1 0x24 DUP3 ADD MSTORE PUSH32 0x476F7665726E6F72566F74696E6753696D706C653A20696E76616C6964207661 PUSH1 0x44 DUP3 ADD MSTORE PUSH21 0x6C756520666F7220656E756D20566F746554797065 PUSH1 0x58 SHL PUSH1 0x64 DUP3 ADD MSTORE PUSH1 0x84 ADD PUSH2 0x9F0 JUMP JUMPDEST DUP2 SLOAD PUSH1 0x1 PUSH1 0x80 SHL SWAP1 DUP2 SWAP1 DIV PUSH1 0xF SIGNEXTEND PUSH1 0x0 DUP2 DUP2 MSTORE PUSH1 0x1 DUP1 DUP7 ADD PUSH1 0x20 MSTORE PUSH1 0x40 SWAP1 SWAP2 KECCAK256 SWAP4 SWAP1 SWAP4 SSTORE DUP4 SLOAD PUSH1 0x1 PUSH1 0x1 PUSH1 0x80 SHL SUB SWAP1 DUP2 AND SWAP4 SWAP1 SWAP2 ADD AND MUL OR SWAP1 SSTORE JUMP JUMPDEST PUSH1 0xA SLOAD PUSH1 0x40 MLOAD PUSH4 0xE38335E5 PUSH1 0xE0 SHL DUP2 MSTORE PUSH1 0x1 PUSH1 0x1 PUSH1 0xA0 SHL SUB SWAP1 SWAP2 AND SWAP1 PUSH4 0xE38335E5 SWAP1 CALLVALUE SWAP1 PUSH2 0x29CF SWAP1 DUP9 SWAP1 DUP9 SWAP1 DUP9 SWAP1 PUSH1 0x0 SWAP1 DUP10 SWAP1 PUSH1 0x4 ADD PUSH2 0x372D JUMP JUMPDEST PUSH1 0x0 PUSH1 0x40 MLOAD DUP1 DUP4 SUB DUP2 DUP6 DUP9 DUP1 EXTCODESIZE ISZERO DUP1 ISZERO PUSH2 0x29E8 JUMPI PUSH1 0x0 DUP1 REVERT JUMPDEST POP GAS CALL ISZERO DUP1 ISZERO PUSH2 0x29FC JUMPI RETURNDATASIZE PUSH1 0x0 DUP1 RETURNDATACOPY RETURNDATASIZE PUSH1 0x0 REVERT JUMPDEST POP POP POP POP POP POP POP POP POP POP JUMP JUMPDEST PUSH1 0x0 DUP2 DUP2 MSTORE PUSH1 0x1 PUSH1 0x20 MSTORE PUSH1 0x40 DUP2 KECCAK256 PUSH1 0x2 DUP2 ADD SLOAD PUSH1 0xFF AND ISZERO PUSH2 0x2A2C JUMPI POP PUSH1 0x7 SWAP3 SWAP2 POP POP JUMP JUMPDEST PUSH1 0x2 DUP2 ADD SLOAD PUSH2 0x100 SWAP1 DIV PUSH1 0xFF AND ISZERO PUSH2 0x2A47 JUMPI POP PUSH1 0x2 SWAP3 SWAP2 POP POP JUMP JUMPDEST PUSH1 0x0 PUSH2 0x2A52 DUP5 PUSH2 0xDCA JUMP JUMPDEST SWAP1 POP DUP1 PUSH1 0x0 SUB PUSH2 0x2AA4 JUMPI PUSH1 0x40 MLOAD PUSH3 0x461BCD PUSH1 0xE5 SHL DUP2 MSTORE PUSH1 0x20 PUSH1 0x4 DUP3 ADD MSTORE PUSH1 0x1D PUSH1 0x24 DUP3 ADD MSTORE PUSH32 0x476F7665726E6F723A20756E6B6E6F776E2070726F706F73616C206964000000 PUSH1 0x44 DUP3 ADD MSTORE PUSH1 0x64 ADD PUSH2 0x9F0 JUMP JUMPDEST NUMBER DUP2 LT PUSH2 0x2AB5 JUMPI POP PUSH1 0x0 SWAP4 SWAP3 POP POP POP JUMP JUMPDEST PUSH1 0x0 PUSH2 0x2AC0 DUP6 PUSH2 0x11F4 JUMP JUMPDEST SWAP1 POP NUMBER DUP2 LT PUSH2 0x2AD4 JUMPI POP PUSH1 0x1 SWAP5 SWAP4 POP POP POP POP JUMP JUMPDEST PUSH2 0x2ADD DUP6 PUSH2 0x2C07 JUMP JUMPDEST DUP1 ISZERO PUSH2 0x2AFC JUMPI POP PUSH1 0x0 DUP6 DUP2 MSTORE PUSH1 0x7 PUSH1 0x20 MSTORE PUSH1 0x40 SWAP1 KECCAK256 DUP1 SLOAD PUSH1 0x1 SWAP1 SWAP2 ADD SLOAD GT JUMPDEST ISZERO PUSH2 0x2B0C JUMPI POP PUSH1 0x4 SWAP5 SWAP4 POP POP POP POP JUMP JUMPDEST POP PUSH1 0x3 SWAP5 SWAP4 POP POP POP POP JUMP JUMPDEST PUSH1 0x0 JUMPDEST DUP2 DUP4 LT ISZERO PUSH2 0x2B6D JUMPI PUSH1 0x0 PUSH2 0x2B2E DUP5 DUP5 PUSH2 0x2C3E JUMP JUMPDEST PUSH1 0x0 DUP8 DUP2 MSTORE PUSH1 0x20 SWAP1 KECCAK256 SWAP1 SWAP2 POP PUSH4 0xFFFFFFFF DUP7 AND SWAP1 DUP3 ADD SLOAD PUSH4 0xFFFFFFFF AND GT ISZERO PUSH2 0x2B59 JUMPI DUP1 SWAP3 POP PUSH2 0x2B67 JUMP JUMPDEST PUSH2 0x2B64 DUP2 PUSH1 0x1 PUSH2 0x37E9 JUMP JUMPDEST SWAP4 POP JUMPDEST POP PUSH2 0x2B1A JUMP JUMPDEST POP SWAP4 SWAP3 POP POP POP JUMP JUMPDEST PUSH1 0x0 PUSH1 0x1 PUSH1 0x1 PUSH1 0x40 SHL SUB DUP3 GT ISZERO PUSH2 0x150F JUMPI PUSH1 0x40 MLOAD PUSH3 0x461BCD PUSH1 0xE5 SHL DUP2 MSTORE PUSH1 0x20 PUSH1 0x4 DUP3 ADD MSTORE PUSH1 0x26 PUSH1 0x24 DUP3 ADD MSTORE PUSH32 0x53616665436173743A2076616C756520646F65736E27742066697420696E2036 PUSH1 0x44 DUP3 ADD MSTORE PUSH6 0x342062697473 PUSH1 0xD0 SHL PUSH1 0x64 DUP3 ADD MSTORE PUSH1 0x84 ADD PUSH2 0x9F0 JUMP JUMPDEST DUP2 MLOAD ISZERO PUSH2 0x2BED JUMPI DUP2 MLOAD DUP1 DUP4 PUSH1 0x20 ADD REVERT JUMPDEST DUP1 PUSH1 0x40 MLOAD PUSH3 0x461BCD PUSH1 0xE5 SHL DUP2 MSTORE PUSH1 0x4 ADD PUSH2 0x9F0 SWAP2 SWAP1 PUSH2 0x2E9C JUMP JUMPDEST PUSH1 0x0 DUP2 DUP2 MSTORE PUSH1 0x7 PUSH1 0x20 MSTORE PUSH1 0x40 DUP2 KECCAK256 PUSH1 0x2 DUP2 ADD SLOAD PUSH1 0x1 DUP3 ADD SLOAD PUSH2 0x2C29 SWAP2 SWAP1 PUSH2 0x37E9 JUMP JUMPDEST PUSH2 0x2C35 PUSH2 0x852 DUP6 PUSH2 0xDCA JUMP JUMPDEST GT ISZERO SWAP4 SWAP3 POP POP POP JUMP JUMPDEST PUSH1 0x0 PUSH2 0x2C4D PUSH1 0x2 DUP5 DUP5 XOR PUSH2 0x3AD9 JUMP JUMPDEST PUSH2 0x1097 SWAP1 DUP5 DUP5 AND PUSH2 0x37E9 JUMP JUMPDEST PUSH1 0x0 PUSH1 0x20 DUP3 DUP5 SUB SLT ISZERO PUSH2 0x2C6B JUMPI PUSH1 0x0 DUP1 REVERT JUMPDEST DUP2 CALLDATALOAD PUSH1 0x1 PUSH1 0x1 PUSH1 0xE0 SHL SUB NOT DUP2 AND DUP2 EQ PUSH2 0x1097 JUMPI PUSH1 0x0 DUP1 REVERT JUMPDEST DUP1 CALLDATALOAD PUSH1 0xFF DUP2 AND DUP2 EQ PUSH2 0x2C94 JUMPI PUSH1 0x0 DUP1 REVERT JUMPDEST SWAP2 SWAP1 POP JUMP JUMPDEST PUSH1 0x0 DUP1 DUP4 PUSH1 0x1F DUP5 ADD SLT PUSH2 0x2CAB JUMPI PUSH1 0x0 DUP1 REVERT JUMPDEST POP DUP2 CALLDATALOAD PUSH1 0x1 PUSH1 0x1 PUSH1 0x40 SHL SUB DUP2 GT ISZERO PUSH2 0x2CC2 JUMPI PUSH1 0x0 DUP1 REVERT JUMPDEST PUSH1 0x20 DUP4 ADD SWAP2 POP DUP4 PUSH1 0x20 DUP3 DUP6 ADD ADD GT ISZERO PUSH2 0x1542 JUMPI PUSH1 0x0 DUP1 REVERT JUMPDEST PUSH4 0x4E487B71 PUSH1 0xE0 SHL PUSH1 0x0 MSTORE PUSH1 0x41 PUSH1 0x4 MSTORE PUSH1 0x24 PUSH1 0x0 REVERT JUMPDEST PUSH1 0x40 MLOAD PUSH1 0x1F DUP3 ADD PUSH1 0x1F NOT AND DUP2 ADD PUSH1 0x1 PUSH1 0x1 PUSH1 0x40 SHL SUB DUP2 GT DUP3 DUP3 LT OR ISZERO PUSH2 0x2D18 JUMPI PUSH2 0x2D18 PUSH2 0x2CDA JUMP JUMPDEST PUSH1 0x40 MSTORE SWAP2 SWAP1 POP JUMP JUMPDEST PUSH1 0x0 PUSH1 0x1 PUSH1 0x1 PUSH1 0x40 SHL SUB DUP4 GT ISZERO PUSH2 0x2D39 JUMPI PUSH2 0x2D39 PUSH2 0x2CDA JUMP JUMPDEST PUSH2 0x2D4C PUSH1 0x1F DUP5 ADD PUSH1 0x1F NOT AND PUSH1 0x20 ADD PUSH2 0x2CF0 JUMP JUMPDEST SWAP1 POP DUP3 DUP2 MSTORE DUP4 DUP4 DUP4 ADD GT ISZERO PUSH2 0x2D60 JUMPI PUSH1 0x0 DUP1 REVERT JUMPDEST DUP3 DUP3 PUSH1 0x20 DUP4 ADD CALLDATACOPY PUSH1 0x0 PUSH1 0x20 DUP5 DUP4 ADD ADD MSTORE SWAP4 SWAP3 POP POP POP JUMP JUMPDEST PUSH1 0x0 DUP3 PUSH1 0x1F DUP4 ADD SLT PUSH2 0x2D88 JUMPI PUSH1 0x0 DUP1 REVERT JUMPDEST PUSH2 0x1097 DUP4 DUP4 CALLDATALOAD PUSH1 0x20 DUP6 ADD PUSH2 0x2D20 JUMP JUMPDEST PUSH1 0x0 DUP1 PUSH1 0x0 DUP1 PUSH1 0x0 DUP1 PUSH1 0x0 DUP1 PUSH1 0xE0 DUP10 DUP12 SUB SLT ISZERO PUSH2 0x2DB3 JUMPI PUSH1 0x0 DUP1 REVERT JUMPDEST DUP9 CALLDATALOAD SWAP8 POP PUSH2 0x2DC3 PUSH1 0x20 DUP11 ADD PUSH2 0x2C83 JUMP JUMPDEST SWAP7 POP PUSH1 0x40 DUP10 ADD CALLDATALOAD PUSH1 0x1 PUSH1 0x1 PUSH1 0x40 SHL SUB DUP1 DUP3 GT ISZERO PUSH2 0x2DDF JUMPI PUSH1 0x0 DUP1 REVERT JUMPDEST PUSH2 0x2DEB DUP13 DUP4 DUP14 ADD PUSH2 0x2C99 JUMP JUMPDEST SWAP1 SWAP9 POP SWAP7 POP PUSH1 0x60 DUP12 ADD CALLDATALOAD SWAP2 POP DUP1 DUP3 GT ISZERO PUSH2 0x2E04 JUMPI PUSH1 0x0 DUP1 REVERT JUMPDEST POP PUSH2 0x2E11 DUP12 DUP3 DUP13 ADD PUSH2 0x2D77 JUMP JUMPDEST SWAP5 POP POP PUSH2 0x2E20 PUSH1 0x80 DUP11 ADD PUSH2 0x2C83 JUMP JUMPDEST SWAP3 POP PUSH1 0xA0 DUP10 ADD CALLDATALOAD SWAP2 POP PUSH1 0xC0 DUP10 ADD CALLDATALOAD SWAP1 POP SWAP3 SWAP6 SWAP9 POP SWAP3 SWAP6 SWAP9 SWAP1 SWAP4 SWAP7 POP JUMP JUMPDEST PUSH1 0x0 PUSH1 0x20 DUP3 DUP5 SUB SLT ISZERO PUSH2 0x2E4F JUMPI PUSH1 0x0 DUP1 REVERT JUMPDEST POP CALLDATALOAD SWAP2 SWAP1 POP JUMP JUMPDEST PUSH1 0x0 DUP2 MLOAD DUP1 DUP5 MSTORE PUSH1 0x0 JUMPDEST DUP2 DUP2 LT ISZERO PUSH2 0x2E7C JUMPI PUSH1 0x20 DUP2 DUP6 ADD DUP2 ADD MLOAD DUP7 DUP4 ADD DUP3 ADD MSTORE ADD PUSH2 0x2E60 JUMP JUMPDEST POP PUSH1 0x0 PUSH1 0x20 DUP3 DUP7 ADD ADD MSTORE PUSH1 0x20 PUSH1 0x1F NOT PUSH1 0x1F DUP4 ADD AND DUP6 ADD ADD SWAP2 POP POP SWAP3 SWAP2 POP POP JUMP JUMPDEST PUSH1 0x20 DUP2 MSTORE PUSH1 0x0 PUSH2 0x1097 PUSH1 0x20 DUP4 ADD DUP5 PUSH2 0x2E56 JUMP JUMPDEST PUSH1 0x1 PUSH1 0x1 PUSH1 0xA0 SHL SUB DUP2 AND DUP2 EQ PUSH2 0xA48 JUMPI PUSH1 0x0 DUP1 REVERT JUMPDEST PUSH1 0x0 DUP1 PUSH1 0x0 DUP1 PUSH1 0x80 DUP6 DUP8 SUB SLT ISZERO PUSH2 0x2EDA JUMPI PUSH1 0x0 DUP1 REVERT JUMPDEST DUP5 CALLDATALOAD PUSH2 0x2EE5 DUP2 PUSH2 0x2EAF JUMP JUMPDEST SWAP4 POP PUSH1 0x20 DUP6 ADD CALLDATALOAD PUSH2 0x2EF5 DUP2 PUSH2 0x2EAF JUMP JUMPDEST SWAP3 POP PUSH1 0x40 DUP6 ADD CALLDATALOAD SWAP2 POP PUSH1 0x60 DUP6 ADD CALLDATALOAD PUSH1 0x1 PUSH1 0x1 PUSH1 0x40 SHL SUB DUP2 GT ISZERO PUSH2 0x2F17 JUMPI PUSH1 0x0 DUP1 REVERT JUMPDEST PUSH2 0x2F23 DUP8 DUP3 DUP9 ADD PUSH2 0x2D77 JUMP JUMPDEST SWAP2 POP POP SWAP3 SWAP6 SWAP2 SWAP5 POP SWAP3 POP JUMP JUMPDEST PUSH1 0x0 PUSH1 0x1 PUSH1 0x1 PUSH1 0x40 SHL SUB DUP3 GT ISZERO PUSH2 0x2F48 JUMPI PUSH2 0x2F48 PUSH2 0x2CDA JUMP JUMPDEST POP PUSH1 0x5 SHL PUSH1 0x20 ADD SWAP1 JUMP JUMPDEST PUSH1 0x0 DUP3 PUSH1 0x1F DUP4 ADD SLT PUSH2 0x2F63 JUMPI PUSH1 0x0 DUP1 REVERT JUMPDEST DUP2 CALLDATALOAD PUSH1 0x20 PUSH2 0x2F78 PUSH2 0x2F73 DUP4 PUSH2 0x2F2F JUMP JUMPDEST PUSH2 0x2CF0 JUMP JUMPDEST DUP3 DUP2 MSTORE PUSH1 0x5 SWAP3 SWAP1 SWAP3 SHL DUP5 ADD DUP2 ADD SWAP2 DUP2 DUP2 ADD SWAP1 DUP7 DUP5 GT ISZERO PUSH2 0x2F97 JUMPI PUSH1 0x0 DUP1 REVERT JUMPDEST DUP3 DUP7 ADD JUMPDEST DUP5 DUP2 LT ISZERO PUSH2 0x2FBB JUMPI DUP1 CALLDATALOAD PUSH2 0x2FAE DUP2 PUSH2 0x2EAF JUMP JUMPDEST DUP4 MSTORE SWAP2 DUP4 ADD SWAP2 DUP4 ADD PUSH2 0x2F9B JUMP JUMPDEST POP SWAP7 SWAP6 POP POP POP POP POP POP JUMP JUMPDEST PUSH1 0x0 DUP3 PUSH1 0x1F DUP4 ADD SLT PUSH2 0x2FD7 JUMPI PUSH1 0x0 DUP1 REVERT JUMPDEST DUP2 CALLDATALOAD PUSH1 0x20 PUSH2 0x2FE7 PUSH2 0x2F73 DUP4 PUSH2 0x2F2F JUMP JUMPDEST DUP3 DUP2 MSTORE PUSH1 0x5 SWAP3 SWAP1 SWAP3 SHL DUP5 ADD DUP2 ADD SWAP2 DUP2 DUP2 ADD SWAP1 DUP7 DUP5 GT ISZERO PUSH2 0x3006 JUMPI PUSH1 0x0 DUP1 REVERT JUMPDEST DUP3 DUP7 ADD JUMPDEST DUP5 DUP2 LT ISZERO PUSH2 0x2FBB JUMPI DUP1 CALLDATALOAD DUP4 MSTORE SWAP2 DUP4 ADD SWAP2 DUP4 ADD PUSH2 0x300A JUMP JUMPDEST PUSH1 0x0 DUP3 PUSH1 0x1F DUP4 ADD SLT PUSH2 0x3032 JUMPI PUSH1 0x0 DUP1 REVERT JUMPDEST DUP2 CALLDATALOAD PUSH1 0x20 PUSH2 0x3042 PUSH2 0x2F73 DUP4 PUSH2 0x2F2F JUMP JUMPDEST DUP3 DUP2 MSTORE PUSH1 0x5 SWAP3 SWAP1 SWAP3 SHL DUP5 ADD DUP2 ADD SWAP2 DUP2 DUP2 ADD SWAP1 DUP7 DUP5 GT ISZERO PUSH2 0x3061 JUMPI PUSH1 0x0 DUP1 REVERT JUMPDEST DUP3 DUP7 ADD JUMPDEST DUP5 DUP2 LT ISZERO PUSH2 0x2FBB JUMPI DUP1 CALLDATALOAD PUSH1 0x1 PUSH1 0x1 PUSH1 0x40 SHL SUB DUP2 GT ISZERO PUSH2 0x3084 JUMPI PUSH1 0x0 DUP1 DUP2 REVERT JUMPDEST PUSH2 0x3092 DUP10 DUP7 DUP4 DUP12 ADD ADD PUSH2 0x2D77 JUMP JUMPDEST DUP5 MSTORE POP SWAP2 DUP4 ADD SWAP2 DUP4 ADD PUSH2 0x3065 JUMP JUMPDEST PUSH1 0x0 DUP1 PUSH1 0x0 DUP1 PUSH1 0x80 DUP6 DUP8 SUB SLT ISZERO PUSH2 0x30B6 JUMPI PUSH1 0x0 DUP1 REVERT JUMPDEST DUP5 CALLDATALOAD PUSH1 0x1 PUSH1 0x1 PUSH1 0x40 SHL SUB DUP1 DUP3 GT ISZERO PUSH2 0x30CD JUMPI PUSH1 0x0 DUP1 REVERT JUMPDEST PUSH2 0x30D9 DUP9 DUP4 DUP10 ADD PUSH2 0x2F52 JUMP JUMPDEST SWAP6 POP PUSH1 0x20 DUP8 ADD CALLDATALOAD SWAP2 POP DUP1 DUP3 GT ISZERO PUSH2 0x30EF JUMPI PUSH1 0x0 DUP1 REVERT JUMPDEST PUSH2 0x30FB DUP9 DUP4 DUP10 ADD PUSH2 0x2FC6 JUMP JUMPDEST SWAP5 POP PUSH1 0x40 DUP8 ADD CALLDATALOAD SWAP2 POP DUP1 DUP3 GT ISZERO PUSH2 0x3111 JUMPI PUSH1 0x0 DUP1 REVERT JUMPDEST POP PUSH2 0x311E DUP8 DUP3 DUP9 ADD PUSH2 0x3021 JUMP JUMPDEST SWAP5 SWAP8 SWAP4 SWAP7 POP SWAP4 SWAP5 PUSH1 0x60 ADD CALLDATALOAD SWAP4 POP POP POP JUMP JUMPDEST PUSH1 0x0 DUP1 PUSH1 0x0 DUP1 PUSH1 0x0 PUSH1 0xA0 DUP7 DUP9 SUB SLT ISZERO PUSH2 0x3147 JUMPI PUSH1 0x0 DUP1 REVERT JUMPDEST DUP6 CALLDATALOAD SWAP5 POP PUSH2 0x3157 PUSH1 0x20 DUP8 ADD PUSH2 0x2C83 JUMP JUMPDEST SWAP4 POP PUSH2 0x3165 PUSH1 0x40 DUP8 ADD PUSH2 0x2C83 JUMP JUMPDEST SWAP5 SWAP8 SWAP4 SWAP7 POP SWAP4 SWAP5 PUSH1 0x60 DUP2 ADD CALLDATALOAD SWAP5 POP PUSH1 0x80 ADD CALLDATALOAD SWAP3 SWAP2 POP POP JUMP JUMPDEST PUSH4 0x4E487B71 PUSH1 0xE0 SHL PUSH1 0x0 MSTORE PUSH1 0x21 PUSH1 0x4 MSTORE PUSH1 0x24 PUSH1 0x0 REVERT JUMPDEST PUSH1 0x20 DUP2 ADD PUSH1 0x8 DUP4 LT PUSH2 0x31B5 JUMPI PUSH4 0x4E487B71 PUSH1 0xE0 SHL PUSH1 0x0 MSTORE PUSH1 0x21 PUSH1 0x4 MSTORE PUSH1 0x24 PUSH1 0x0 REVERT JUMPDEST SWAP2 SWAP1 MSTORE SWAP1 JUMP JUMPDEST PUSH1 0x0 DUP1 PUSH1 0x40 DUP4 DUP6 SUB SLT ISZERO PUSH2 0x31CE JUMPI PUSH1 0x0 DUP1 REVERT JUMPDEST DUP3 CALLDATALOAD SWAP2 POP PUSH1 0x20 DUP4 ADD CALLDATALOAD PUSH2 0x31E0 DUP2 PUSH2 0x2EAF JUMP JUMPDEST DUP1 SWAP2 POP POP SWAP3 POP SWAP3 SWAP1 POP JUMP JUMPDEST PUSH1 0x0 DUP1 PUSH1 0x40 DUP4 DUP6 SUB SLT ISZERO PUSH2 0x31FE JUMPI PUSH1 0x0 DUP1 REVERT JUMPDEST DUP3 CALLDATALOAD SWAP2 POP PUSH2 0x320E PUSH1 0x20 DUP5 ADD PUSH2 0x2C83 JUMP JUMPDEST SWAP1 POP SWAP3 POP SWAP3 SWAP1 POP JUMP JUMPDEST PUSH1 0x0 DUP1 PUSH1 0x0 DUP1 PUSH1 0x0 PUSH1 0x80 DUP7 DUP9 SUB SLT ISZERO PUSH2 0x322F JUMPI PUSH1 0x0 DUP1 REVERT JUMPDEST DUP6 CALLDATALOAD SWAP5 POP PUSH2 0x323F PUSH1 0x20 DUP8 ADD PUSH2 0x2C83 JUMP JUMPDEST SWAP4 POP PUSH1 0x40 DUP7 ADD CALLDATALOAD PUSH1 0x1 PUSH1 0x1 PUSH1 0x40 SHL SUB DUP1 DUP3 GT ISZERO PUSH2 0x325B JUMPI PUSH1 0x0 DUP1 REVERT JUMPDEST PUSH2 0x3267 DUP10 DUP4 DUP11 ADD PUSH2 0x2C99 JUMP JUMPDEST SWAP1 SWAP6 POP SWAP4 POP PUSH1 0x60 DUP9 ADD CALLDATALOAD SWAP2 POP DUP1 DUP3 GT ISZERO PUSH2 0x3280 JUMPI PUSH1 0x0 DUP1 REVERT JUMPDEST POP PUSH2 0x328D DUP9 DUP3 DUP10 ADD PUSH2 0x2D77 JUMP JUMPDEST SWAP2 POP POP SWAP3 SWAP6 POP SWAP3 SWAP6 SWAP1 SWAP4 POP JUMP JUMPDEST PUSH1 0x0 DUP1 PUSH1 0x0 DUP1 PUSH1 0x60 DUP6 DUP8 SUB SLT ISZERO PUSH2 0x32B0 JUMPI PUSH1 0x0 DUP1 REVERT JUMPDEST DUP5 CALLDATALOAD SWAP4 POP PUSH2 0x32C0 PUSH1 0x20 DUP7 ADD PUSH2 0x2C83 JUMP JUMPDEST SWAP3 POP PUSH1 0x40 DUP6 ADD CALLDATALOAD PUSH1 0x1 PUSH1 0x1 PUSH1 0x40 SHL SUB DUP2 GT ISZERO PUSH2 0x32DB JUMPI PUSH1 0x0 DUP1 REVERT JUMPDEST PUSH2 0x32E7 DUP8 DUP3 DUP9 ADD PUSH2 0x2C99 JUMP JUMPDEST SWAP6 SWAP9 SWAP5 SWAP8 POP SWAP6 POP POP POP POP JUMP JUMPDEST PUSH1 0x0 DUP1 PUSH1 0x0 DUP1 PUSH1 0x80 DUP6 DUP8 SUB SLT ISZERO PUSH2 0x3309 JUMPI PUSH1 0x0 DUP1 REVERT JUMPDEST DUP5 CALLDATALOAD PUSH1 0x1 PUSH1 0x1 PUSH1 0x40 SHL SUB DUP1 DUP3 GT ISZERO PUSH2 0x3320 JUMPI PUSH1 0x0 DUP1 REVERT JUMPDEST PUSH2 0x332C DUP9 DUP4 DUP10 ADD PUSH2 0x2F52 JUMP JUMPDEST SWAP6 POP PUSH1 0x20 DUP8 ADD CALLDATALOAD SWAP2 POP DUP1 DUP3 GT ISZERO PUSH2 0x3342 JUMPI PUSH1 0x0 DUP1 REVERT JUMPDEST PUSH2 0x334E DUP9 DUP4 DUP10 ADD PUSH2 0x2FC6 JUMP JUMPDEST SWAP5 POP PUSH1 0x40 DUP8 ADD CALLDATALOAD SWAP2 POP DUP1 DUP3 GT ISZERO PUSH2 0x3364 JUMPI PUSH1 0x0 DUP1 REVERT JUMPDEST PUSH2 0x3370 DUP9 DUP4 DUP10 ADD PUSH2 0x3021 JUMP JUMPDEST SWAP4 POP PUSH1 0x60 DUP8 ADD CALLDATALOAD SWAP2 POP DUP1 DUP3 GT ISZERO PUSH2 0x3386 JUMPI PUSH1 0x0 DUP1 REVERT JUMPDEST POP DUP6 ADD PUSH1 0x1F DUP2 ADD DUP8 SGT PUSH2 0x3398 JUMPI PUSH1 0x0 DUP1 REVERT JUMPDEST PUSH2 0x2F23 DUP8 DUP3 CALLDATALOAD PUSH1 0x20 DUP5 ADD PUSH2 0x2D20 JUMP JUMPDEST PUSH1 0x0 DUP1 PUSH1 0x0 PUSH1 0x60 DUP5 DUP7 SUB SLT ISZERO PUSH2 0x33BC JUMPI PUSH1 0x0 DUP1 REVERT JUMPDEST DUP4 CALLDATALOAD PUSH2 0x33C7 DUP2 PUSH2 0x2EAF JUMP JUMPDEST SWAP3 POP PUSH1 0x20 DUP5 ADD CALLDATALOAD SWAP2 POP PUSH1 0x40 DUP5 ADD CALLDATALOAD PUSH1 0x1 PUSH1 0x1 PUSH1 0x40 SHL SUB DUP2 GT ISZERO PUSH2 0x33E9 JUMPI PUSH1 0x0 DUP1 REVERT JUMPDEST PUSH2 0x33F5 DUP7 DUP3 DUP8 ADD PUSH2 0x2D77 JUMP JUMPDEST SWAP2 POP POP SWAP3 POP SWAP3 POP SWAP3 JUMP JUMPDEST PUSH1 0x0 PUSH1 0x20 DUP3 DUP5 SUB SLT ISZERO PUSH2 0x3411 JUMPI PUSH1 0x0 DUP1 REVERT JUMPDEST DUP2 CALLDATALOAD PUSH2 0x1097 DUP2 PUSH2 0x2EAF JUMP JUMPDEST PUSH1 0x0 DUP1 PUSH1 0x0 DUP1 PUSH1 0x0 PUSH1 0xA0 DUP7 DUP9 SUB SLT ISZERO PUSH2 0x3434 JUMPI PUSH1 0x0 DUP1 REVERT JUMPDEST DUP6 CALLDATALOAD PUSH2 0x343F DUP2 PUSH2 0x2EAF JUMP JUMPDEST SWAP5 POP PUSH1 0x20 DUP7 ADD CALLDATALOAD PUSH2 0x344F DUP2 PUSH2 0x2EAF JUMP JUMPDEST SWAP4 POP PUSH1 0x40 DUP7 ADD CALLDATALOAD PUSH1 0x1 PUSH1 0x1 PUSH1 0x40 SHL SUB DUP1 DUP3 GT ISZERO PUSH2 0x346B JUMPI PUSH1 0x0 DUP1 REVERT JUMPDEST PUSH2 0x3477 DUP10 DUP4 DUP11 ADD PUSH2 0x2FC6 JUMP JUMPDEST SWAP5 POP PUSH1 0x60 DUP9 ADD CALLDATALOAD SWAP2 POP DUP1 DUP3 GT ISZERO PUSH2 0x348D JUMPI PUSH1 0x0 DUP1 REVERT JUMPDEST PUSH2 0x3499 DUP10 DUP4 DUP11 ADD PUSH2 0x2FC6 JUMP JUMPDEST SWAP4 POP PUSH1 0x80 DUP9 ADD CALLDATALOAD SWAP2 POP DUP1 DUP3 GT ISZERO PUSH2 0x3280 JUMPI PUSH1 0x0 DUP1 REVERT JUMPDEST PUSH1 0x0 DUP1 PUSH1 0x0 DUP1 PUSH1 0x60 DUP6 DUP8 SUB SLT ISZERO PUSH2 0x34C5 JUMPI PUSH1 0x0 DUP1 REVERT JUMPDEST DUP5 CALLDATALOAD PUSH2 0x34D0 DUP2 PUSH2 0x2EAF JUMP JUMPDEST SWAP4 POP PUSH1 0x20 DUP6 ADD CALLDATALOAD SWAP3 POP PUSH1 0x40 DUP6 ADD CALLDATALOAD PUSH1 0x1 PUSH1 0x1 PUSH1 0x40 SHL SUB DUP2 GT ISZERO PUSH2 0x32DB JUMPI PUSH1 0x0 DUP1 REVERT JUMPDEST PUSH1 0x0 DUP1 PUSH1 0x40 DUP4 DUP6 SUB SLT ISZERO PUSH2 0x3505 JUMPI PUSH1 0x0 DUP1 REVERT JUMPDEST DUP3 CALLDATALOAD PUSH2 0x3510 DUP2 PUSH2 0x2EAF JUMP JUMPDEST SWAP5 PUSH1 0x20 SWAP4 SWAP1 SWAP4 ADD CALLDATALOAD SWAP4 POP POP POP JUMP JUMPDEST PUSH1 0x0 DUP1 PUSH1 0x0 DUP1 PUSH1 0x0 PUSH1 0xA0 DUP7 DUP9 SUB SLT ISZERO PUSH2 0x3536 JUMPI PUSH1 0x0 DUP1 REVERT JUMPDEST DUP6 CALLDATALOAD PUSH2 0x3541 DUP2 PUSH2 0x2EAF JUMP JUMPDEST SWAP5 POP PUSH1 0x20 DUP7 ADD CALLDATALOAD PUSH2 0x3551 DUP2 PUSH2 0x2EAF JUMP JUMPDEST SWAP4 POP PUSH1 0x40 DUP7 ADD CALLDATALOAD SWAP3 POP PUSH1 0x60 DUP7 ADD CALLDATALOAD SWAP2 POP PUSH1 0x80 DUP7 ADD CALLDATALOAD PUSH1 0x1 PUSH1 0x1 PUSH1 0x40 SHL SUB DUP2 GT ISZERO PUSH2 0x357A JUMPI PUSH1 0x0 DUP1 REVERT JUMPDEST PUSH2 0x328D DUP9 DUP3 DUP10 ADD PUSH2 0x2D77 JUMP JUMPDEST DUP2 DUP4 DUP3 CALLDATACOPY PUSH1 0x0 SWAP2 ADD SWAP1 DUP2 MSTORE SWAP2 SWAP1 POP JUMP JUMPDEST PUSH1 0x20 DUP1 DUP3 MSTORE PUSH1 0x18 SWAP1 DUP3 ADD MSTORE PUSH32 0x476F7665726E6F723A206F6E6C79476F7665726E616E63650000000000000000 PUSH1 0x40 DUP3 ADD MSTORE PUSH1 0x60 ADD SWAP1 JUMP JUMPDEST PUSH1 0x1 DUP2 DUP2 SHR SWAP1 DUP3 AND DUP1 PUSH2 0x35E1 JUMPI PUSH1 0x7F DUP3 AND SWAP2 POP JUMPDEST PUSH1 0x20 DUP3 LT DUP2 SUB PUSH2 0x3601 JUMPI PUSH4 0x4E487B71 PUSH1 0xE0 SHL PUSH1 0x0 MSTORE PUSH1 0x22 PUSH1 0x4 MSTORE PUSH1 0x24 PUSH1 0x0 REVERT JUMPDEST POP SWAP2 SWAP1 POP JUMP JUMPDEST PUSH1 0x20 DUP1 DUP3 MSTORE PUSH1 0x21 SWAP1 DUP3 ADD MSTORE PUSH32 0x476F7665726E6F723A2070726F706F73616C206E6F7420737563636573736675 PUSH1 0x40 DUP3 ADD MSTORE PUSH1 0x1B PUSH1 0xFA SHL PUSH1 0x60 DUP3 ADD MSTORE PUSH1 0x80 ADD SWAP1 JUMP JUMPDEST PUSH1 0x0 PUSH1 0x20 DUP3 DUP5 SUB SLT ISZERO PUSH2 0x365A JUMPI PUSH1 0x0 DUP1 REVERT JUMPDEST POP MLOAD SWAP2 SWAP1 POP JUMP JUMPDEST PUSH1 0x0 DUP2 MLOAD DUP1 DUP5 MSTORE PUSH1 0x20 DUP1 DUP6 ADD SWAP5 POP DUP1 DUP5 ADD PUSH1 0x0 JUMPDEST DUP4 DUP2 LT ISZERO PUSH2 0x369A JUMPI DUP2 MLOAD PUSH1 0x1 PUSH1 0x1 PUSH1 0xA0 SHL SUB AND DUP8 MSTORE SWAP6 DUP3 ADD SWAP6 SWAP1 DUP3 ADD SWAP1 PUSH1 0x1 ADD PUSH2 0x3675 JUMP JUMPDEST POP SWAP5 SWAP6 SWAP5 POP POP POP POP POP JUMP JUMPDEST PUSH1 0x0 DUP2 MLOAD DUP1 DUP5 MSTORE PUSH1 0x20 DUP1 DUP6 ADD SWAP5 POP DUP1 DUP5 ADD PUSH1 0x0 JUMPDEST DUP4 DUP2 LT ISZERO PUSH2 0x369A JUMPI DUP2 MLOAD DUP8 MSTORE SWAP6 DUP3 ADD SWAP6 SWAP1 DUP3 ADD SWAP1 PUSH1 0x1 ADD PUSH2 0x36B9 JUMP JUMPDEST PUSH1 0x0 DUP3 DUP3 MLOAD DUP1 DUP6 MSTORE PUSH1 0x20 DUP1 DUP7 ADD SWAP6 POP DUP1 DUP3 PUSH1 0x5 SHL DUP5 ADD ADD DUP2 DUP7 ADD PUSH1 0x0 JUMPDEST DUP5 DUP2 LT ISZERO PUSH2 0x3720 JUMPI PUSH1 0x1F NOT DUP7 DUP5 SUB ADD DUP10 MSTORE PUSH2 0x370E DUP4 DUP4 MLOAD PUSH2 0x2E56 JUMP JUMPDEST SWAP9 DUP5 ADD SWAP9 SWAP3 POP SWAP1 DUP4 ADD SWAP1 PUSH1 0x1 ADD PUSH2 0x36F2 JUMP JUMPDEST POP SWAP1 SWAP8 SWAP7 POP POP POP POP POP POP POP JUMP JUMPDEST PUSH1 0xA0 DUP2 MSTORE PUSH1 0x0 PUSH2 0x3740 PUSH1 0xA0 DUP4 ADD DUP9 PUSH2 0x3661 JUMP JUMPDEST DUP3 DUP2 SUB PUSH1 0x20 DUP5 ADD MSTORE PUSH2 0x3752 DUP2 DUP9 PUSH2 0x36A5 JUMP JUMPDEST SWAP1 POP DUP3 DUP2 SUB PUSH1 0x40 DUP5 ADD MSTORE PUSH2 0x3766 DUP2 DUP8 PUSH2 0x36D5 JUMP JUMPDEST PUSH1 0x60 DUP5 ADD SWAP6 SWAP1 SWAP6 MSTORE POP POP PUSH1 0x80 ADD MSTORE SWAP4 SWAP3 POP POP POP JUMP JUMPDEST PUSH1 0xC0 DUP2 MSTORE PUSH1 0x0 PUSH2 0x378E PUSH1 0xC0 DUP4 ADD DUP10 PUSH2 0x3661 JUMP JUMPDEST DUP3 DUP2 SUB PUSH1 0x20 DUP5 ADD MSTORE PUSH2 0x37A0 DUP2 DUP10 PUSH2 0x36A5 JUMP JUMPDEST SWAP1 POP DUP3 DUP2 SUB PUSH1 0x40 DUP5 ADD MSTORE PUSH2 0x37B4 DUP2 DUP9 PUSH2 0x36D5 JUMP JUMPDEST PUSH1 0x60 DUP5 ADD SWAP7 SWAP1 SWAP7 MSTORE POP POP PUSH1 0x80 DUP2 ADD SWAP3 SWAP1 SWAP3 MSTORE PUSH1 0xA0 SWAP1 SWAP2 ADD MSTORE SWAP4 SWAP3 POP POP POP JUMP JUMPDEST PUSH4 0x4E487B71 PUSH1 0xE0 SHL PUSH1 0x0 MSTORE PUSH1 0x11 PUSH1 0x4 MSTORE PUSH1 0x24 PUSH1 0x0 REVERT JUMPDEST DUP1 DUP3 ADD DUP1 DUP3 GT ISZERO PUSH2 0x8AF JUMPI PUSH2 0x8AF PUSH2 0x37D3 JUMP JUMPDEST DUP2 DUP2 SUB DUP2 DUP2 GT ISZERO PUSH2 0x8AF JUMPI PUSH2 0x8AF PUSH2 0x37D3 JUMP JUMPDEST PUSH4 0x4E487B71 PUSH1 0xE0 SHL PUSH1 0x0 MSTORE PUSH1 0x32 PUSH1 0x4 MSTORE PUSH1 0x24 PUSH1 0x0 REVERT JUMPDEST PUSH1 0x80 DUP2 MSTORE PUSH1 0x0 PUSH2 0x3838 PUSH1 0x80 DUP4 ADD DUP8 PUSH2 0x3661 JUMP JUMPDEST DUP3 DUP2 SUB PUSH1 0x20 DUP5 ADD MSTORE PUSH2 0x384A DUP2 DUP8 PUSH2 0x36A5 JUMP JUMPDEST SWAP1 POP DUP3 DUP2 SUB PUSH1 0x40 DUP5 ADD MSTORE PUSH2 0x385E DUP2 DUP7 PUSH2 0x36D5 JUMP JUMPDEST SWAP2 POP POP DUP3 PUSH1 0x60 DUP4 ADD MSTORE SWAP6 SWAP5 POP POP POP POP POP JUMP JUMPDEST DUP5 DUP2 MSTORE PUSH1 0xFF DUP5 AND PUSH1 0x20 DUP3 ADD MSTORE DUP3 PUSH1 0x40 DUP3 ADD MSTORE PUSH1 0x80 PUSH1 0x60 DUP3 ADD MSTORE PUSH1 0x0 PUSH2 0x1066 PUSH1 0x80 DUP4 ADD DUP5 PUSH2 0x2E56 JUMP JUMPDEST DUP6 DUP2 MSTORE PUSH1 0xFF DUP6 AND PUSH1 0x20 DUP3 ADD MSTORE DUP4 PUSH1 0x40 DUP3 ADD MSTORE PUSH1 0xA0 PUSH1 0x60 DUP3 ADD MSTORE PUSH1 0x0 PUSH2 0x38C0 PUSH1 0xA0 DUP4 ADD DUP6 PUSH2 0x2E56 JUMP JUMPDEST DUP3 DUP2 SUB PUSH1 0x80 DUP5 ADD MSTORE PUSH2 0x38D2 DUP2 DUP6 PUSH2 0x2E56 JUMP JUMPDEST SWAP9 SWAP8 POP POP POP POP POP POP POP POP JUMP JUMPDEST PUSH1 0x0 PUSH1 0x1 DUP3 ADD PUSH2 0x38F0 JUMPI PUSH2 0x38F0 PUSH2 0x37D3 JUMP JUMPDEST POP PUSH1 0x1 ADD SWAP1 JUMP JUMPDEST DUP6 DUP2 MSTORE PUSH1 0xA0 PUSH1 0x20 DUP3 ADD MSTORE PUSH1 0x0 PUSH2 0x3910 PUSH1 0xA0 DUP4 ADD DUP8 PUSH2 0x3661 JUMP JUMPDEST DUP3 DUP2 SUB PUSH1 0x40 DUP5 ADD MSTORE PUSH2 0x3922 DUP2 DUP8 PUSH2 0x36A5 JUMP JUMPDEST SWAP1 POP DUP3 DUP2 SUB PUSH1 0x60 DUP5 ADD MSTORE PUSH2 0x3936 DUP2 DUP7 PUSH2 0x36D5 JUMP JUMPDEST SWAP2 POP POP DUP3 PUSH1 0x80 DUP4 ADD MSTORE SWAP7 SWAP6 POP POP POP POP POP POP JUMP JUMPDEST PUSH1 0x0 PUSH1 0x20 DUP3 DUP5 SUB SLT ISZERO PUSH2 0x395B JUMPI PUSH1 0x0 DUP1 REVERT JUMPDEST DUP2 MLOAD DUP1 ISZERO ISZERO DUP2 EQ PUSH2 0x1097 JUMPI PUSH1 0x0 DUP1 REVERT JUMPDEST PUSH1 0x20 DUP1 DUP3 MSTORE PUSH1 0x21 SWAP1 DUP3 ADD MSTORE PUSH32 0x476F7665726E6F723A20696E76616C69642070726F706F73616C206C656E6774 PUSH1 0x40 DUP3 ADD MSTORE PUSH1 0xD PUSH1 0xFB SHL PUSH1 0x60 DUP3 ADD MSTORE PUSH1 0x80 ADD SWAP1 JUMP JUMPDEST PUSH1 0x1 PUSH1 0x1 PUSH1 0x40 SHL SUB DUP2 DUP2 AND DUP4 DUP3 AND ADD SWAP1 DUP1 DUP3 GT ISZERO PUSH2 0x39CC JUMPI PUSH2 0x39CC PUSH2 0x37D3 JUMP JUMPDEST POP SWAP3 SWAP2 POP POP JUMP JUMPDEST PUSH1 0x0 PUSH2 0x120 DUP12 DUP4 MSTORE PUSH1 0x20 PUSH1 0x1 DUP1 PUSH1 0xA0 SHL SUB DUP13 AND DUP2 DUP6 ADD MSTORE DUP2 PUSH1 0x40 DUP6 ADD MSTORE PUSH2 0x39FC DUP3 DUP6 ADD DUP13 PUSH2 0x3661 JUMP JUMPDEST SWAP2 POP DUP4 DUP3 SUB PUSH1 0x60 DUP6 ADD MSTORE PUSH2 0x3A10 DUP3 DUP12 PUSH2 0x36A5 JUMP JUMPDEST SWAP2 POP DUP4 DUP3 SUB PUSH1 0x80 DUP6 ADD MSTORE DUP2 DUP10 MLOAD DUP1 DUP5 MSTORE DUP3 DUP5 ADD SWAP2 POP DUP3 DUP2 PUSH1 0x5 SHL DUP6 ADD ADD DUP4 DUP13 ADD PUSH1 0x0 JUMPDEST DUP4 DUP2 LT ISZERO PUSH2 0x3A61 JUMPI PUSH1 0x1F NOT DUP8 DUP5 SUB ADD DUP6 MSTORE PUSH2 0x3A4F DUP4 DUP4 MLOAD PUSH2 0x2E56 JUMP JUMPDEST SWAP5 DUP7 ADD SWAP5 SWAP3 POP SWAP1 DUP6 ADD SWAP1 PUSH1 0x1 ADD PUSH2 0x3A33 JUMP JUMPDEST POP POP DUP7 DUP2 SUB PUSH1 0xA0 DUP9 ADD MSTORE PUSH2 0x3A75 DUP2 DUP13 PUSH2 0x36D5 JUMP JUMPDEST SWAP5 POP POP POP POP POP PUSH2 0x3A90 PUSH1 0xC0 DUP5 ADD DUP8 PUSH1 0x1 PUSH1 0x1 PUSH1 0x40 SHL SUB AND SWAP1 MSTORE JUMP JUMPDEST PUSH1 0x1 PUSH1 0x1 PUSH1 0x40 SHL SUB DUP6 AND PUSH1 0xE0 DUP5 ADD MSTORE DUP3 DUP2 SUB PUSH2 0x100 DUP5 ADD MSTORE PUSH2 0x3AB2 DUP2 DUP6 PUSH2 0x2E56 JUMP JUMPDEST SWAP13 SWAP12 POP POP POP POP POP POP POP POP POP POP POP POP JUMP JUMPDEST DUP1 DUP3 MUL DUP2 ISZERO DUP3 DUP3 DIV DUP5 EQ OR PUSH2 0x8AF JUMPI PUSH2 0x8AF PUSH2 0x37D3 JUMP JUMPDEST PUSH1 0x0 DUP3 PUSH2 0x3AF6 JUMPI PUSH4 0x4E487B71 PUSH1 0xE0 SHL PUSH1 0x0 MSTORE PUSH1 0x12 PUSH1 0x4 MSTORE PUSH1 0x24 PUSH1 0x0 REVERT JUMPDEST POP DIV SWAP1 JUMP INVALID SELFBALANCE PUSH16 0x7665726E6F723A2072656C6179207265 PUSH23 0x657274656420776974686F7574206D657373616765A264 PUSH10 0x70667358221220F6B10E 0xAF 0xC5 0x4A PUSH15 0xC98E8488091D843D474BF7ACB60B19 MUL JUMPI SELFBALANCE MLOAD BLOCKHASH MULMOD DUP11 LOG3 0xFC 0x4A PUSH5 0x736F6C6343 STOP ADDMOD GT STOP CALLER ","sha1":"dbdecd59accbed5d7a8223c286ca179a3a965f08","source":"// The voting delay is the time between the proposal being created and the voting starts\n// Voting Period is the time between the voting starting and the voting ending\n// Proposal Treshold is the minimum amount of votes an account must have to be able to create a proposal\n// Quorum is the minimum amount of votes a proposal must have to be able to be executed in percentage\n// Updatable Settings allows to change the settings of the contract such as delay, period, treshold.\n// Bravo Compatible allows to use the Bravo compatible functions such as getVotes and getReceipts\n\n// SPDX-License-Identifier: MIT\npragma solidity ^0.8.9;\n\nimport \"@openzeppelin/contracts/governance/Governor.sol\";\nimport \"@openzeppelin/contracts/governance/extensions/GovernorSettings.sol\";\nimport \"@openzeppelin/contracts/governance/extensions/GovernorCountingSimple.sol\";\nimport \"@openzeppelin/contracts/governance/extensions/GovernorVotes.sol\";\nimport \"@openzeppelin/contracts/governance/extensions/GovernorVotesQuorumFraction.sol\";\nimport \"@openzeppelin/contracts/governance/extensions/GovernorTimelockControl.sol\";\n\ncontract MoralisGovernor is\n    Governor,\n    GovernorSettings,\n    GovernorCountingSimple,\n    GovernorVotes,\n    GovernorVotesQuorumFraction,\n    GovernorTimelockControl\n{\n    event ProposalExecuted(\n        uint256 proposalId,\n        address[] targets,\n        uint256[] values,\n        bytes[] calldatas,\n        bytes32 descriptionHash\n    );\n\n    event ProposalCancelled(\n        address[] targets,\n        uint256[] values,\n        bytes32 descriptionHash\n    );\n\n    constructor(\n        IVotes _token,\n        TimelockController _timelock,\n        uint256 _votingDelay,\n        uint256 _votingPeriod,\n        uint256 _quorumPercentage\n    )\n        Governor(\"Governor\")\n        GovernorSettings(\n            _votingDelay, /* 1 => 1 block */\n            _votingPeriod, /* 300 blocks => 1 hour */\n            0 /* 0 => Because we want anyone to be able to create a proposal */\n        )\n        GovernorVotes(_token)\n        GovernorVotesQuorumFraction(_quorumPercentage) /* 4 => 4% */\n        GovernorTimelockControl(_timelock)\n    {}\n\n    // The following functions are overrides required by Solidity.\n\n    function votingDelay()\n        public\n        view\n        override(IGovernor, GovernorSettings)\n        returns (uint256)\n    {\n        return super.votingDelay();\n    }\n\n    function votingPeriod()\n        public\n        view\n        override(IGovernor, GovernorSettings)\n        returns (uint256)\n    {\n        return super.votingPeriod();\n    }\n\n    function quorum(uint256 blockNumber)\n        public\n        view\n        override(IGovernor, GovernorVotesQuorumFraction)\n        returns (uint256)\n    {\n        return super.quorum(blockNumber);\n    }\n\n    function state(uint256 proposalId)\n        public\n        view\n        override(Governor, GovernorTimelockControl)\n        returns (ProposalState)\n    {\n        return super.state(proposalId);\n    }\n\n    function propose(\n        address[] memory targets,\n        uint256[] memory values,\n        bytes[] memory calldatas,\n        string memory description\n    ) public override(Governor, IGovernor) returns (uint256) {\n        return super.propose(targets, values, calldatas, description);\n    }\n\n    function proposalThreshold()\n        public\n        view\n        override(Governor, GovernorSettings)\n        returns (uint256)\n    {\n        return super.proposalThreshold();\n    }\n\n    function _execute(\n        uint256 proposalId,\n        address[] memory targets,\n        uint256[] memory values,\n        bytes[] memory calldatas,\n        bytes32 descriptionHash\n    ) internal override(Governor, GovernorTimelockControl) {\n        emit ProposalExecuted(\n            proposalId,\n            targets,\n            values,\n            calldatas,\n            descriptionHash\n        );\n        super._execute(proposalId, targets, values, calldatas, descriptionHash);\n    }\n\n    function _cancel(\n        address[] memory targets,\n        uint256[] memory values,\n        bytes[] memory calldatas,\n        bytes32 descriptionHash\n    ) internal override(Governor, GovernorTimelockControl) returns (uint256) {\n        emit ProposalCancelled(targets, values, descriptionHash);\n        return super._cancel(targets, values, calldatas, descriptionHash);\n    }\n\n    function _executor()\n        internal\n        view\n        override(Governor, GovernorTimelockControl)\n        returns (address)\n    {\n        return super._executor();\n    }\n\n    function supportsInterface(bytes4 interfaceId)\n        public\n        view\n        override(Governor, GovernorTimelockControl)\n        returns (bool)\n    {\n        return super.supportsInterface(interfaceId);\n    }\n}\n","sourcePath":"contracts/Governance/MoralisGovernor.sol","type":"contract","deployment":{"address":"0xdB4e80b21B00AE14F88591cb53aD808883B823E8","chainid":"5","blockHeight":8508957}}